2600101001   00017010005900000            2633910001 0033    20221231 01001   0001701                         ABALOS                   ABALOS                   00059ARANA                    00000                                                              2633910001 0033 
2600101001   00017010005900000            2633920006 0036    20221231 01001   0001701                         ABALOS                   ABALOS                   00059ARANA                    00000                                                              2633920006 0036 
2600101001   00017010006000000            2633910009 0019    20221231 01001   0001701                         ABALOS                   ABALOS                   00060RIOJA DE (LA)            00000                                                              2633910009 0019 
2600101001   00017010006000000            2633920006 0026    20221231 01001   0001701                         ABALOS                   ABALOS                   00060RIOJA DE (LA)            00000                                                              2633920006 0026 
2600101001   00017010006100000            2633910001 0019    20221231 01001   0001701                         ABALOS                   ABALOS                   00061BALLESTEROS              00000                                                              2633910001 0019 
2600101001   00017010006100000            2633920002 0008    20221231 01001   0001701                         ABALOS                   ABALOS                   00061BALLESTEROS              00000                                                              2633920002 0008 
2600101001   00017010006200000            2633910009 0009    20221231 01001   0001701                         ABALOS                   ABALOS                   00062ROSA DE (LA)             00000                                                              2633910009 0009 
2600101001   00017010006200000            2633920006 0050    20221231 01001   0001701                         ABALOS                   ABALOS                   00062ROSA DE (LA)             00000                                                              2633920006 0050 
2600101001   00017010006300000            2633910001 0009    20221231 01001   0001701                         ABALOS                   ABALOS                   00063CARTAJONA                00000                                                              2633910001 0009 
2600101001   00017010006400000            2633910001 0007    20221231 01001   0001701                         ABALOS                   ABALOS                   00064HORNO (EL)               00000                                                              2633910001 0007 
2600101001   00017010006400000            2633920002 0002    20221231 01001   0001701                         ABALOS                   ABALOS                   00064HORNO (EL)               00000                                                              2633920002 0002 
2600101001   00017010006500000            2633920004 0010    20221231 01001   0001701                         ABALOS                   ABALOS                   00065RAMAL (EL)               00000                                                              2633920004 0010 
2600101001   00017010006600000            2633910001 0015    20221231 01001   0001701                         ABALOS                   ABALOS                   00066HOSPITAL                 00000                                                              2633910001 0015 
2600101001   00017010006600000            2633920002 0016    20221231 01001   0001701                         ABALOS                   ABALOS                   00066HOSPITAL                 00000                                                              2633920002 0016 
2600101001   00017010006700000            2633910003 0023    20221231 01001   0001701                         ABALOS                   ABALOS                   00067LONGRANDE                00000                                                              2633910003 0023 
2600101001   00017010006700000            2633920010 0012A   20221231 01001   0001701                         ABALOS                   ABALOS                   00067LONGRANDE                00000                                                              2633920010 0012A
2600101001   00017010006800000            2633910005 0005    20221231 01001   0001701                         ABALOS                   ABALOS                   00068MULETOS (LOS)            00000                                                              2633910005 0005 
2600101001   00017010006800000            2633920004 0004    20221231 01001   0001701                         ABALOS                   ABALOS                   00068MULETOS (LOS)            00000                                                              2633920004 0004 
2600101001   00017010006900000            2633910001 0001    20221231 01001   0001701                         ABALOS                   ABALOS                   00069MARIA CRISTINA           00000                                                              2633910001 0001 
2600101001   00017010006900000            2633920002 0004    20221231 01001   0001701                         ABALOS                   ABALOS                   00069MARIA CRISTINA           00000                                                              2633920002 0004 
2600101001   00017010007000000            2633910005 0005    20221231 01001   0001701                         ABALOS                   ABALOS                   00070MANUEL IGLESIAS          00000                                                              2633910005 0005 
2600101001   00017010007000000            2633920002 0016    20221231 01001   0001701                         ABALOS                   ABALOS                   00070MANUEL IGLESIAS          00000                                                              2633920002 0016 
2600101001   00017010007100000            2633910001 0017    20221231 01001   0001701                         ABALOS                   ABALOS                   00071MESONES                  00000                                                              2633910001 0017 
2600101001   00017010007100000            2633920002 0006    20221231 01001   0001701                         ABALOS                   ABALOS                   00071MESONES                  00000                                                              2633920002 0006 
2600101001   00017010007200000            2633920002 0002    20221231 01001   0001701                         ABALOS                   ABALOS                   00072PALACIO (DEL)            00000                                                              2633920002 0002 
2600101001   00017010007300000            2633920002 0002    20221231 01001   0001701                         ABALOS                   ABALOS                   00073FERMIN GURBINDO          00000                                                              2633920002 0002 
2600101001   00017010007400000            2633910001 0001    20221231 01001   0001701                         ABALOS                   ABALOS                   00074CONSTITUCION DE (LA)     00000                                                              2633910001 0001 
2600101001   00017010007500000            2633910001 0007    20221231 01001   0001701                         ABALOS                   ABALOS                   00075SANTA MARIA DE LA PISCINA00000                                                              2633910001 0007 
2600101001   00017010007500000            2633920002 0012    20221231 01001   0001701                         ABALOS                   ABALOS                   00075SANTA MARIA DE LA PISCINA00000                                                              2633920002 0012 
2600101001   00017010007600000            2633910001 0001    20221231 01001   0001701                         ABALOS                   ABALOS                   00076CANTON (DEL)             00000                                                              2633910001 0001 
2600101001   00017010007700000            2633910001 0007    20221231 01001   0001701                         ABALOS                   ABALOS                   00077MARTIN FERNANDEZ DE NAVAR00000                                                              2633910001 0007 
2600101001   00017010007800000            2633910001 0003    20221231 01001   0001701                         ABALOS                   ABALOS                   00078REAL DIVISA              00000                                                              2633910001 0003 
2600101001   00017010007800000            2633920002 0002    20221231 01001   0001701                         ABALOS                   ABALOS                   00078REAL DIVISA              00000                                                              2633920002 0002 
2600101001   00017010007900000            2633910001 0019    20221231 01001   0001701                         ABALOS                   ABALOS                   00079NORTE (DEL)              00000                                                              2633910001 0019 
2600101001   00017010007900000            2633920002 0002    20221231 01001   0001701                         ABALOS                   ABALOS                   00079NORTE (DEL)              00000                                                              2633920002 0002 
2600101001   00017010008000000            2633910001 0009    20221231 01001   0001701                         ABALOS                   ABALOS                   00080TRUJALES                 00000                                                              2633910001 0009 
2600101001   00017010008000000            2633920002 0010    20221231 01001   0001701                         ABALOS                   ABALOS                   00080TRUJALES                 00000                                                              2633920002 0010 
2600101001   00017010008100000            2633910001 0041    20221231 01001   0001701                         ABALOS                   ABALOS                   00081VIRGEN DE LA ROSA        00000                                                              2633910001 0041 
2600101001   00017010008100000            2633920002 0032    20221231 01001   0001701                         ABALOS                   ABALOS                   00081VIRGEN DE LA ROSA        00000                                                              2633920002 0032 
2600101001   00017010008200000            2633920010 0010    20221231 01001   0001701                         ABALOS                   ABALOS                   00082ZARABEL                  00000                                                              2633920010 0010 
2600101001   00017010008300000            2633910001 0009    20221231 01001   0001701                         ABALOS                   ABALOS                   00083RAMIRO DE NAVARRA        00000                                                              2633910001 0009 
2600101001   00017010008400000            2633910001 0003    20221231 01001   0001701                         ABALOS                   ABALOS                   00084NUEVA                    00000                                                              2633910001 0003 
2600101001   00017010008400000            2633920002 0006    20221231 01001   0001701                         ABALOS                   ABALOS                   00084NUEVA                    00000                                                              2633920002 0006 
2600101001   00017010008500000            2633910005 0009    20221231 01001   0001701                         ABALOS                   ABALOS                   00085MORALES (LOS)            00000                                                              2633910005 0009 
2600101001   00017010008500000            2633920008 0012    20221231 01001   0001701                         ABALOS                   ABALOS                   00085MORALES (LOS)            00000                                                              2633920008 0012 
2600101001   00017010008600000            2633910005 0009    20221231 01001   0001701                         ABALOS                   ABALOS                   00086SAN ROQUE                00000                                                              2633910005 0009 
2600101001   00017010008800000            2633900000S0000S   20221231 01001   0001701                         ABALOS                   ABALOS                   00088SAN BARTOLOME            00000                                                              2633900000S0000S
2600101001   00017010008800000            2633920012 0012    20221231 01001   0001701                         ABALOS                   ABALOS                   00088SAN BARTOLOME            00000                                                              2633920012 0012 
2600101001   00017010008900000            2633920004 0004    20221231 01001   0001701                         ABALOS                   ABALOS                   00089TRUJALES                 00000                                                              2633920004 0004 
2600101001   00017010009200000            2633910001 0005    20221231 01001   0001701                         ABALOS                   ABALOS                   00092REAL DIVISA              00000                                                              2633910001 0005 
2600101001   00017010009200000            2633920002 0004    20221231 01001   0001701                         ABALOS                   ABALOS                   00092REAL DIVISA              00000                                                              2633920002 0004 
2600101001   00017010009300000            2633910015 0021    20221231 01001   0001701                         ABALOS                   ABALOS                   00093NORTE                    00000                                                              2633910015 0021 
2600101001   00017010009300000            2633920002 0010    20221231 01001   0001701                         ABALOS                   ABALOS                   00093NORTE                    00000                                                              2633920002 0010 
2600101001   00017010009400000            2633910001 0013    20221231 01001   0001701                         ABALOS                   ABALOS                   00094MOLINOS (LOS)            00000                                                              2633910001 0013 
2600101001   00017010009900000            2633920002 0002    20221231 01001   0001701                         ABALOS                   ABALOS                   00099SAN ANDRES               00000                                                              2633920002 0002 
2600201001   00017010000500000            2616000000S0000S   20221231 01001   0001701                         AGONCILLO                AGONCILLO                00005ZARAGOZA                 00000                                                              2616000000S0000S
2600201001   00017010000500000            2616010017 9997    20221231 01001   0001701                         AGONCILLO                AGONCILLO                00005ZARAGOZA                 00000                                                              2616010017 9997 
2600201001   00017010000500000            2616020002 0058    20221231 01001   0001701                         AGONCILLO                AGONCILLO                00005ZARAGOZA                 00000                                                              2616020002 0058 
2600201001   00017010000900000            2616010001 0055    20221231 01001   0001701                         AGONCILLO                AGONCILLO                00009OLMO (EL)                00000                                                              2616010001 0055 
2600201001   00017010000900000            2616020004 0062    20221231 01001   0001701                         AGONCILLO                AGONCILLO                00009OLMO (EL)                00000                                                              2616020004 0062 
2600201001   00017010001800000            2616010001 0019    20221231 01001   0001701                         AGONCILLO                AGONCILLO                00018TORRONTERO               00000                                                              2616010001 0019 
2600201001   00017010001800000            2616020002 0012    20221231 01001   0001701                         AGONCILLO                AGONCILLO                00018TORRONTERO               00000                                                              2616020002 0012 
2600201001   00017010002200000            2616010001 0051    20221231 01001   0001701                         AGONCILLO                AGONCILLO                00022PAZ (LA)                 00000                                                              2616010001 0051 
2600201001   00017010002200000            2616020006 0050    20221231 01001   0001701                         AGONCILLO                AGONCILLO                00022PAZ (LA)                 00000                                                              2616020006 0050 
2600201001   00017010006600000            2616010003 0035    20221231 01001   0001701                         AGONCILLO                AGONCILLO                00066FERROCARRIL              00000                                                              2616010003 0035 
2600201001   00017010006900000            2616020002 0002    20221231 01001   0001701                         AGONCILLO                AGONCILLO                00069SANTOLAYAS               00000                                                              2616020002 0002 
2600201001   00017010007100000            2616000000S0000S   20221231 01001   0001701                         AGONCILLO                AGONCILLO                00071MURILLO                  00000                                                              2616000000S0000S
2600201001   00017010007100000            2616010003 9999    20221231 01001   0001701                         AGONCILLO                AGONCILLO                00071MURILLO                  00000                                                              2616010003 9999 
2600201001   00017010007100000            2616020004 9998    20221231 01001   0001701                         AGONCILLO                AGONCILLO                00071MURILLO                  00000                                                              2616020004 9998 
2600201001   00017010007400000            2616010001 0017    20221231 01001   0001701                         AGONCILLO                AGONCILLO                00074PORTALES                 00000                                                              2616010001 0017 
2600201001   00017010007400000            2616020006 0016    20221231 01001   0001701                         AGONCILLO                AGONCILLO                00074PORTALES                 00000                                                              2616020006 0016 
2600201001   00017010007700000            2616010001 0015    20221231 01001   0001701                         AGONCILLO                AGONCILLO                00077OFICINA (LA)             00000                                                              2616010001 0015 
2600201001   00017010007700000            2616020002 0004    20221231 01001   0001701                         AGONCILLO                AGONCILLO                00077OFICINA (LA)             00000                                                              2616020002 0004 
2600201001   00017010008000000            2616010001 0043    20221231 01001   0001701                         AGONCILLO                AGONCILLO                00080VILLA (LA)               00000                                                              2616010001 0043 
2600201001   00017010008000000            2616020004 0028    20221231 01001   0001701                         AGONCILLO                AGONCILLO                00080VILLA (LA)               00000                                                              2616020004 0028 
2600201001   00017010008100000            2616010001 0013    20221231 01001   0001701                         AGONCILLO                AGONCILLO                00081VIRGEN (LA)              00000                                                              2616010001 0013 
2600201001   00017010008100000            2616020002 0026    20221231 01001   0001701                         AGONCILLO                AGONCILLO                00081VIRGEN (LA)              00000                                                              2616020002 0026 
2600201001   00017010008800000            2616010001 0011    20221231 01001   0001701                         AGONCILLO                AGONCILLO                00088VALDEMOROS               00000                                                              2616010001 0011 
2600201001   00017010008800000            2616020006 0006    20221231 01001   0001701                         AGONCILLO                AGONCILLO                00088VALDEMOROS               00000                                                              2616020006 0006 
2600201001   00017010008900000            2616019999 9999    20221231 01001   0001701                         AGONCILLO                AGONCILLO                00089RIO GRANDE               00000                                                              2616019999 9999 
2600201001   00017010009400000            2616010015 0017    20221231 01001   0001701                         AGONCILLO                AGONCILLO                00094POLIDEPORTIVO            00000                                                              2616010015 0017 
2600201001   00017010009400000            2616020008 0010    20221231 01001   0001701                         AGONCILLO                AGONCILLO                00094POLIDEPORTIVO            00000                                                              2616020008 0010 
2600201001   00017010009500000            2616010001 0005    20221231 01001   0001701                         AGONCILLO                AGONCILLO                00095DONANTES DE SANGRE       00000                                                              2616010001 0005 
2600201001   00017010009500000            2616020002 0004    20221231 01001   0001701                         AGONCILLO                AGONCILLO                00095DONANTES DE SANGRE       00000                                                              2616020002 0004 
2600201001   00017010009600000            2616010001 9999    20221231 01001   0001701                         AGONCILLO                AGONCILLO                00096MIGUEL SANTOS SAENZ      00000                                                              2616010001 9999 
2600201001   00017010009600000            2616020008 0010B   20221231 01001   0001701                         AGONCILLO                AGONCILLO                00096MIGUEL SANTOS SAENZ      00000                                                              2616020008 0010B
2600201001   00017010009800000            2616010001 0001    20221231 01001   0001701                         AGONCILLO                AGONCILLO                00098GUARDIA CIVIL            00000                                                              2616010001 0001 
2600201001   00017010009800000            2616020002A0014    20221231 01001   0001701                         AGONCILLO                AGONCILLO                00098GUARDIA CIVIL            00000                                                              2616020002A0014 
2600201001   00017010009900000            2616010003 0021    20221231 01001   0001701                         AGONCILLO                AGONCILLO                00099CASTILLO (DEL)           00000                                                              2616010003 0021 
2600201001   00017010009900000            2616020004 0018    20221231 01001   0001701                         AGONCILLO                AGONCILLO                00099CASTILLO (DEL)           00000                                                              2616020004 0018 
2600201001   00017010010100000            2616010001 0049    20221231 01001   0001701                         AGONCILLO                AGONCILLO                00101GONZALO DE BERCEO        00000                                                              2616010001 0049 
2600201001   00017010010100000            2616020004 0038    20221231 01001   0001701                         AGONCILLO                AGONCILLO                00101GONZALO DE BERCEO        00000                                                              2616020004 0038 
2600201001   00017010010200000            2616010001 0009    20221231 01001   0001701                         AGONCILLO                AGONCILLO                00102JOSE MARIA DE LA VEGA    00000                                                              2616010001 0009 
2600201001   00017010010200000            2616020010 0028    20221231 01001   0001701                         AGONCILLO                AGONCILLO                00102JOSE MARIA DE LA VEGA    00000                                                              2616020010 0028 
2600201001   00017010010300000            2616010005 0023    20221231 01001   0001701                         AGONCILLO                AGONCILLO                00103BRETON DE LOS HERREROS   00000                                                              2616010005 0023 
2600201001   00017010010300000            2616020006 0016    20221231 01001   0001701                         AGONCILLO                AGONCILLO                00103BRETON DE LOS HERREROS   00000                                                              2616020006 0016 
2600201001   00017010010400000            2616020002 0020    20221231 01001   0001701                         AGONCILLO                AGONCILLO                00104SAN ROQUE                00000                                                              2616020002 0020 
2600201001   00017010010500000            2616010005 0005    20221231 01001   0001701                         AGONCILLO                AGONCILLO                00105BARRIO LA ATALAYUELA     00000                                                              2616010005 0005 
2600201001   00017010010600000            2616010001 0005    20221231 01001   0001701                         AGONCILLO                AGONCILLO                00106CANA (LA)                00000                                                              2616010001 0005 
2600201001   00017010010600000            2616020006 0014    20221231 01001   0001701                         AGONCILLO                AGONCILLO                00106CANA (LA)                00000                                                              2616020006 0014 
2600201001   00017010010800000            2616010001 0005    20221231 01001   0001701                         AGONCILLO                AGONCILLO                00108LABRADORES               00000                                                              2616010001 0005 
2600201001   00017010010800000            2616020004 0014    20221231 01001   0001701                         AGONCILLO                AGONCILLO                00108LABRADORES               00000                                                              2616020004 0014 
2600201001   00017010011000000            2616010001 0099    20221231 01001   0001701                         AGONCILLO                AGONCILLO                00110ERMITA (LA)              00000                                                              2616010001 0099 
2600201001   00017010011000000            2616020004 0200    20221231 01001   0001701                         AGONCILLO                AGONCILLO                00110ERMITA (LA)              00000                                                              2616020004 0200 
2600201001   00017010011200000            2616020004 0004    20221231 01001   0001701                         AGONCILLO                AGONCILLO                00112AGUAZAL                  00000                                                              2616020004 0004 
2600201001   00017010011400000            2616010001 0005    20221231 01001   0001701                         AGONCILLO                AGONCILLO                00114CAPITAN MEDRANO          00000                                                              2616010001 0005 
2600201001   00017010011400000            2616020002 0002    20221231 01001   0001701                         AGONCILLO                AGONCILLO                00114CAPITAN MEDRANO          00000                                                              2616020002 0002 
2600201001   00017010011500000            2616010001 0031    20221231 01001   0001701                         AGONCILLO                AGONCILLO                00115OBISPO JUAN GARCIA       00000                                                              2616010001 0031 
2600201001   00017010011500000            2616020002 0008    20221231 01001   0001701                         AGONCILLO                AGONCILLO                00115OBISPO JUAN GARCIA       00000                                                              2616020002 0008 
2600201001   00017010011600000            2616010009 0029    20221231 01001   0001701                         AGONCILLO                AGONCILLO                00116RIOJA (LA)               00000                                                              2616010009 0029 
2600201001   00017010011600000            2616020002 0054    20221231 01001   0001701                         AGONCILLO                AGONCILLO                00116RIOJA (LA)               00000                                                              2616020002 0054 
2600201001   00017010011700000            2616019999 9999    20221231 01001   0001701                         AGONCILLO                AGONCILLO                00117VALDEGON                 00000                                                              2616019999 9999 
2600201001   00017010012400000            2616010189 0189    20221231 01001   0001701                         AGONCILLO                AGONCILLO                00124RIO CIDACOS              00000                                                              2616010189 0189 
2600201001   00017010012500000            2616010003 0019    20221231 01001   0001701                         AGONCILLO                AGONCILLO                00125LOPE DE PORRES           00000                                                              2616010003 0019 
2600201001   00017010012600000            2616010019 0071    20221231 01001   0001701                         AGONCILLO                AGONCILLO                00126ATALAYUELA (LA)          00000                                                              2616010019 0071 
2600201001   00017010012600000            2616020020 0092B   20221231 01001   0001701                         AGONCILLO                AGONCILLO                00126ATALAYUELA (LA)          00000                                                              2616020020 0092B
2600201001   00017010013100000            2616010001 0019    20221231 01001   0001701                         AGONCILLO                AGONCILLO                00131ESCULTOR DANIEL          00000                                                              2616010001 0019 
2600201001   00017010013100000            2616020002 0020    20221231 01001   0001701                         AGONCILLO                AGONCILLO                00131ESCULTOR DANIEL          00000                                                              2616020002 0020 
2600201001   00017010013200000            2616010001 0001    20221231 01001   0001701                         AGONCILLO                AGONCILLO                00132TOMAS DE LA CRUZ         00000                                                              2616010001 0001 
2600201001   00017010013400000            2616010001 0001    20221231 01001   0001701                         AGONCILLO                AGONCILLO                00134ERNESTINA NEGUERUELA     00000                                                              2616010001 0001 
2600201001   00017010013400000            2616020002 0002    20221231 01001   0001701                         AGONCILLO                AGONCILLO                00134ERNESTINA NEGUERUELA     00000                                                              2616020002 0002 
2600201001   00017010013500000            2616020002 0006    20221231 01001   0001701                         AGONCILLO                AGONCILLO                00135SANTA AGUEDA             00000                                                              2616020002 0006 
2600201001   00017010013700000            2616010005 0005    20221231 01001   0001701                         AGONCILLO                AGONCILLO                00137RAFAEL ALBERTI           00000                                                              2616010005 0005 
2600201001   00017010013800000            2616020002 0002    20221231 01001   0001701                         AGONCILLO                AGONCILLO                00138MIGUEL DE UNAMUNO        00000                                                              2616020002 0002 
2600201001   00017010014000000            2616010003 0003    20221231 01001   0001701                         AGONCILLO                AGONCILLO                00140CESAR SIERRA             00000                                                              2616010003 0003 
2600201001   00017990006100000            2616019999 9999    20221231 01001   0001799                         AGONCILLO                DISEMINADO               00061SAN MARTIN BERBERANA     00000                                                              2616019999 9999 
2600201001   00017990010900000            2616010001 9999    20221231 01001   0001799                         AGONCILLO                DISEMINADO               00109PLANTIO                  00000                                                              2616010001 9999 
2600201001   00017990011100000            2616010001 9997    20221231 01001   0001799                         AGONCILLO                DISEMINADO               00111ALAMEDAS (LAS)           00000                                                              2616010001 9997 
2600201001   00017990011100000            2616020084 0084    20221231 01001   0001799                         AGONCILLO                DISEMINADO               00111ALAMEDAS (LAS)           00000                                                              2616020084 0084 
2600201001   00017990013000000            2616010163 8889    20221231 01001   0001799                         AGONCILLO                DISEMINADO               00130DISEMINADO               00000                                                              2616010163 8889 
2600201001   00017990013300000            2616019999 9999    20221231 01001   0001799                         AGONCILLO                DISEMINADO               00133SERNA (LA)               00000                                                              2616019999 9999 
2600201001   00022010000400000            2616020002 0002    20221231 01001   0002201                         RECAJO                   RECAJO                   00004VILLAFRIA                00000                                                              2616020002 0002 
2600201001   00022010006200000            2616000000S0000S   20221231 01001   0002201                         RECAJO                   RECAJO                   00062AERODROMO MILITAR        00000                                                              2616000000S0000S
2600201001   00022010006200000            2616019999 9999    20221231 01001   0002201                         RECAJO                   RECAJO                   00062AERODROMO MILITAR        00000                                                              2616019999 9999 
2600201001   00022010006200000            2616020002 0002    20221231 01001   0002201                         RECAJO                   RECAJO                   00062AERODROMO MILITAR        00000                                                              2616020002 0002 
2600201001   00022010007000000            2616010003 0003    20221231 01001   0002201                         RECAJO                   RECAJO                   00070TEJERIA                  00000                                                              2616010003 0003 
2600201001   00022010007000000            2616020006 0012    20221231 01001   0002201                         RECAJO                   RECAJO                   00070TEJERIA                  00000                                                              2616020006 0012 
2600201001   00022010009000000            2616010001 0035    20221231 01001   0002201                         RECAJO                   RECAJO                   00090ABLITAS                  00000                                                              2616010001 0035 
2600201001   00022010012900000            2616010015 0151    20221231 01001   0002201                         RECAJO                   RECAJO                   00129ZARAGOZA-RECAJO-         00000                                                              2616010015 0151 
2600201001   00022010012900000            2616020006 0066    20221231 01001   0002201                         RECAJO                   RECAJO                   00129ZARAGOZA-RECAJO-         00000                                                              2616020006 0066 
2600301001   00017010000200000            2653010001 0011    20221231 01001   0001701                         AGUILAR DEL RIO ALHAMA   AGUILAR DEL RIO ALHAMA   00002CA헤MONA                 00000                                                              2653010001 0011 
2600301001   00017010000200000            2653020002 0010    20221231 01001   0001701                         AGUILAR DEL RIO ALHAMA   AGUILAR DEL RIO ALHAMA   00002CA헤MONA                 00000                                                              2653020002 0010 
2600301001   00017010000700000            2653010003 0029    20221231 01001   0001701                         AGUILAR DEL RIO ALHAMA   AGUILAR DEL RIO ALHAMA   00007CARLOS MORENO            00000                                                              2653010003 0029 
2600301001   00017010000700000            2653020002 0016    20221231 01001   0001701                         AGUILAR DEL RIO ALHAMA   AGUILAR DEL RIO ALHAMA   00007CARLOS MORENO            00000                                                              2653020002 0016 
2600301001   00017010000800000            2653010001 0003    20221231 01001   0001701                         AGUILAR DEL RIO ALHAMA   AGUILAR DEL RIO ALHAMA   00008PUERTA PALILLOS          00000                                                              2653010001 0003 
2600301001   00017010000800000            2653020002 0036    20221231 01001   0001701                         AGUILAR DEL RIO ALHAMA   AGUILAR DEL RIO ALHAMA   00008PUERTA PALILLOS          00000                                                              2653020002 0036 
2600301001   00017010001200000            2653010001 0017    20221231 01001   0001701                         AGUILAR DEL RIO ALHAMA   AGUILAR DEL RIO ALHAMA   00012ESCUELAS                 00000                                                              2653010001 0017 
2600301001   00017010001200000            2653020002 0012    20221231 01001   0001701                         AGUILAR DEL RIO ALHAMA   AGUILAR DEL RIO ALHAMA   00012ESCUELAS                 00000                                                              2653020002 0012 
2600301001   00017010001500000            2653010003 0041    20221231 01001   0001701                         AGUILAR DEL RIO ALHAMA   AGUILAR DEL RIO ALHAMA   00015PONTARRON                00000                                                              2653010003 0041 
2600301001   00017010001500000            2653020002 0014    20221231 01001   0001701                         AGUILAR DEL RIO ALHAMA   AGUILAR DEL RIO ALHAMA   00015PONTARRON                00000                                                              2653020002 0014 
2600301001   00017010001700000            2653010001 0015    20221231 01001   0001701                         AGUILAR DEL RIO ALHAMA   AGUILAR DEL RIO ALHAMA   00017SAN ISIDRO               00000                                                              2653010001 0015 
2600301001   00017010001700000            2653020002 0012    20221231 01001   0001701                         AGUILAR DEL RIO ALHAMA   AGUILAR DEL RIO ALHAMA   00017SAN ISIDRO               00000                                                              2653020002 0012 
2600301001   00017010002200000            2653010001 0001    20221231 01001   0001701                         AGUILAR DEL RIO ALHAMA   AGUILAR DEL RIO ALHAMA   00022CALLEJON (A)             00000                                                              2653010001 0001 
2600301001   00017010002500000            2653000000S0000S   20221231 01001   0001701                         AGUILAR DEL RIO ALHAMA   AGUILAR DEL RIO ALHAMA   00025ALFONSO BENITO           00000                                                              2653000000S0000S
2600301001   00017010002500000            2653010003 0047    20221231 01001   0001701                         AGUILAR DEL RIO ALHAMA   AGUILAR DEL RIO ALHAMA   00025ALFONSO BENITO           00000                                                              2653010003 0047 
2600301001   00017010002500000            2653020004 0052    20221231 01001   0001701                         AGUILAR DEL RIO ALHAMA   AGUILAR DEL RIO ALHAMA   00025ALFONSO BENITO           00000                                                              2653020004 0052 
2600301001   00017010002700000            2653010001 0003    20221231 01001   0001701                         AGUILAR DEL RIO ALHAMA   AGUILAR DEL RIO ALHAMA   00027NUEVA                    00000                                                              2653010001 0003 
2600301001   00017010002700000            2653020002 0004    20221231 01001   0001701                         AGUILAR DEL RIO ALHAMA   AGUILAR DEL RIO ALHAMA   00027NUEVA                    00000                                                              2653020002 0004 
2600301001   00017010002800000            2653010007 0011    20221231 01001   0001701                         AGUILAR DEL RIO ALHAMA   AGUILAR DEL RIO ALHAMA   00028TRINQUETE                00000                                                              2653010007 0011 
2600301001   00017010002800000            2653020002 0016    20221231 01001   0001701                         AGUILAR DEL RIO ALHAMA   AGUILAR DEL RIO ALHAMA   00028TRINQUETE                00000                                                              2653020002 0016 
2600301001   00017010003000000            2653010001 0015    20221231 01001   0001701                         AGUILAR DEL RIO ALHAMA   AGUILAR DEL RIO ALHAMA   00030JIMENEZ MONTERO          00000                                                              2653010001 0015 
2600301001   00017010003000000            2653020002 0034    20221231 01001   0001701                         AGUILAR DEL RIO ALHAMA   AGUILAR DEL RIO ALHAMA   00030JIMENEZ MONTERO          00000                                                              2653020002 0034 
2600301001   00017010003700000            2653010001 0011    20221231 01001   0001701                         AGUILAR DEL RIO ALHAMA   AGUILAR DEL RIO ALHAMA   00037SUBIDA IGLESIA           00000                                                              2653010001 0011 
2600301001   00017010003700000            2653020002 0016    20221231 01001   0001701                         AGUILAR DEL RIO ALHAMA   AGUILAR DEL RIO ALHAMA   00037SUBIDA IGLESIA           00000                                                              2653020002 0016 
2600301001   00017010004000000            2653010001 0001    20221231 01001   0001701                         AGUILAR DEL RIO ALHAMA   AGUILAR DEL RIO ALHAMA   00040ESPA헤                   00000                                                              2653010001 0001 
2600301001   00017010004000000            2653020002 0002    20221231 01001   0001701                         AGUILAR DEL RIO ALHAMA   AGUILAR DEL RIO ALHAMA   00040ESPA헤                   00000                                                              2653020002 0002 
2600301001   00017010006000000            2653010001 0015    20221231 01001   0001701                         AGUILAR DEL RIO ALHAMA   AGUILAR DEL RIO ALHAMA   00060PAJARES                  00000                                                              2653010001 0015 
2600301001   00017010006000000            2653020004 0014    20221231 01001   0001701                         AGUILAR DEL RIO ALHAMA   AGUILAR DEL RIO ALHAMA   00060PAJARES                  00000                                                              2653020004 0014 
2600301001   00017010007600000            2653010001 0001    20221231 01001   0001701                         AGUILAR DEL RIO ALHAMA   AGUILAR DEL RIO ALHAMA   00076ESCUELAS                 00000                                                              2653010001 0001 
2600301001   00017010007700000            2653010001 0015    20221231 01001   0001701                         AGUILAR DEL RIO ALHAMA   AGUILAR DEL RIO ALHAMA   00077PAJARES                  00000                                                              2653010001 0015 
2600301001   00017010007900000            2653010005 0031    20221231 01001   0001701                         AGUILAR DEL RIO ALHAMA   AGUILAR DEL RIO ALHAMA   00079VIEJO SAN FELICES        00000                                                              2653010005 0031 
2600301001   00017010007900000            2653020008 0012    20221231 01001   0001701                         AGUILAR DEL RIO ALHAMA   AGUILAR DEL RIO ALHAMA   00079VIEJO SAN FELICES        00000                                                              2653020008 0012 
2600301001   00017010008000000            2653010001 0011    20221231 01001   0001701                         AGUILAR DEL RIO ALHAMA   AGUILAR DEL RIO ALHAMA   00080VILLARIJO                00000                                                              2653010001 0011 
2600301001   00017010008000000            2653020004 0006    20221231 01001   0001701                         AGUILAR DEL RIO ALHAMA   AGUILAR DEL RIO ALHAMA   00080VILLARIJO                00000                                                              2653020004 0006 
2600301001   00017010008100000            2653000000S0000S   20221231 01001   0001701                         AGUILAR DEL RIO ALHAMA   AGUILAR DEL RIO ALHAMA   00081NAVAJUN                  00000                                                              2653000000S0000S
2600301001   00017010008100000            2653010001 0011    20221231 01001   0001701                         AGUILAR DEL RIO ALHAMA   AGUILAR DEL RIO ALHAMA   00081NAVAJUN                  00000                                                              2653010001 0011 
2600301001   00017010008100000            2653020002 0004    20221231 01001   0001701                         AGUILAR DEL RIO ALHAMA   AGUILAR DEL RIO ALHAMA   00081NAVAJUN                  00000                                                              2653020002 0004 
2600301001   00017010008200000            2653010001 0011    20221231 01001   0001701                         AGUILAR DEL RIO ALHAMA   AGUILAR DEL RIO ALHAMA   00082RIO MAYOR                00000                                                              2653010001 0011 
2600301001   00017010008200000            2653020002 0002    20221231 01001   0001701                         AGUILAR DEL RIO ALHAMA   AGUILAR DEL RIO ALHAMA   00082RIO MAYOR                00000                                                              2653020002 0002 
2600301001   00017010008300000            2653010003 0023    20221231 01001   0001701                         AGUILAR DEL RIO ALHAMA   AGUILAR DEL RIO ALHAMA   00083CERVERA                  00000                                                              2653010003 0023 
2600301001   00017010008300000            2653020010 0284    20221231 01001   0001701                         AGUILAR DEL RIO ALHAMA   AGUILAR DEL RIO ALHAMA   00083CERVERA                  00000                                                              2653020010 0284 
2600301001   00017010008400000            2653010001 0051    20221231 01001   0001701                         AGUILAR DEL RIO ALHAMA   AGUILAR DEL RIO ALHAMA   00084SORIA                    00000                                                              2653010001 0051 
2600301001   00017010008400000            2653020002 0032    20221231 01001   0001701                         AGUILAR DEL RIO ALHAMA   AGUILAR DEL RIO ALHAMA   00084SORIA                    00000                                                              2653020002 0032 
2600301001   00017010008500000            2653000000S0000S   20221231 01001   0001701                         AGUILAR DEL RIO ALHAMA   AGUILAR DEL RIO ALHAMA   00085DOCTOR CASTROVIEJO       00000                                                              2653000000S0000S
2600301001   00017010008500000            2653010001 0059    20221231 01001   0001701                         AGUILAR DEL RIO ALHAMA   AGUILAR DEL RIO ALHAMA   00085DOCTOR CASTROVIEJO       00000                                                              2653010001 0059 
2600301001   00017010008500000            2653020002 0036    20221231 01001   0001701                         AGUILAR DEL RIO ALHAMA   AGUILAR DEL RIO ALHAMA   00085DOCTOR CASTROVIEJO       00000                                                              2653020002 0036 
2600301001   00017010008700000            2653010001 0033    20221231 01001   0001701                         AGUILAR DEL RIO ALHAMA   AGUILAR DEL RIO ALHAMA   00087GONZALO DE BERCEO        00000                                                              2653010001 0033 
2600301001   00017010008700000            2653020006 0018    20221231 01001   0001701                         AGUILAR DEL RIO ALHAMA   AGUILAR DEL RIO ALHAMA   00087GONZALO DE BERCEO        00000                                                              2653020006 0018 
2600301001   00017010008800000            2653010001 0005    20221231 01001   0001701                         AGUILAR DEL RIO ALHAMA   AGUILAR DEL RIO ALHAMA   00088IGLESIA (LA)             00000                                                              2653010001 0005 
2600301001   00017010008800000            2653020004 0004    20221231 01001   0001701                         AGUILAR DEL RIO ALHAMA   AGUILAR DEL RIO ALHAMA   00088IGLESIA (LA)             00000                                                              2653020004 0004 
2600301001   00017010009000000            2653010001 0001    20221231 01001   0001701                         AGUILAR DEL RIO ALHAMA   AGUILAR DEL RIO ALHAMA   00090RIOJA (LA)               00000                                                              2653010001 0001 
2600301001   00017010009000000            2653020002 0018    20221231 01001   0001701                         AGUILAR DEL RIO ALHAMA   AGUILAR DEL RIO ALHAMA   00090RIOJA (LA)               00000                                                              2653020002 0018 
2600301001   00017010009100000            2653010003 0019    20221231 01001   0001701                         AGUILAR DEL RIO ALHAMA   AGUILAR DEL RIO ALHAMA   00091MAYOR                    00000                                                              2653010003 0019 
2600301001   00017010009100000            2653020002 0022    20221231 01001   0001701                         AGUILAR DEL RIO ALHAMA   AGUILAR DEL RIO ALHAMA   00091MAYOR                    00000                                                              2653020002 0022 
2600301001   00017010009200000            2653010001 0013    20221231 01001   0001701                         AGUILAR DEL RIO ALHAMA   AGUILAR DEL RIO ALHAMA   00092DOCTOR CASTROVIEJO       00000                                                              2653010001 0013 
2600301001   00017010009200000            2653020002 0014    20221231 01001   0001701                         AGUILAR DEL RIO ALHAMA   AGUILAR DEL RIO ALHAMA   00092DOCTOR CASTROVIEJO       00000                                                              2653020002 0014 
2600301001   00017010009300000            2653020004 0012    20221231 01001   0001701                         AGUILAR DEL RIO ALHAMA   AGUILAR DEL RIO ALHAMA   00093PUERTA PALILLOS          00000                                                              2653020004 0012 
2600301001   00017010009400000            2653010001 0013    20221231 01001   0001701                         AGUILAR DEL RIO ALHAMA   AGUILAR DEL RIO ALHAMA   00094VIRGEN DE LOS REMEDIOS   00000                                                              2653010001 0013 
2600301001   00017010009400000            2653020002 0002    20221231 01001   0001701                         AGUILAR DEL RIO ALHAMA   AGUILAR DEL RIO ALHAMA   00094VIRGEN DE LOS REMEDIOS   00000                                                              2653020002 0002 
2600301001   00017010009900000            2653010001 0001    20221231 01001   0001701                         AGUILAR DEL RIO ALHAMA   AGUILAR DEL RIO ALHAMA   00099PAJARES                  00000                                                              2653010001 0001 
2600301001   00017010010300000            2653010001 0009    20221231 01001   0001701                         AGUILAR DEL RIO ALHAMA   AGUILAR DEL RIO ALHAMA   00103CONTREBIA LEUKADE        00000                                                              2653010001 0009 
2600301001   00022010000400000            2653110009 0039    20221231 01001   0002201                         INESTRILLAS              INESTRILLAS              00004BARRANCO                 00000                                                              2653110009 0039 
2600301001   00022010000400000            2653120006 0034    20221231 01001   0002201                         INESTRILLAS              INESTRILLAS              00004BARRANCO                 00000                                                              2653120006 0034 
2600301001   00022010000900000            2653110001 0055    20221231 01001   0002201                         INESTRILLAS              INESTRILLAS              00009MOLINO                   00000                                                              2653110001 0055 
2600301001   00022010000900000            2653120006 0064    20221231 01001   0002201                         INESTRILLAS              INESTRILLAS              00009MOLINO                   00000                                                              2653120006 0064 
2600301001   00022010007800000            2653010009 0011    20221231 01001   0002201                         INESTRILLAS              INESTRILLAS              00078MEDIO (DEL)              00000                                                              2653010009 0011 
2600301001   00022010008600000            2653010001 0011    20221231 01001   0002201                         INESTRILLAS              INESTRILLAS              00086DON FELIPE ABAD          00000                                                              2653010001 0011 
2600301001   00022010008600000            2653020006 0008    20221231 01001   0002201                         INESTRILLAS              INESTRILLAS              00086DON FELIPE ABAD          00000                                                              2653020006 0008 
2600401001   00017010004300000            2613310001 0003    20221231 01001   0001701                         AJAMIL                   AJAMIL                   00043BARRIO BAJERO            00000                                                              2613310001 0003 
2600401001   00017010004300000            2613320002 0026    20221231 01001   0001701                         AJAMIL                   AJAMIL                   00043BARRIO BAJERO            00000                                                              2613320002 0026 
2600401001   00017010004600000            2613320002 0002    20221231 01001   0001701                         AJAMIL                   AJAMIL                   00046SAZ (EL)                 00000                                                              2613320002 0002 
2600401001   00017010004700000            2613310005 0005    20221231 01001   0001701                         AJAMIL                   AJAMIL                   00047HERAS PALACIOS           00000                                                              2613310005 0005 
2600401001   00017010004900000            2613310001 0003    20221231 01001   0001701                         AJAMIL                   AJAMIL                   00049PARRA (LA)               00000                                                              2613310001 0003 
2600401001   00017010004900000            2613320004 0008    20221231 01001   0001701                         AJAMIL                   AJAMIL                   00049PARRA (LA)               00000                                                              2613320004 0008 
2600401001   00017010005000000            2613310007 0007    20221231 01001   0001701                         AJAMIL                   AJAMIL                   00050TORRE (LA)               00000                                                              2613310007 0007 
2600401001   00017010005000000            2613320006 0008    20221231 01001   0001701                         AJAMIL                   AJAMIL                   00050TORRE (LA)               00000                                                              2613320006 0008 
2600401001   00017010005100000            2613310003 0037    20221231 01001   0001701                         AJAMIL                   AJAMIL                   00051REAL                     00000                                                              2613310003 0037 
2600401001   00017010005100000            2613320002 0028    20221231 01001   0001701                         AJAMIL                   AJAMIL                   00051REAL                     00000                                                              2613320002 0028 
2600401001   00017010005600000            2613310001 0001    20221231 01001   0001701                         AJAMIL                   AJAMIL                   00056EUSEBIO PABLO MUELA      00000                                                              2613310001 0001 
2600401001   00017010005600000            2613320002 0002    20221231 01001   0001701                         AJAMIL                   AJAMIL                   00056EUSEBIO PABLO MUELA      00000                                                              2613320002 0002 
2600401001   00022010004400000            2613310005 0005    20221231 01001   0002201                         LARRIBA                  LARRIBA                  00044BARRIO CANSOJIL          00000                                                              2613310005 0005 
2600401001   00022010004400000            2613320002 0008    20221231 01001   0002201                         LARRIBA                  LARRIBA                  00044BARRIO CANSOJIL          00000                                                              2613320002 0008 
2600401001   00022010004800000            2613310003 0003    20221231 01001   0002201                         LARRIBA                  LARRIBA                  00048DREIRA (LA)              00000                                                              2613310003 0003 
2600401001   00022010004800000            2613320006 0020    20221231 01001   0002201                         LARRIBA                  LARRIBA                  00048DREIRA (LA)              00000                                                              2613320006 0020 
2600401001   00022010005400000            2613310003 0007    20221231 01001   0002201                         LARRIBA                  LARRIBA                  00054ERAS DE ARRIBA           00000                                                              2613310003 0007 
2600401001   00038010004500000            2613320002 0004    20221231 01001   0003801                         TORREMU헤                TORREMU헤                00045EJIDO (EL)               00000                                                              2613320002 0004 
2600401001   00038010005300000            2613310005 0013    20221231 01001   0003801                         TORREMU헤                TORREMU헤                00053MAYOR TORREMU헤          00000                                                              2613310005 0013 
2600401001   00038010005300000            2613320008 0032    20221231 01001   0003801                         TORREMU헤                TORREMU헤                00053MAYOR TORREMU헤          00000                                                              2613320008 0032 
2600401001   00038010005500000            2613320014 0014    20221231 01001   0003801                         TORREMU헤                TORREMU헤                00055ERAS                     00000                                                              2613320014 0014 
2600501001   00017010000200000            2612010001 0015    20221231 01001   0001701                         ALBELDA DE IREGUA        ALBELDA DE IREGUA        00002ALEJANDRA JIMENEZ        00000                                                              2612010001 0015 
2600501001   00017010000200000            2612020002 0020    20221231 01001   0001701                         ALBELDA DE IREGUA        ALBELDA DE IREGUA        00002ALEJANDRA JIMENEZ        00000                                                              2612020002 0020 
2600501001   00017010000300000            2612010001 0013    20221231 01001   0001701                         ALBELDA DE IREGUA        ALBELDA DE IREGUA        00003ALTA                     00000                                                              2612010001 0013 
2600501001   00017010000300000            2612020002 0056    20221231 01001   0001701                         ALBELDA DE IREGUA        ALBELDA DE IREGUA        00003ALTA                     00000                                                              2612020002 0056 
2600501001   00017010000500000            2612010003 0003    20221231 01001   0001701                         ALBELDA DE IREGUA        ALBELDA DE IREGUA        00005ALTA                     00000                                                              2612010003 0003 
2600501001   00017010000500000            2612020002 0006    20221231 01001   0001701                         ALBELDA DE IREGUA        ALBELDA DE IREGUA        00005ALTA                     00000                                                              2612020002 0006 
2600501001   00017010000600000            2612010001 0017    20221231 01001   0001701                         ALBELDA DE IREGUA        ALBELDA DE IREGUA        00006ARRABAL                  00000                                                              2612010001 0017 
2600501001   00017010000600000            2612020002 0010    20221231 01001   0001701                         ALBELDA DE IREGUA        ALBELDA DE IREGUA        00006ARRABAL                  00000                                                              2612020002 0010 
2600502001   00017010000900000            2612010001 0025    20221231 02001   0001701                         ALBELDA DE IREGUA        ALBELDA DE IREGUA        00009BARRANCO                 00000                                                              2612010001 0025 
2600501001   00017010000900000            2612020002 0006    20221231 01001   0001701                         ALBELDA DE IREGUA        ALBELDA DE IREGUA        00009BARRANCO                 00000                                                              2612020002 0006 
2600502001   00017010000900000            2612020008 0020    20221231 02001   0001701                         ALBELDA DE IREGUA        ALBELDA DE IREGUA        00009BARRANCO                 00000                                                              2612020008 0020 
2600501001   00017010001100000            2612010001 0011    20221231 01001   0001701                         ALBELDA DE IREGUA        ALBELDA DE IREGUA        00011MAYOR                    00000                                                              2612010001 0011 
2600501001   00017010001100000            2612020002 0012    20221231 01001   0001701                         ALBELDA DE IREGUA        ALBELDA DE IREGUA        00011MAYOR                    00000                                                              2612020002 0012 
2600501001   00017010001500000            2612010011 0011    20221231 01001   0001701                         ALBELDA DE IREGUA        ALBELDA DE IREGUA        00015CLAVIJO                  00000                                                              2612010011 0011 
2600501001   00017010001500000            2612020006 0018    20221231 01001   0001701                         ALBELDA DE IREGUA        ALBELDA DE IREGUA        00015CLAVIJO                  00000                                                              2612020006 0018 
2600501001   00017010001800000            2612010001 0079    20221231 01001   0001701                         ALBELDA DE IREGUA        ALBELDA DE IREGUA        00018ERAS                     00000                                                              2612010001 0079 
2600501001   00017010001800000            2612020002 0078A   20221231 01001   0001701                         ALBELDA DE IREGUA        ALBELDA DE IREGUA        00018ERAS                     00000                                                              2612020002 0078A
2600501001   00017010001900000            2612010001 0001    20221231 01001   0001701                         ALBELDA DE IREGUA        ALBELDA DE IREGUA        00019ERAS                     00000                                                              2612010001 0001 
2600501001   00017010001900000            2612020004 0004    20221231 01001   0001701                         ALBELDA DE IREGUA        ALBELDA DE IREGUA        00019ERAS                     00000                                                              2612020004 0004 
2600501001   00017010002200000            2612010003 0011    20221231 01001   0001701                         ALBELDA DE IREGUA        ALBELDA DE IREGUA        00022ERAS                     00000                                                              2612010003 0011 
2600501001   00017010002200000            2612020002 0026    20221231 01001   0001701                         ALBELDA DE IREGUA        ALBELDA DE IREGUA        00022ERAS                     00000                                                              2612020002 0026 
2600502001   00017010002300000            2612010001 0009    20221231 02001   0001701                         ALBELDA DE IREGUA        ALBELDA DE IREGUA        00023ESCUELAS                 00000                                                              2612010001 0009 
2600501001   00017010002300000            2612020002 0012    20221231 01001   0001701                         ALBELDA DE IREGUA        ALBELDA DE IREGUA        00023ESCUELAS                 00000                                                              2612020002 0012 
2600502001   00017010002300000            2612020014 0014    20221231 02001   0001701                         ALBELDA DE IREGUA        ALBELDA DE IREGUA        00023ESCUELAS                 00000                                                              2612020014 0014 
2600501001   00017010002400000            2612010001 0009    20221231 01001   0001701                         ALBELDA DE IREGUA        ALBELDA DE IREGUA        00024ESCUELAS PIAS            00000                                                              2612010001 0009 
2600502001   00017010002400000            2612010013 0033    20221231 02001   0001701                         ALBELDA DE IREGUA        ALBELDA DE IREGUA        00024ESCUELAS PIAS            00000                                                              2612010013 0033 
2600501001   00017010002400000            2612020002 0024    20221231 01001   0001701                         ALBELDA DE IREGUA        ALBELDA DE IREGUA        00024ESCUELAS PIAS            00000                                                              2612020002 0024 
2600502001   00017010002500000            2612010001 0015    20221231 02001   0001701                         ALBELDA DE IREGUA        ALBELDA DE IREGUA        00025ESPA헤                   00000                                                              2612010001 0015 
2600502001   00017010002500000            2612020002 0016    20221231 02001   0001701                         ALBELDA DE IREGUA        ALBELDA DE IREGUA        00025ESPA헤                   00000                                                              2612020002 0016 
2600501001   00017010002600000            2612010001 0011    20221231 01001   0001701                         ALBELDA DE IREGUA        ALBELDA DE IREGUA        00026FUENTE (LA)              00000                                                              2612010001 0011 
2600502001   00017010002600000            2612020002 0030    20221231 02001   0001701                         ALBELDA DE IREGUA        ALBELDA DE IREGUA        00026FUENTE (LA)              00000                                                              2612020002 0030 
2600502001   00017010002800000            2612020002 0030    20221231 02001   0001701                         ALBELDA DE IREGUA        ALBELDA DE IREGUA        00028FUENTE (LA)              00000                                                              2612020002 0030 
2600502001   00017010002900000            2612010001 0003    20221231 02001   0001701                         ALBELDA DE IREGUA        ALBELDA DE IREGUA        00029LA CARRERA               00000                                                              2612010001 0003 
2600501001   00017010002900000            2612010005 0021    20221231 01001   0001701                         ALBELDA DE IREGUA        ALBELDA DE IREGUA        00029LA CARRERA               00000                                                              2612010005 0021 
2600501001   00017010002900000            2612020002 0024    20221231 01001   0001701                         ALBELDA DE IREGUA        ALBELDA DE IREGUA        00029LA CARRERA               00000                                                              2612020002 0024 
2600501001   00017010003000000            2612010001 0005    20221231 01001   0001701                         ALBELDA DE IREGUA        ALBELDA DE IREGUA        00030HERMANOS GONZALEZ GALLARZ00000                                                              2612010001 0005 
2600501001   00017010003000000            2612020004 0018    20221231 01001   0001701                         ALBELDA DE IREGUA        ALBELDA DE IREGUA        00030HERMANOS GONZALEZ GALLARZ00000                                                              2612020004 0018 
2600502001   00017010003200000            2612010001 0011    20221231 02001   0001701                         ALBELDA DE IREGUA        ALBELDA DE IREGUA        00032JAVIER CAMARA            00000                                                              2612010001 0011 
2600502001   00017010003200000            2612020002 0010    20221231 02001   0001701                         ALBELDA DE IREGUA        ALBELDA DE IREGUA        00032JAVIER CAMARA            00000                                                              2612020002 0010 
2600501001   00017010003300000            2612000000S0000S   20221231 01001   0001701                         ALBELDA DE IREGUA        ALBELDA DE IREGUA        00033HOSPITAL                 00000                                                              2612000000S0000S
2600501001   00017010003300000            2612010001 0017    20221231 01001   0001701                         ALBELDA DE IREGUA        ALBELDA DE IREGUA        00033HOSPITAL                 00000                                                              2612010001 0017 
2600501001   00017010003300000            2612020004 0014    20221231 01001   0001701                         ALBELDA DE IREGUA        ALBELDA DE IREGUA        00033HOSPITAL                 00000                                                              2612020004 0014 
2600501001   00017010003500000            2612010001 0015    20221231 01001   0001701                         ALBELDA DE IREGUA        ALBELDA DE IREGUA        00035LIBERTAD                 00000                                                              2612010001 0015 
2600501001   00017010003500000            2612020002 0016    20221231 01001   0001701                         ALBELDA DE IREGUA        ALBELDA DE IREGUA        00035LIBERTAD                 00000                                                              2612020002 0016 
2600501001   00017010003600000            2612010003 0009    20221231 01001   0001701                         ALBELDA DE IREGUA        ALBELDA DE IREGUA        00036LAVADERO                 00000                                                              2612010003 0009 
2600501001   00017010003600000            2612020004 0018    20221231 01001   0001701                         ALBELDA DE IREGUA        ALBELDA DE IREGUA        00036LAVADERO                 00000                                                              2612020004 0018 
2600501001   00017010003700000            2612010005 0007    20221231 01001   0001701                         ALBELDA DE IREGUA        ALBELDA DE IREGUA        00037MORTERO                  00000                                                              2612010005 0007 
2600501001   00017010003700000            2612020002 0004    20221231 01001   0001701                         ALBELDA DE IREGUA        ALBELDA DE IREGUA        00037MORTERO                  00000                                                              2612020002 0004 
2600501001   00017010003800000            2612010001 0007    20221231 01001   0001701                         ALBELDA DE IREGUA        ALBELDA DE IREGUA        00038PEDRO JOSE TREVIJANO     00000                                                              2612010001 0007 
2600501001   00017010003800000            2612020002 0018    20221231 01001   0001701                         ALBELDA DE IREGUA        ALBELDA DE IREGUA        00038PEDRO JOSE TREVIJANO     00000                                                              2612020002 0018 
2600502001   00017010003900000            2612010001 0027    20221231 02001   0001701                         ALBELDA DE IREGUA        ALBELDA DE IREGUA        00039PICADAS A (LAS)          00000                                                              2612010001 0027 
2600502001   00017010003900000            2612020006 0028    20221231 02001   0001701                         ALBELDA DE IREGUA        ALBELDA DE IREGUA        00039PICADAS A (LAS)          00000                                                              2612020006 0028 
2600502001   00017010004000000            2612010001 0025    20221231 02001   0001701                         ALBELDA DE IREGUA        ALBELDA DE IREGUA        00040PICADAS B (LAS)          00000                                                              2612010001 0025 
2600502001   00017010004000000            2612020002 0028    20221231 02001   0001701                         ALBELDA DE IREGUA        ALBELDA DE IREGUA        00040PICADAS B (LAS)          00000                                                              2612020002 0028 
2600501001   00017010004200000            2612010003 0031    20221231 01001   0001701                         ALBELDA DE IREGUA        ALBELDA DE IREGUA        00042POSADA                   00000                                                              2612010003 0031 
2600501001   00017010004200000            2612020002 0004    20221231 01001   0001701                         ALBELDA DE IREGUA        ALBELDA DE IREGUA        00042POSADA                   00000                                                              2612020002 0004 
2600501001   00017010004300000            2612010003 0031    20221231 01001   0001701                         ALBELDA DE IREGUA        ALBELDA DE IREGUA        00043POSADA (LA)              00000                                                              2612010003 0031 
2600501001   00017010004300000            2612020004 0006    20221231 01001   0001701                         ALBELDA DE IREGUA        ALBELDA DE IREGUA        00043POSADA (LA)              00000                                                              2612020004 0006 
2600501001   00017010004400000            2612010001 0019    20221231 01001   0001701                         ALBELDA DE IREGUA        ALBELDA DE IREGUA        00044POSITO                   00000                                                              2612010001 0019 
2600501001   00017010004400000            2612020002 0028    20221231 01001   0001701                         ALBELDA DE IREGUA        ALBELDA DE IREGUA        00044POSITO                   00000                                                              2612020002 0028 
2600501001   00017010004700000            2612010001 0003    20221231 01001   0001701                         ALBELDA DE IREGUA        ALBELDA DE IREGUA        00047RIO MIGUEL               00000                                                              2612010001 0003 
2600502001   00017010004700000            2612010007 0031    20221231 02001   0001701                         ALBELDA DE IREGUA        ALBELDA DE IREGUA        00047RIO MIGUEL               00000                                                              2612010007 0031 
2600502001   00017010004700000            2612020002 0032    20221231 02001   0001701                         ALBELDA DE IREGUA        ALBELDA DE IREGUA        00047RIO MIGUEL               00000                                                              2612020002 0032 
2600501001   00017010004800000            2612010001 0007    20221231 01001   0001701                         ALBELDA DE IREGUA        ALBELDA DE IREGUA        00048ROSAS                    00000                                                              2612010001 0007 
2600501001   00017010004800000            2612020002 0010    20221231 01001   0001701                         ALBELDA DE IREGUA        ALBELDA DE IREGUA        00048ROSAS                    00000                                                              2612020002 0010 
2600501001   00017010004900000            2612010009 0047    20221231 01001   0001701                         ALBELDA DE IREGUA        ALBELDA DE IREGUA        00049SAN JOSE                 00000                                                              2612010009 0047 
2600502001   00017010004900000            2612020002 0032    20221231 02001   0001701                         ALBELDA DE IREGUA        ALBELDA DE IREGUA        00049SAN JOSE                 00000                                                              2612020002 0032 
2600501001   00017010005400000            2612010003 0023    20221231 01001   0001701                         ALBELDA DE IREGUA        ALBELDA DE IREGUA        00054SANTA ISABEL             00000                                                              2612010003 0023 
2600501001   00017010005400000            2612020002 0028    20221231 01001   0001701                         ALBELDA DE IREGUA        ALBELDA DE IREGUA        00054SANTA ISABEL             00000                                                              2612020002 0028 
2600502001   00017010005400000            2612020032 0034    20221231 02001   0001701                         ALBELDA DE IREGUA        ALBELDA DE IREGUA        00054SANTA ISABEL             00000                                                              2612020032 0034 
2600501001   00017010005700000            2612010001 0009    20221231 01001   0001701                         ALBELDA DE IREGUA        ALBELDA DE IREGUA        00057TRAMUZ (LA)              00000                                                              2612010001 0009 
2600501001   00017010005700000            2612020002 0012    20221231 01001   0001701                         ALBELDA DE IREGUA        ALBELDA DE IREGUA        00057TRAMUZ (LA)              00000                                                              2612020002 0012 
2600501001   00017010008900000            2612010001 0021    20221231 01001   0001701                         ALBELDA DE IREGUA        ALBELDA DE IREGUA        00089SAN PELAYO               00000                                                              2612010001 0021 
2600501001   00017010008900000            2612020002 0020    20221231 01001   0001701                         ALBELDA DE IREGUA        ALBELDA DE IREGUA        00089SAN PELAYO               00000                                                              2612020002 0020 
2600501001   00017010009000000            2612010001 0011    20221231 01001   0001701                         ALBELDA DE IREGUA        ALBELDA DE IREGUA        00090SAN PELAYO               00000                                                              2612010001 0011 
2600501001   00017010009000000            2612020004 0018B   20221231 01001   0001701                         ALBELDA DE IREGUA        ALBELDA DE IREGUA        00090SAN PELAYO               00000                                                              2612020004 0018B
2600502001   00017010014000000            2612010001 0011    20221231 02001   0001701                         ALBELDA DE IREGUA        ALBELDA DE IREGUA        00140SAN JOSE                 00000                                                              2612010001 0011 
2600502001   00017010014000000            2612020002 0032    20221231 02001   0001701                         ALBELDA DE IREGUA        ALBELDA DE IREGUA        00140SAN JOSE                 00000                                                              2612020002 0032 
2600502001   00017010016600000            2612010003 0019    20221231 02001   0001701                         ALBELDA DE IREGUA        ALBELDA DE IREGUA        00166CONSTITUCION             00000                                                              2612010003 0019 
2600502001   00017010016600000            2612020004 0012    20221231 02001   0001701                         ALBELDA DE IREGUA        ALBELDA DE IREGUA        00166CONSTITUCION             00000                                                              2612020004 0012 
2600502001   00017010017900000            2612010007 0015    20221231 02001   0001701                         ALBELDA DE IREGUA        ALBELDA DE IREGUA        00179GOMESANO                 00000                                                              2612010007 0015 
2600501001   00017010017900000            2612020002 0012    20221231 01001   0001701                         ALBELDA DE IREGUA        ALBELDA DE IREGUA        00179GOMESANO                 00000                                                              2612020002 0012 
2600502001   00017010017900000            2612020014 0026    20221231 02001   0001701                         ALBELDA DE IREGUA        ALBELDA DE IREGUA        00179GOMESANO                 00000                                                              2612020014 0026 
2600501001   00017010018100000            2612010003 0009    20221231 01001   0001701                         ALBELDA DE IREGUA        ALBELDA DE IREGUA        00181GONZALO DE BERCEO        00000                                                              2612010003 0009 
2600501001   00017010018100000            2612020002 0010    20221231 01001   0001701                         ALBELDA DE IREGUA        ALBELDA DE IREGUA        00181GONZALO DE BERCEO        00000                                                              2612020002 0010 
2600502001   00017010018200000            2612010003 0013    20221231 02001   0001701                         ALBELDA DE IREGUA        ALBELDA DE IREGUA        00182MONJE VIGILA             00000                                                              2612010003 0013 
2600502001   00017010018200000            2612020002 0018    20221231 02001   0001701                         ALBELDA DE IREGUA        ALBELDA DE IREGUA        00182MONJE VIGILA             00000                                                              2612020002 0018 
2600501001   00017010019000000            2612010001 0009    20221231 01001   0001701                         ALBELDA DE IREGUA        ALBELDA DE IREGUA        00190MAYOR                    00000                                                              2612010001 0009 
2600501001   00017010019000000            2612020002 0006    20221231 01001   0001701                         ALBELDA DE IREGUA        ALBELDA DE IREGUA        00190MAYOR                    00000                                                              2612020002 0006 
2600502001   00017010021800000            2612010001 0013    20221231 02001   0001701                         ALBELDA DE IREGUA        ALBELDA DE IREGUA        00218DONANTES DE SANGRE       00000                                                              2612010001 0013 
2600502001   00017010021800000            2612020004 0024    20221231 02001   0001701                         ALBELDA DE IREGUA        ALBELDA DE IREGUA        00218DONANTES DE SANGRE       00000                                                              2612020004 0024 
2600502001   00017010022100000            2612010001 0011    20221231 02001   0001701                         ALBELDA DE IREGUA        ALBELDA DE IREGUA        00221SANTIAGO ALDAZ           00000                                                              2612010001 0011 
2600502001   00017010022100000            2612020008 0008    20221231 02001   0001701                         ALBELDA DE IREGUA        ALBELDA DE IREGUA        00221SANTIAGO ALDAZ           00000                                                              2612020008 0008 
2600501001   00017010022200000            2612000000S0000S   20221231 01001   0001701                         ALBELDA DE IREGUA        ALBELDA DE IREGUA        00222ALBERITE                 00000                                                              2612000000S0000S
2600501001   00017010022200000            2612010003 0413    20221231 01001   0001701                         ALBELDA DE IREGUA        ALBELDA DE IREGUA        00222ALBERITE                 00000                                                              2612010003 0413 
2600501001   00017010022200000            2612020006 6400    20221231 01001   0001701                         ALBELDA DE IREGUA        ALBELDA DE IREGUA        00222ALBERITE                 00000                                                              2612020006 6400 
2600501001   00017010022400000            2612010001 0013    20221231 01001   0001701                         ALBELDA DE IREGUA        ALBELDA DE IREGUA        00224PARRALES (LOS)           00000                                                              2612010001 0013 
2600501001   00017010022400000            2612020002 0008    20221231 01001   0001701                         ALBELDA DE IREGUA        ALBELDA DE IREGUA        00224PARRALES (LOS)           00000                                                              2612020002 0008 
2600501001   00017010022700000            2612010001 0001    20221231 01001   0001701                         ALBELDA DE IREGUA        ALBELDA DE IREGUA        00227LABRADORES               00000                                                              2612010001 0001 
2600501001   00017010022900000            2612010003 0007    20221231 01001   0001701                         ALBELDA DE IREGUA        ALBELDA DE IREGUA        00229PAZ (LA)                 00000                                                              2612010003 0007 
2600501001   00017010023700000            2612010001 0015    20221231 01001   0001701                         ALBELDA DE IREGUA        ALBELDA DE IREGUA        00237RIOJA LA                 00000                                                              2612010001 0015 
2600502001   00017010023700000            2612010017 0029    20221231 02001   0001701                         ALBELDA DE IREGUA        ALBELDA DE IREGUA        00237RIOJA LA                 00000                                                              2612010017 0029 
2600501001   00017010023700000            2612020002 0010    20221231 01001   0001701                         ALBELDA DE IREGUA        ALBELDA DE IREGUA        00237RIOJA LA                 00000                                                              2612020002 0010 
2600502001   00017010023700000            2612020012 0320    20221231 02001   0001701                         ALBELDA DE IREGUA        ALBELDA DE IREGUA        00237RIOJA LA                 00000                                                              2612020012 0320 
2600501001   00017010024500000            2612020002 0002    20221231 01001   0001701                         ALBELDA DE IREGUA        ALBELDA DE IREGUA        00245MONASTERIO DE YUSO       00000                                                              2612020002 0002 
2600502001   00017010025000000            2612010001 0019    20221231 02001   0001701                         ALBELDA DE IREGUA        ALBELDA DE IREGUA        00250SAN PRUDENCIO            00000                                                              2612010001 0019 
2600502001   00017010025000000            2612020008 0010    20221231 02001   0001701                         ALBELDA DE IREGUA        ALBELDA DE IREGUA        00250SAN PRUDENCIO            00000                                                              2612020008 0010 
2600501001   00017010025100000            2612010001 0013    20221231 01001   0001701                         ALBELDA DE IREGUA        ALBELDA DE IREGUA        00251SAN MARCOS               00000                                                              2612010001 0013 
2600501001   00017010025100000            2612020004 0022    20221231 01001   0001701                         ALBELDA DE IREGUA        ALBELDA DE IREGUA        00251SAN MARCOS               00000                                                              2612020004 0022 
2600501001   00017010025300000            2612010001 0023    20221231 01001   0001701                         ALBELDA DE IREGUA        ALBELDA DE IREGUA        00253CODICE ALBELDENSE        00000                                                              2612010001 0023 
2600501001   00017010025300000            2612020002 0014    20221231 01001   0001701                         ALBELDA DE IREGUA        ALBELDA DE IREGUA        00253CODICE ALBELDENSE        00000                                                              2612020002 0014 
2600501001   00017010025400000            2612010003 0041    20221231 01001   0001701                         ALBELDA DE IREGUA        ALBELDA DE IREGUA        00254LEZAY                    00000                                                              2612010003 0041 
2600501001   00017010025400000            2612020002 0016    20221231 01001   0001701                         ALBELDA DE IREGUA        ALBELDA DE IREGUA        00254LEZAY                    00000                                                              2612020002 0016 
2600501001   00017010025900000            2612010001 0027    20221231 01001   0001701                         ALBELDA DE IREGUA        ALBELDA DE IREGUA        00259BODEGAS                  00000                                                              2612010001 0027 
2600501001   00017010025900000            2612020030 0608    20221231 01001   0001701                         ALBELDA DE IREGUA        ALBELDA DE IREGUA        00259BODEGAS                  00000                                                              2612020030 0608 
2600501001   00017010026100000            2612020002 0006    20221231 01001   0001701                         ALBELDA DE IREGUA        ALBELDA DE IREGUA        00261MONASTERIO DE SUSO       00000                                                              2612020002 0006 
2600502001   00017010060100000            2612010001 0009    20221231 02001   0001701                         ALBELDA DE IREGUA        ALBELDA DE IREGUA        00601MOLINO                   00000                                                              2612010001 0009 
2600502001   00017010060100000            2612020004 0010    20221231 02001   0001701                         ALBELDA DE IREGUA        ALBELDA DE IREGUA        00601MOLINO                   00000                                                              2612020004 0010 
2600502001   00017010060200000            2612000000S0000S   20221231 02001   0001701                         ALBELDA DE IREGUA        ALBELDA DE IREGUA        00602EL ENCINO                00000                                                              2612000000S0000S
2600502001   00017010060200000            2612010007 9999    20221231 02001   0001701                         ALBELDA DE IREGUA        ALBELDA DE IREGUA        00602EL ENCINO                00000                                                              2612010007 9999 
2600502001   00017010060200000            2612020008 0188    20221231 02001   0001701                         ALBELDA DE IREGUA        ALBELDA DE IREGUA        00602EL ENCINO                00000                                                              2612020008 0188 
2600502001   00017010060300000            2612010001 0003    20221231 02001   0001701                         ALBELDA DE IREGUA        ALBELDA DE IREGUA        00603LA CHOPERA               00000                                                              2612010001 0003 
2600502001   00017010060300000            2612020002 0002    20221231 02001   0001701                         ALBELDA DE IREGUA        ALBELDA DE IREGUA        00603LA CHOPERA               00000                                                              2612020002 0002 
2600502001   00017010060600000            2612020002 0006    20221231 02001   0001701                         ALBELDA DE IREGUA        ALBELDA DE IREGUA        00606LOS COMEDIANTES          00000                                                              2612020002 0006 
2600502001   00017010060700000            2612010001 0001    20221231 02001   0001701                         ALBELDA DE IREGUA        ALBELDA DE IREGUA        00607RIO TURBAN               00000                                                              2612010001 0001 
2600502001   00017010060700000            2612020002 0002    20221231 02001   0001701                         ALBELDA DE IREGUA        ALBELDA DE IREGUA        00607RIO TURBAN               00000                                                              2612020002 0002 
2600502001   00017010060900000            2612010019 0023    20221231 02001   0001701                         ALBELDA DE IREGUA        ALBELDA DE IREGUA        00609EL CALVARIO              00000                                                              2612010019 0023 
2600502001   00017010060900000            2612020020 0020    20221231 02001   0001701                         ALBELDA DE IREGUA        ALBELDA DE IREGUA        00609EL CALVARIO              00000                                                              2612020020 0020 
2600502001   00017010061000000            2612020004 0006    20221231 02001   0001701                         ALBELDA DE IREGUA        ALBELDA DE IREGUA        00610VADALAGUENTE             00000                                                              2612020004 0006 
2600502001   00017010061100000            2612010019 0023    20221231 02001   0001701                         ALBELDA DE IREGUA        ALBELDA DE IREGUA        00611RIO IREGUA               00000                                                              2612010019 0023 
2600502001   00017010061200000            2612020004 0010    20221231 02001   0001701                         ALBELDA DE IREGUA        ALBELDA DE IREGUA        00612LAS HUERTAS              00000                                                              2612020004 0010 
2600502001   00017010063100000            2612020012 0012    20221231 02001   0001701                         ALBELDA DE IREGUA        ALBELDA DE IREGUA        00631CIG㏊LA (LA)             00000                                                              2612020012 0012 
2600501001   00017010063500000            2612020010 0010    20221231 01001   0001701                         ALBELDA DE IREGUA        ALBELDA DE IREGUA        00635VALLE DEL CIDACOS        00000                                                              2612020010 0010 
2600501001   00017010063800000            2612020006 0006    20221231 01001   0001701                         ALBELDA DE IREGUA        ALBELDA DE IREGUA        00638VALLE DEL NAJERILLA      00000                                                              2612020006 0006 
2600501001   00017990001200000            2612010003 0019    20221231 01001   0001799                         ALBELDA DE IREGUA        *DISEMINADO*             00012AGUILANDO EL             00000                                                              2612010003 0019 
2600501001   00017990001200000            2612020012 0024    20221231 01001   0001799                         ALBELDA DE IREGUA        *DISEMINADO*             00012AGUILANDO EL             00000                                                              2612020012 0024 
