2000101001   00017010111000000            2026910001 0033    20221231 01001   0001701                         ABALTZISKETA             ABALTZISKETA             01110ABALTZISKETA HIRIGUN     00000                                                              2026910001 0033 
2000101001   00017010111000000            2026920004 0030    20221231 01001   0001701                         ABALTZISKETA             ABALTZISKETA             01110ABALTZISKETA HIRIGUN     00000                                                              2026920004 0030 
2000101001   00017990600100000            2026910001 0005    20221231 01001   0001799                         ABALTZISKETA             *DISEMINADO*             06001ARANGUREN                00000                                                              2026910001 0005 
2000101001   00017990600200000            2026910001 0009    20221231 01001   0001799                         ABALTZISKETA             *DISEMINADO*             06002PILDAIN-GASASTEGI        00000                                                              2026910001 0009 
2000101001   00017990600200000            2026920002 0010    20221231 01001   0001799                         ABALTZISKETA             *DISEMINADO*             06002PILDAIN-GASASTEGI        00000                                                              2026920002 0010 
2000101001   00017990600300000            2026910001 0009    20221231 01001   0001799                         ABALTZISKETA             *DISEMINADO*             06003OLANO                    00000                                                              2026910001 0009 
2000101001   00017990600300000            2026920002 0008    20221231 01001   0001799                         ABALTZISKETA             *DISEMINADO*             06003OLANO                    00000                                                              2026920002 0008 
2000101001   00017990600400000            2026910001 0005    20221231 01001   0001799                         ABALTZISKETA             *DISEMINADO*             06004OTAMENDI                 00000                                                              2026910001 0005 
2000101001   00017990600400000            2026920002 0006    20221231 01001   0001799                         ABALTZISKETA             *DISEMINADO*             06004OTAMENDI                 00000                                                              2026920002 0006 
2000101001   00017990600500000            2026910001 0005    20221231 01001   0001799                         ABALTZISKETA             *DISEMINADO*             06005KAREAGA                  00000                                                              2026910001 0005 
2000101001   00017990600500000            2026920002 0004    20221231 01001   0001799                         ABALTZISKETA             *DISEMINADO*             06005KAREAGA                  00000                                                              2026920002 0004 
2000101001   00017990600600000            2026910001 0011    20221231 01001   0001799                         ABALTZISKETA             *DISEMINADO*             06006IPINTZA-GARMENDI         00000                                                              2026910001 0011 
2000101001   00017990600600000            2026920002 0012    20221231 01001   0001799                         ABALTZISKETA             *DISEMINADO*             06006IPINTZA-GARMENDI         00000                                                              2026920002 0012 
2000101001   00017990600700000            2026910001 0009    20221231 01001   0001799                         ABALTZISKETA             *DISEMINADO*             06007SASIAIN-ARANDI           00000                                                              2026910001 0009 
2000101001   00017990600700000            2026920002 0008    20221231 01001   0001799                         ABALTZISKETA             *DISEMINADO*             06007SASIAIN-ARANDI           00000                                                              2026920002 0008 
2000101001   00017990600800000            2026910001 0009    20221231 01001   0001799                         ABALTZISKETA             *DISEMINADO*             06008AZALDEGI-ESTANGA         00000                                                              2026910001 0009 
2000101001   00017990600800000            2026920004 0008    20221231 01001   0001799                         ABALTZISKETA             *DISEMINADO*             06008AZALDEGI-ESTANGA         00000                                                              2026920004 0008 
2000101001   00017990600900000            2026910005 0009    20221231 01001   0001799                         ABALTZISKETA             *DISEMINADO*             06009IRIONDO-ALTUN            00000                                                              2026910005 0009 
2000101001   00017990600900000            2026920002 0010    20221231 01001   0001799                         ABALTZISKETA             *DISEMINADO*             06009IRIONDO-ALTUN            00000                                                              2026920002 0010 
2000101001   00017990601000000            2026910001 0007    20221231 01001   0001799                         ABALTZISKETA             *DISEMINADO*             06010ITRUN-LIZARDI            00000                                                              2026910001 0007 
2000101001   00017990601000000            2026920002 0008    20221231 01001   0001799                         ABALTZISKETA             *DISEMINADO*             06010ITRUN-LIZARDI            00000                                                              2026920002 0008 
2000101001   00017990601100000            2026910001 0015    20221231 01001   0001799                         ABALTZISKETA             *DISEMINADO*             06011LARRAITZ                 00000                                                              2026910001 0015 
2000101001   00017990601100000            2026920002 0016    20221231 01001   0001799                         ABALTZISKETA             *DISEMINADO*             06011LARRAITZ                 00000                                                              2026920002 0016 
2000201001   00017010120000000            2015010001 0011    20221231 01001   0001701                         ADUNA                    ADUNA                    01200HERRIKO PLAZA            00000                                                              2015010001 0011 
2000201001   00017010120000000            2015020002 0010    20221231 01001   0001701                         ADUNA                    ADUNA                    01200HERRIKO PLAZA            00000                                                              2015020002 0010 
2000201001   00017010120100000            2015010001 0005    20221231 01001   0001701                         ADUNA                    ADUNA                    01201ELORDI PLAZA             00000                                                              2015010001 0005 
2000201001   00017010120100000            2015020002 0004    20221231 01001   0001701                         ADUNA                    ADUNA                    01201ELORDI PLAZA             00000                                                              2015020002 0004 
2000201001   00017010120200000            2015010001 0007    20221231 01001   0001701                         ADUNA                    ADUNA                    01202BELKOAIN BIDEA           00000                                                              2015010001 0007 
2000201001   00017010120200000            2015020004 0006    20221231 01001   0001701                         ADUNA                    ADUNA                    01202BELKOAIN BIDEA           00000                                                              2015020004 0006 
2000201001   00017010120300000            2015010001 0005    20221231 01001   0001701                         ADUNA                    ADUNA                    01203ELUTSE KALEA             00000                                                              2015010001 0005 
2000201001   00017010120300000            2015020002 0004    20221231 01001   0001701                         ADUNA                    ADUNA                    01203ELUTSE KALEA             00000                                                              2015020002 0004 
2000201001   00017010120500000            2015010001 0001    20221231 01001   0001701                         ADUNA                    ADUNA                    01205ELBARRENA                00000                                                              2015010001 0001 
2000201001   00017010121400000            2015010001 0005    20221231 01001   0001701                         ADUNA                    ADUNA                    01214AMALKOR                  00000                                                              2015010001 0005 
2000201001   00017010121400000            2015020010 0022    20221231 01001   0001701                         ADUNA                    ADUNA                    01214AMALKOR                  00000                                                              2015020010 0022 
2000201001   00017010121500000            2015010003 0003    20221231 01001   0001701                         ADUNA                    ADUNA                    01215ALTAMIRA                 00000                                                              2015010003 0003 
2000201001   00017010121500000            2015020002 0002    20221231 01001   0001701                         ADUNA                    ADUNA                    01215ALTAMIRA                 00000                                                              2015020002 0002 
2000201001   00017010121600000            2015010001 0003    20221231 01001   0001701                         ADUNA                    ADUNA                    01216ALLAPUR                  00000                                                              2015010001 0003 
2000201001   00017010121600000            2015020004 0004    20221231 01001   0001701                         ADUNA                    ADUNA                    01216ALLAPUR                  00000                                                              2015020004 0004 
2000201001   00017990120400000            2015010001 0021    20221231 01001   0001799                         ADUNA                    *DISEMINADO*             01204GOIBURU                  00000                                                              2015010001 0021 
2000201001   00017990120400000            2015020006 0020    20221231 01001   0001799                         ADUNA                    *DISEMINADO*             01204GOIBURU                  00000                                                              2015020006 0020 
2000201001   00017990120500000            2015010003 0029    20221231 01001   0001799                         ADUNA                    *DISEMINADO*             01205ELBARRENA                00000                                                              2015010003 0029 
2000201001   00017990120500000            2015020004 0030    20221231 01001   0001799                         ADUNA                    *DISEMINADO*             01205ELBARRENA                00000                                                              2015020004 0030 
2000201001   00017990120600000            2015010001 0007    20221231 01001   0001799                         ADUNA                    *DISEMINADO*             01206LARDI AUZOA              00000                                                              2015010001 0007 
2000201001   00017990120600000            2015020002 0008    20221231 01001   0001799                         ADUNA                    *DISEMINADO*             01206LARDI AUZOA              00000                                                              2015020002 0008 
2000201001   00017990121300000            2015010011 0011    20221231 01001   0001799                         ADUNA                    *DISEMINADO*             01213ZUBITXIKI                00000                                                              2015010011 0011 
2000201001   00017990121300000            2015020014 0014    20221231 01001   0001799                         ADUNA                    *DISEMINADO*             01213ZUBITXIKI                00000                                                              2015020014 0014 
2000301001   00017010111000000            2074910001 0011    20221231 01001   0001701                         AIZARNAZABAL             AIZARNAZABAL             01110AIZARNAZABAL HIRIAL.     00000                                                              2074910001 0011 
2000301001   00017010111000000            2074920002 0014    20221231 01001   0001701                         AIZARNAZABAL             AIZARNAZABAL             01110AIZARNAZABAL HIRIAL.     00000                                                              2074920002 0014 
2000301001   00017010111100000            2074910001 0009    20221231 01001   0001701                         AIZARNAZABAL             AIZARNAZABAL             01111HERRIKO PLAZA            00000                                                              2074910001 0009 
2000301001   00017010111100000            2074920004 0010    20221231 01001   0001701                         AIZARNAZABAL             AIZARNAZABAL             01111HERRIKO PLAZA            00000                                                              2074920004 0010 
2000301001   00017010111200000            2074910001 0017    20221231 01001   0001701                         AIZARNAZABAL             AIZARNAZABAL             01112BALTASAR DE ETXABE       00000                                                              2074910001 0017 
2000301001   00017010111200000            2074920002 0016    20221231 01001   0001701                         AIZARNAZABAL             AIZARNAZABAL             01112BALTASAR DE ETXABE       00000                                                              2074920002 0016 
2000301001   00017010111300000            2074910001 0001    20221231 01001   0001701                         AIZARNAZABAL             AIZARNAZABAL             01113ARANTZAZU ETXE TALD.     00000                                                              2074910001 0001 
2000301001   00017010111300000            2074920002 0002    20221231 01001   0001701                         AIZARNAZABAL             AIZARNAZABAL             01113ARANTZAZU ETXE TALD.     00000                                                              2074920002 0002 
2000301001   00017010111400000            2074910001 0043    20221231 01001   0001701                         AIZARNAZABAL             AIZARNAZABAL             01114MIKEL KALEA              00000                                                              2074910001 0043 
2000301001   00017010111500000            2074920002 0004    20221231 01001   0001701                         AIZARNAZABAL             AIZARNAZABAL             01115ERRIBERA KALEA           00000                                                              2074920002 0004 
2000301001   00017010600100000            2074920002 0002    20221231 01001   0001701                         AIZARNAZABAL             AIZARNAZABAL             06001ATARI SORO PLAZA         00000                                                              2074920002 0002 
2000301001   00017010600300000            2074910001 0005    20221231 01001   0001701                         AIZARNAZABAL             AIZARNAZABAL             06003EUSKAL HERRIA KALEA      00000                                                              2074910001 0005 
2000301001   00017010600300000            2074920002 0004    20221231 01001   0001701                         AIZARNAZABAL             AIZARNAZABAL             06003EUSKAL HERRIA KALEA      00000                                                              2074920002 0004 
2000301001   00017010600400000            2074910001 0005    20221231 01001   0001701                         AIZARNAZABAL             AIZARNAZABAL             06004ELIZALDE KALEA           00000                                                              2074910001 0005 
2000301001   00017010600400000            2074920002 0004    20221231 01001   0001701                         AIZARNAZABAL             AIZARNAZABAL             06004ELIZALDE KALEA           00000                                                              2074920002 0004 
2000301001   00017010600600000            2074910001 0027    20221231 01001   0001701                         AIZARNAZABAL             AIZARNAZABAL             06006GAIKO KALEA              00000                                                              2074910001 0027 
2000301001   00017010600600000            2074920002 0030    20221231 01001   0001701                         AIZARNAZABAL             AIZARNAZABAL             06006GAIKO KALEA              00000                                                              2074920002 0030 
2000301001   00017990112600000            2074910001 0001    20221231 01001   0001799                         AIZARNAZABAL             *DISEMINADO*             01126ERREZUBI BASERRIA        00000                                                              2074910001 0001 
2000301001   00017990112800000            2074910003 0003    20221231 01001   0001799                         AIZARNAZABAL             *DISEMINADO*             01128INDA MENDI BIDEA         00000                                                              2074910003 0003 
2000301001   00022990112200000            2074910001 0013    20221231 01001   0002299                         ETXABE                   *DISEMINADO*             01122ETXABE AUZOA             00000                                                              2074910001 0013 
2000301001   00022990112200000            2074920002 0014    20221231 01001   0002299                         ETXABE                   *DISEMINADO*             01122ETXABE AUZOA             00000                                                              2074920002 0014 
2000301001   00043990112400000            2074910005 0013    20221231 01001   0004399                         MUGITZAGAINA             *DISEMINADO*             01124MUGITZAGAINA             00000                                                              2074910005 0013 
2000301001   00043990112400000            2074920004 0016    20221231 01001   0004399                         MUGITZAGAINA             *DISEMINADO*             01124MUGITZAGAINA             00000                                                              2074920004 0016 
2000301001   00056990112500000            2074910001 0017    20221231 01001   0005699                         SAIATZ                   *DISEMINADO*             01125SAIATZ AUZOA             00000                                                              2074910001 0017 
2000301001   00056990112500000            2074920004 0016    20221231 01001   0005699                         SAIATZ                   *DISEMINADO*             01125SAIATZ AUZOA             00000                                                              2074920004 0016 
2000301001   00069010112100000            2074900000S0000S   20221231 01001   0006901                         ZUBIALDEA                ZUBIALDEA                01121ZUBIALDEA                00000                                                              2074900000S0000S
2000301001   00069010112100000            2074910001 0021    20221231 01001   0006901                         ZUBIALDEA                ZUBIALDEA                01121ZUBIALDEA                00000                                                              2074910001 0021 
2000301001   00069010112100000            2074920004 0022    20221231 01001   0006901                         ZUBIALDEA                ZUBIALDEA                01121ZUBIALDEA                00000                                                              2074920004 0022 
2000401001   00017010111000000            2049500000S0000S   20221231 01001   0001701                         ALBIZTUR                 ALBIZTUR                 01110ERDIGUNEA                00000                                                              2049500000S0000S
2000401001   00017010111000000            2049510001 0061    20221231 01001   0001701                         ALBIZTUR                 ALBIZTUR                 01110ERDIGUNEA                00000                                                              2049510001 0061 
2000401001   00017010111000000            2049520004 0062    20221231 01001   0001701                         ALBIZTUR                 ALBIZTUR                 01110ERDIGUNEA                00000                                                              2049520004 0062 
2000401001   00017990600100000            2049510001 0025    20221231 01001   0001799                         ALBIZTUR                 *DISEMINADO*             06001ERGOENA BAILARA          00000                                                              2049510001 0025 
2000401001   00017990600100000            2049520002 0026    20221231 01001   0001799                         ALBIZTUR                 *DISEMINADO*             06001ERGOENA BAILARA          00000                                                              2049520002 0026 
2000401001   00017990600200000            2049500000S0000S   20221231 01001   0001799                         ALBIZTUR                 *DISEMINADO*             06002SANTA MARINA BAILARA     00000                                                              2049500000S0000S
2000401001   00017990600200000            2049510007 0007    20221231 01001   0001799                         ALBIZTUR                 *DISEMINADO*             06002SANTA MARINA BAILARA     00000                                                              2049510007 0007 
2000401001   00017990600200000            2049520002 0006    20221231 01001   0001799                         ALBIZTUR                 *DISEMINADO*             06002SANTA MARINA BAILARA     00000                                                              2049520002 0006 
2000401001   00017990600300000            2049510001 0019    20221231 01001   0001799                         ALBIZTUR                 *DISEMINADO*             06003AIZKORRI TXIKI BAIL.     00000                                                              2049510001 0019 
2000401001   00017990600300000            2049520002 0006    20221231 01001   0001799                         ALBIZTUR                 *DISEMINADO*             06003AIZKORRI TXIKI BAIL.     00000                                                              2049520002 0006 
2000401001   00017990600400000            2049510001 0011    20221231 01001   0001799                         ALBIZTUR                 *DISEMINADO*             06004AIZKORRI AUNDI BAIL.     00000                                                              2049510001 0011 
2000401001   00017990600400000            2049520002 0012    20221231 01001   0001799                         ALBIZTUR                 *DISEMINADO*             06004AIZKORRI AUNDI BAIL.     00000                                                              2049520002 0012 
2000401001   00017990600500000            2049510001 0005B   20221231 01001   0001799                         ALBIZTUR                 *DISEMINADO*             06005OLATEAGA BAILARA         00000                                                              2049510001 0005B
2000401001   00017990600500000            2049520002 0006    20221231 01001   0001799                         ALBIZTUR                 *DISEMINADO*             06005OLATEAGA BAILARA         00000                                                              2049520002 0006 
2000401001   00017990600600000            2049510001 0009    20221231 01001   0001799                         ALBIZTUR                 *DISEMINADO*             06006URRETA BAILARA           00000                                                              2049510001 0009 
2000401001   00017990600600000            2049520004 0008    20221231 01001   0001799                         ALBIZTUR                 *DISEMINADO*             06006URRETA BAILARA           00000                                                              2049520004 0008 
2000501001   00017010111000000            2026010001 0021    20221231 01001   0001701                         ALEGIA                   ALEGIA                   01110BIDEBERRIETA             00000                                                              2026010001 0021 
2000501001   00017010111000000            2026020002 0004    20221231 01001   0001701                         ALEGIA                   ALEGIA                   01110BIDEBERRIETA             00000                                                              2026020002 0004 
2000501001   00017010112000000            2026010001 0095    20221231 01001   0001701                         ALEGIA                   ALEGIA                   01120SAN JUAN KALEA           00000                                                              2026010001 0095 
2000501001   00017010112000000            2026020002 0066A   20221231 01001   0001701                         ALEGIA                   ALEGIA                   01120SAN JUAN KALEA           00000                                                              2026020002 0066A
2000501001   00017010114000000            2026020004 0008    20221231 01001   0001701                         ALEGIA                   ALEGIA                   01140HEGOALDE KALEA           00000                                                              2026020004 0008 
2000501001   00017010118000000            2026020002 0004    20221231 01001   0001701                         ALEGIA                   ALEGIA                   01180ARALAR BIDEA             00000                                                              2026020002 0004 
2000501001   00022010115000000            2026010001 0041    20221231 01001   0002201                         ERROTALDEA               ERROTALDEA               01150LARRAITZ AUZOA           00000                                                              2026010001 0041 
2000501001   00022010115000000            2026020002 0042    20221231 01001   0002201                         ERROTALDEA               ERROTALDEA               01150LARRAITZ AUZOA           00000                                                              2026020002 0042 
2000501001   00022010118000000            2026020006 0008    20221231 01001   0002201                         ERROTALDEA               ERROTALDEA               01180ARALAR BIDEA             00000                                                              2026020006 0008 
2000501001   00022010600400000            2026010001 0005    20221231 01001   0002201                         ERROTALDEA               ERROTALDEA               06004ERROTA AUZOA             00000                                                              2026010001 0005 
2000501001   00022010600400000            2026020002 0004    20221231 01001   0002201                         ERROTALDEA               ERROTALDEA               06004ERROTA AUZOA             00000                                                              2026020002 0004 
2000501001   00022990116000000            2026010001 0019    20221231 01001   0002299                         ERROTALDEA               *DISEMINADO*             01160ERROTALDEA               00000                                                              2026010001 0019 
2000501001   00022990116000000            2026020002 0018    20221231 01001   0002299                         ERROTALDEA               *DISEMINADO*             01160ERROTALDEA               00000                                                              2026020002 0018 
2000501001   00022990600500000            2026010003 0029    20221231 01001   0002299                         ERROTALDEA               *DISEMINADO*             06005BEISTIN AUZOA            00000                                                              2026010003 0029 
2000501001   00022990600500000            2026020002 0028    20221231 01001   0002299                         ERROTALDEA               *DISEMINADO*             06005BEISTIN AUZOA            00000                                                              2026020002 0028 
2000501001   00038990117000000            2026010033 0039    20221231 01001   0003899                         LANGAURREALDEA           *DISEMINADO*             01170LANGAURRALDEA            00000                                                              2026010033 0039 
2000501001   00038990117000000            2026020034 0040    20221231 01001   0003899                         LANGAURREALDEA           *DISEMINADO*             01170LANGAURRALDEA            00000                                                              2026020034 0040 
2000501001   00038990600200000            2026010001 0011    20221231 01001   0003899                         LANGAURREALDEA           *DISEMINADO*             06002ERBETA                   00000                                                              2026010001 0011 
2000501001   00038990600200000            2026020002 0004    20221231 01001   0003899                         LANGAURREALDEA           *DISEMINADO*             06002ERBETA                   00000                                                              2026020002 0004 
2000501001   00038990600300000            2026010029 0031    20221231 01001   0003899                         LANGAURREALDEA           *DISEMINADO*             06003AUZO TXIKIA              00000                                                              2026010029 0031 
2000501001   00038990600300000            2026020026 0030    20221231 01001   0003899                         LANGAURREALDEA           *DISEMINADO*             06003AUZO TXIKIA              00000                                                              2026020026 0030 
2000601001   00017010112000000            2049400000S0000S   20221231 01001   0001701                         ALKIZA                   ALKIZA                   01120ALKIZA PLAZA             00000                                                              2049400000S0000S
2000601001   00017010112000000            2049410001 0029    20221231 01001   0001701                         ALKIZA                   ALKIZA                   01120ALKIZA PLAZA             00000                                                              2049410001 0029 
2000601001   00017010112000000            2049420002 0026    20221231 01001   0001701                         ALKIZA                   ALKIZA                   01120ALKIZA PLAZA             00000                                                              2049420002 0026 
2000601001   00017010113000000            2049410001 0005    20221231 01001   0001701                         ALKIZA                   ALKIZA                   01130SANTIAGO ERMITA BIDE     00000                                                              2049410001 0005 
2000601001   00017010113000000            2049420002 0004    20221231 01001   0001701                         ALKIZA                   ALKIZA                   01130SANTIAGO ERMITA BIDE     00000                                                              2049420002 0004 
2000601001   00017010114000000            2049410001 0005    20221231 01001   0001701                         ALKIZA                   ALKIZA                   01140PERUALDEA                00000                                                              2049410001 0005 
2000601001   00017010114000000            2049420002 0006    20221231 01001   0001701                         ALKIZA                   ALKIZA                   01140PERUALDEA                00000                                                              2049420002 0006 
2000601001   00017990600100000            2049410001 0029    20221231 01001   0001799                         ALKIZA                   *DISEMINADO*             06001ARANA BAILARA            00000                                                              2049410001 0029 
2000601001   00017990600100000            2049420002 0028    20221231 01001   0001799                         ALKIZA                   *DISEMINADO*             06001ARANA BAILARA            00000                                                              2049420002 0028 
2000601001   00017990600200000            2049410001 0011    20221231 01001   0001799                         ALKIZA                   *DISEMINADO*             06002ALDAPA BAILARA           00000                                                              2049410001 0011 
2000601001   00017990600200000            2049420002 0008    20221231 01001   0001799                         ALKIZA                   *DISEMINADO*             06002ALDAPA BAILARA           00000                                                              2049420002 0008 
2000601001   00017990600300000            2049410001 0009    20221231 01001   0001799                         ALKIZA                   *DISEMINADO*             06003HERNIO BAILARA           00000                                                              2049410001 0009 
2000601001   00017990600300000            2049420002 0014    20221231 01001   0001799                         ALKIZA                   *DISEMINADO*             06003HERNIO BAILARA           00000                                                              2049420002 0014 
2000601001   00017990600400000            2049410001 0017    20221231 01001   0001799                         ALKIZA                   *DISEMINADO*             06004AZALDEGI BAILARA         00000                                                              2049410001 0017 
2000601001   00017990600400000            2049420002 0018    20221231 01001   0001799                         ALKIZA                   *DISEMINADO*             06004AZALDEGI BAILARA         00000                                                              2049420002 0018 
2000601001   00017990600500000            2049410001 0005    20221231 01001   0001799                         ALKIZA                   *DISEMINADO*             06005SAKAMIDRA BAILARA        00000                                                              2049410001 0005 
2000601001   00017990600500000            2049420002 0008    20221231 01001   0001799                         ALKIZA                   *DISEMINADO*             06005SAKAMIDRA BAILARA        00000                                                              2049420002 0008 
2000701001   00017010700400000            2026810059 0171    20221231 01001   0001701                         ALTZO                    ALTZO                    07004ALTZO-MUINO              00000                                                              2026810059 0171 
2000701001   00017010700400000            2026820060 0170    20221231 01001   0001701                         ALTZO                    ALTZO                    07004ALTZO-MUINO              00000                                                              2026820060 0170 
2000701001   00017990700100000            2026810001 0161    20221231 01001   0001799                         ALTZO                    *DISEMINADO*             07001ALTZO-AZPI               00000                                                              2026810001 0161 
2000701001   00017990700100000            2026820002 0098    20221231 01001   0001799                         ALTZO                    *DISEMINADO*             07001ALTZO-AZPI               00000                                                              2026820002 0098 
2000701001   00017990700200000            2026810043 0153    20221231 01001   0001799                         ALTZO                    *DISEMINADO*             07002INTXAUSTI                00000                                                              2026810043 0153 
2000701001   00017990700200000            2026820044 0058    20221231 01001   0001799                         ALTZO                    *DISEMINADO*             07002INTXAUSTI                00000                                                              2026820044 0058 
2000701001   00017990700300000            2026810033 0041    20221231 01001   0001799                         ALTZO                    *DISEMINADO*             07003AMATEGI ALDEA            00000                                                              2026810033 0041 
2000701001   00017990700300000            2026820034 0040    20221231 01001   0001799                         ALTZO                    *DISEMINADO*             07003AMATEGI ALDEA            00000                                                              2026820034 0040 
2000701001   00017990700400000            2026810063 0095    20221231 01001   0001799                         ALTZO                    *DISEMINADO*             07004ALTZO-MUINO              00000                                                              2026810063 0095 
2000701001   00017990700400000            2026820062 0096    20221231 01001   0001799                         ALTZO                    *DISEMINADO*             07004ALTZO-MUINO              00000                                                              2026820062 0096 
2000701001   00017990700500000            2026810065 0165    20221231 01001   0001799                         ALTZO                    *DISEMINADO*             07005EGILEOR                  00000                                                              2026810065 0165 
2000701001   00017990700500000            2026820064 0068    20221231 01001   0001799                         ALTZO                    *DISEMINADO*             07005EGILEOR                  00000                                                              2026820064 0068 
2000701001   00017990700600000            2026810089 0093    20221231 01001   0001799                         ALTZO                    *DISEMINADO*             07006TXAPARRE ALDEA           00000                                                              2026810089 0093 
2000701001   00017990700600000            2026820090 0140    20221231 01001   0001799                         ALTZO                    *DISEMINADO*             07006TXAPARRE ALDEA           00000                                                              2026820090 0140 
2000701001   00017990700700000            2026810019 0031    20221231 01001   0001799                         ALTZO                    *DISEMINADO*             07007ZUAZNABAR ALDEA          00000                                                              2026810019 0031 
2000701001   00017990700700000            2026820020 0032    20221231 01001   0001799                         ALTZO                    *DISEMINADO*             07007ZUAZNABAR ALDEA          00000                                                              2026820020 0032 
2000801001   00017010111000000            2026810001 0045    20221231 01001   0001701                         AMEZKETA                 AMEZKETA                 01110BARTOLOME DEUNAREN K     00000                                                              2026810001 0045 
2000801001   00017010111000000            2026820002 0038    20221231 01001   0001701                         AMEZKETA                 AMEZKETA                 01110BARTOLOME DEUNAREN K     00000                                                              2026820002 0038 
2000801001   00017010115000000            2026810001 0009    20221231 01001   0001701                         AMEZKETA                 AMEZKETA                 01150F. AMEZKETARRAREN P.     00000                                                              2026810001 0009 
2000801001   00017010115000000            2026820002 0008    20221231 01001   0001701                         AMEZKETA                 AMEZKETA                 01150F. AMEZKETARRAREN P.     00000                                                              2026820002 0008 
2000801001   00017010600100000            2026810001 0003    20221231 01001   0001701                         AMEZKETA                 AMEZKETA                 06001BELTZAREN PLAZA          00000                                                              2026810001 0003 
2000801001   00017010600100000            2026820002 0002    20221231 01001   0001701                         AMEZKETA                 AMEZKETA                 06001BELTZAREN PLAZA          00000                                                              2026820002 0002 
2000801001   00017010600200000            2026810001 0009    20221231 01001   0001701                         AMEZKETA                 AMEZKETA                 06002URBIZI KALEA             00000                                                              2026810001 0009 
2000801001   00017010600200000            2026820002 0008    20221231 01001   0001701                         AMEZKETA                 AMEZKETA                 06002URBIZI KALEA             00000                                                              2026820002 0008 
2000801001   00017990116000000            2026810001 0011    20221231 01001   0001799                         AMEZKETA                 *DISEMINADO*             01160ARRONDO AUZOA            00000                                                              2026810001 0011 
2000801001   00017990116000000            2026820004 0010    20221231 01001   0001799                         AMEZKETA                 *DISEMINADO*             01160ARRONDO AUZOA            00000                                                              2026820004 0010 
2000801001   00017990117000000            2026810001 0027    20221231 01001   0001799                         AMEZKETA                 *DISEMINADO*             01170ALTUNEGIKO AUZOA         00000                                                              2026810001 0027 
2000801001   00017990117000000            2026820002 0030    20221231 01001   0001799                         AMEZKETA                 *DISEMINADO*             01170ALTUNEGIKO AUZOA         00000                                                              2026820002 0030 
2000801001   00017990118000000            2026810003 0007    20221231 01001   0001799                         AMEZKETA                 *DISEMINADO*             01180ALTZAI AUZOA             00000                                                              2026810003 0007 
2000801001   00017990118000000            2026820002 0008    20221231 01001   0001799                         AMEZKETA                 *DISEMINADO*             01180ALTZAI AUZOA             00000                                                              2026820002 0008 
2000801001   00017990119000000            2026810001 0009    20221231 01001   0001799                         AMEZKETA                 *DISEMINADO*             01190ZUBILLAGA AUZOA          00000                                                              2026810001 0009 
2000801001   00017990119000000            2026820002 0012    20221231 01001   0001799                         AMEZKETA                 *DISEMINADO*             01190ZUBILLAGA AUZOA          00000                                                              2026820002 0012 
2000801001   00017990600300000            2026810001 0007    20221231 01001   0001799                         AMEZKETA                 *DISEMINADO*             06003OLA AUZOA                00000                                                              2026810001 0007 
2000801001   00017990600300000            2026820002 0010    20221231 01001   0001799                         AMEZKETA                 *DISEMINADO*             06003OLA AUZOA                00000                                                              2026820002 0010 
2000801001   00017990600400000            2026810001 0007    20221231 01001   0001799                         AMEZKETA                 *DISEMINADO*             06004TOLOALDEA AUZOA          00000                                                              2026810001 0007 
2000801001   00017990600400000            2026820004 0010    20221231 01001   0001799                         AMEZKETA                 *DISEMINADO*             06004TOLOALDEA AUZOA          00000                                                              2026820004 0010 
2000801001   00017990600500000            2026810001 0009    20221231 01001   0001799                         AMEZKETA                 *DISEMINADO*             06005ALEGIKO BIDEA            00000                                                              2026810001 0009 
2000801001   00017990600500000            2026820002 0006    20221231 01001   0001799                         AMEZKETA                 *DISEMINADO*             06005ALEGIKO BIDEA            00000                                                              2026820002 0006 
2000801001   00017990600600000            2026810001 0005    20221231 01001   0001799                         AMEZKETA                 *DISEMINADO*             06006LARRAITZ BIDEA           00000                                                              2026810001 0005 
2000801001   00017990600600000            2026820002 0008    20221231 01001   0001799                         AMEZKETA                 *DISEMINADO*             06006LARRAITZ BIDEA           00000                                                              2026820002 0008 
2000801001   00017990600700000            2026810001 0005    20221231 01001   0001799                         AMEZKETA                 *DISEMINADO*             06007URZABAL AUZOA            00000                                                              2026810001 0005 
2000801001   00017990600700000            2026820002 0006    20221231 01001   0001799                         AMEZKETA                 *DISEMINADO*             06007URZABAL AUZOA            00000                                                              2026820002 0006 
2000801001   00017990600800000            2026810001 0013    20221231 01001   0001799                         AMEZKETA                 *DISEMINADO*             06008URKULAPARTE AUZOA        00000                                                              2026810001 0013 
2000801001   00017990600800000            2026820002 0014    20221231 01001   0001799                         AMEZKETA                 *DISEMINADO*             06008URKULAPARTE AUZOA        00000                                                              2026820002 0014 
2000801001   00017990600900000            2026810001 0003    20221231 01001   0001799                         AMEZKETA                 *DISEMINADO*             06009ORENDAIN ALDEA           00000                                                              2026810001 0003 
2000801001   00017990600900000            2026820004 0004    20221231 01001   0001799                         AMEZKETA                 *DISEMINADO*             06009ORENDAIN ALDEA           00000                                                              2026820004 0004 
2000801001   00022010601200000            2026810001 0015    20221231 01001   0002201                         UGARTE                   UGARTE                   06012JOXEAN TOLOSA KALEA      00000                                                              2026810001 0015 
2000801001   00022010601200000            2026820002 0014    20221231 01001   0002201                         UGARTE                   UGARTE                   06012JOXEAN TOLOSA KALEA      00000                                                              2026820002 0014 
2000801001   00022990601300000            2026810001 0007    20221231 01001   0002299                         UGARTE                   *DISEMINADO*             06013ZAKEL AUZOA              00000                                                              2026810001 0007 
2000801001   00022990601300000            2026820002 0006    20221231 01001   0002299                         UGARTE                   *DISEMINADO*             06013ZAKEL AUZOA              00000                                                              2026820002 0006 
2000801001   00022990601400000            2026810001 0005    20221231 01001   0002299                         UGARTE                   *DISEMINADO*             06014EUTERA AUZOA             00000                                                              2026810001 0005 
2000801001   00022990601400000            2026820004 0006    20221231 01001   0002299                         UGARTE                   *DISEMINADO*             06014EUTERA AUZOA             00000                                                              2026820004 0006 
2000801001   00022990601500000            2026810001 0003    20221231 01001   0002299                         UGARTE                   *DISEMINADO*             06015ZUBI-BERRI AUZOA         00000                                                              2026810001 0003 
2000801001   00022990601500000            2026820004 0004    20221231 01001   0002299                         UGARTE                   *DISEMINADO*             06015ZUBI-BERRI AUZOA         00000                                                              2026820004 0004 
2000801001   00038010601000000            2026810001 0023    20221231 01001   0003801                         ERGOIENA                 ERGOIENA                 06010ELIZ KALEA               00000                                                              2026810001 0023 
2000801001   00038010601000000            2026820006 0036    20221231 01001   0003801                         ERGOIENA                 ERGOIENA                 06010ELIZ KALEA               00000                                                              2026820006 0036 
2000801001   00038010601100000            2026810001 0013    20221231 01001   0003801                         ERGOIENA                 ERGOIENA                 06011ERREKA ALDE KALEA        00000                                                              2026810001 0013 
2000801001   00038010601100000            2026820002 0012    20221231 01001   0003801                         ERGOIENA                 ERGOIENA                 06011ERREKA ALDE KALEA        00000                                                              2026820002 0012 
2000901001   00017010111000000            2014010001 0003    20221231 01001   0001701                         ANDOAIN                  ANDOAIN                  01110ESKOLA KALEA             00000                                                              2014010001 0003 
2000901001   00017010111000000            2014020002 0008    20221231 01001   0001701                         ANDOAIN                  ANDOAIN                  01110ESKOLA KALEA             00000                                                              2014020002 0008 
2000901001   00017010112000000            2014010001 0009    20221231 01001   0001701                         ANDOAIN                  ANDOAIN                  01120JUAN BAUTISTA ERRO       00000                                                              2014010001 0009 
2000901001   00017010112000000            2014020002 0008    20221231 01001   0001701                         ANDOAIN                  ANDOAIN                  01120JUAN BAUTISTA ERRO       00000                                                              2014020002 0008 
2000901001   00017010113000000            2014010001 0059    20221231 01001   0001701                         ANDOAIN                  ANDOAIN                  01130KALE NAGUSIA             00000                                                              2014010001 0059 
2000901011   00017010113000000            2014020002 0004A   20221231 01011   0001701                         ANDOAIN                  ANDOAIN                  01130KALE NAGUSIA             00000                                                              2014020002 0004A
2000901004   00017010113000000            2014020004B0004B   20221231 01004   0001701                         ANDOAIN                  ANDOAIN                  01130KALE NAGUSIA             00000                                                              2014020004B0004B
2000901001   00017010113000000            2014020006 0028    20221231 01001   0001701                         ANDOAIN                  ANDOAIN                  01130KALE NAGUSIA             00000                                                              2014020006 0028 
2000901005   00017010114000000            2014010001 0003    20221231 01005   0001701                         ANDOAIN                  ANDOAIN                  01140KALETXIKI                00000                                                              2014010001 0003 
2000901001   00017010114000000            2014010005 0017    20221231 01001   0001701                         ANDOAIN                  ANDOAIN                  01140KALETXIKI                00000                                                              2014010005 0017 
2000901001   00017010114000000            2014020002 0030    20221231 01001   0001701                         ANDOAIN                  ANDOAIN                  01140KALETXIKI                00000                                                              2014020002 0030 
2000901011   00017010115000000            2014010001 0007    20221231 01011   0001701                         ANDOAIN                  ANDOAIN                  01150GOIKOPLAZA               00000                                                              2014010001 0007 
2000901001   00017010115000000            2014010009 0009    20221231 01001   0001701                         ANDOAIN                  ANDOAIN                  01150GOIKOPLAZA               00000                                                              2014010009 0009 
2000901011   00017010115000000            2014020002 0008    20221231 01011   0001701                         ANDOAIN                  ANDOAIN                  01150GOIKOPLAZA               00000                                                              2014020002 0008 
2000901010   00017010116000000            2014000000S0000S   20221231 01010   0001701                         ANDOAIN                  ANDOAIN                  01160LA SALLE ETORBIDEA       00000                                                              2014000000S0000S
2000901001   00017010116000000            2014010001 0003    20221231 01001   0001701                         ANDOAIN                  ANDOAIN                  01160LA SALLE ETORBIDEA       00000                                                              2014010001 0003 
2000901010   00017010116000000            2014010005 0009    20221231 01010   0001701                         ANDOAIN                  ANDOAIN                  01160LA SALLE ETORBIDEA       00000                                                              2014010005 0009 
2000901010   00017010116000000            2014020002 0004    20221231 01010   0001701                         ANDOAIN                  ANDOAIN                  01160LA SALLE ETORBIDEA       00000                                                              2014020002 0004 
2000901007   00017010116000000            2014020008 0014    20221231 01007   0001701                         ANDOAIN                  ANDOAIN                  01160LA SALLE ETORBIDEA       00000                                                              2014020008 0014 
2000901002   00017010121000000            2014010003 0005    20221231 01002   0001701                         ANDOAIN                  ANDOAIN                  01210AINGURASUTEGI KALEA      00000                                                              2014010003 0005 
2000901002   00017010121000000            2014020002 0010    20221231 01002   0001701                         ANDOAIN                  ANDOAIN                  01210AINGURASUTEGI KALEA      00000                                                              2014020002 0010 
2000901003   00017010121000000            2014020012 0012    20221231 01003   0001701                         ANDOAIN                  ANDOAIN                  01210AINGURASUTEGI KALEA      00000                                                              2014020012 0012 
2000901001   00017010123000000            2014010001 0001    20221231 01001   0001701                         ANDOAIN                  ANDOAIN                  01230KALE BERRIA              00000                                                              2014010001 0001 
2000901002   00017010123000000            2014010003 0015    20221231 01002   0001701                         ANDOAIN                  ANDOAIN                  01230KALE BERRIA              00000                                                              2014010003 0015 
2000901001   00017010123000000            2014020004 0004    20221231 01001   0001701                         ANDOAIN                  ANDOAIN                  01230KALE BERRIA              00000                                                              2014020004 0004 
2000901002   00017010123000000            2014020006 0050    20221231 01002   0001701                         ANDOAIN                  ANDOAIN                  01230KALE BERRIA              00000                                                              2014020006 0050 
2000901002   00017010124000000            2014020002 0010    20221231 01002   0001701                         ANDOAIN                  ANDOAIN                  01240LEITZARAN KALEA          00000                                                              2014020002 0010 
2000901002   00017010125000000            2014010001 0023    20221231 01002   0001701                         ANDOAIN                  ANDOAIN                  01250ZUMEA KALEA              00000                                                              2014010001 0023 
2000901002   00017010125000000            2014020002 0036    20221231 01002   0001701                         ANDOAIN                  ANDOAIN                  01250ZUMEA KALEA              00000                                                              2014020002 0036 
2000901002   00017010126000000            2014010001 0001    20221231 01002   0001701                         ANDOAIN                  ANDOAIN                  01260KALE NAGUSIA ATZEK.      00000                                                              2014010001 0001 
2000901003   00017010131000000            2014010001 0011    20221231 01003   0001701                         ANDOAIN                  ANDOAIN                  01310BELABI KALEA             00000                                                              2014010001 0011 
2000901002   00017010131000000            2014020002 0008    20221231 01002   0001701                         ANDOAIN                  ANDOAIN                  01310BELABI KALEA             00000                                                              2014020002 0008 
2000901003   00017010131000000            2014020010 0010    20221231 01003   0001701                         ANDOAIN                  ANDOAIN                  01310BELABI KALEA             00000                                                              2014020010 0010 
2000901003   00017010132000000            2014010001 0031    20221231 01003   0001701                         ANDOAIN                  ANDOAIN                  01320AITA LARRAMENDI K.       00000                                                              2014010001 0031 
2000901003   00017010132000000            2014020002 0032    20221231 01003   0001701                         ANDOAIN                  ANDOAIN                  01320AITA LARRAMENDI K.       00000                                                              2014020002 0032 
2000901003   00017010133000000            2014000000S0000S   20221231 01003   0001701                         ANDOAIN                  ANDOAIN                  01330AITA LARRAMENDI ATZE     00000                                                              2014000000S0000S
2000901003   00017010133000000            2014010001 0003    20221231 01003   0001701                         ANDOAIN                  ANDOAIN                  01330AITA LARRAMENDI ATZE     00000                                                              2014010001 0003 
2000901003   00017010133000000            2014020002 0008    20221231 01003   0001701                         ANDOAIN                  ANDOAIN                  01330AITA LARRAMENDI ATZE     00000                                                              2014020002 0008 
2000901004   00017010141000000            2014020002 0004    20221231 01004   0001701                         ANDOAIN                  ANDOAIN                  01410BELKOAIN KALEA           00000                                                              2014020002 0004 
2000901004   00017010142000000            2014010001 0019B   20221231 01004   0001701                         ANDOAIN                  ANDOAIN                  01420DOKTOR HUIZI KALEA       00000                                                              2014010001 0019B
2000901011   00017010142000000            2014010021 0027    20221231 01011   0001701                         ANDOAIN                  ANDOAIN                  01420DOKTOR HUIZI KALEA       00000                                                              2014010021 0027 
2000901004   00017010142000000            2014020002 0028    20221231 01004   0001701                         ANDOAIN                  ANDOAIN                  01420DOKTOR HUIZI KALEA       00000                                                              2014020002 0028 
2000901004   00017010143000000            2014020002 0010    20221231 01004   0001701                         ANDOAIN                  ANDOAIN                  01430GERNIKA KALEA            00000                                                              2014020002 0010 
2000901004   00017010144000000            2014010001 0009    20221231 01004   0001701                         ANDOAIN                  ANDOAIN                  01440ONDARRETA KALEA          00000                                                              2014010001 0009 
2000901004   00017010144000000            2014020002 0012    20221231 01004   0001701                         ANDOAIN                  ANDOAIN                  01440ONDARRETA KALEA          00000                                                              2014020002 0012 
2000901004   00017010146000000            2014020002 0008    20221231 01004   0001701                         ANDOAIN                  ANDOAIN                  01460ZUBEROA KALEA            00000                                                              2014020002 0008 
2000901011   00017010147000000            2014010001 0027    20221231 01011   0001701                         ANDOAIN                  ANDOAIN                  01470AGUSTIN LEITZA KALEA     00000                                                              2014010001 0027 
2000901011   00017010147000000            2014020002 0006    20221231 01011   0001701                         ANDOAIN                  ANDOAIN                  01470AGUSTIN LEITZA KALEA     00000                                                              2014020002 0006 
2000901011   00017010152000000            2014020002 0014    20221231 01011   0001701                         ANDOAIN                  ANDOAIN                  01520AGUSTIN LEITZA ATZEK     00000                                                              2014020002 0014 
2000901011   00017010153000000            2014010001 0003    20221231 01011   0001701                         ANDOAIN                  ANDOAIN                  01530AGUSTIN LEITZA PLAZA     00000                                                              2014010001 0003 
2000901011   00017010153000000            2014020002 0002    20221231 01011   0001701                         ANDOAIN                  ANDOAIN                  01530AGUSTIN LEITZA PLAZA     00000                                                              2014020002 0002 
2000901005   00017010154000000            2014000000S0000S   20221231 01005   0001701                         ANDOAIN                  ANDOAIN                  01540ARRATE PLAZA             00000                                                              2014000000S0000S
2000901005   00017010154000000            2014010001 0009    20221231 01005   0001701                         ANDOAIN                  ANDOAIN                  01540ARRATE PLAZA             00000                                                              2014010001 0009 
2000901005   00017010154000000            2014020002 0010    20221231 01005   0001701                         ANDOAIN                  ANDOAIN                  01540ARRATE PLAZA             00000                                                              2014020002 0010 
2000901011   00017010155000000            2014010001 0009    20221231 01011   0001701                         ANDOAIN                  ANDOAIN                  01550ARTETA KALEA             00000                                                              2014010001 0009 
2000901005   00017010156000000            2014010001 0007    20221231 01005   0001701                         ANDOAIN                  ANDOAIN                  01560ELIZONDO PLAZA           00000                                                              2014010001 0007 
2000901005   00017010156000000            2014020002 0006    20221231 01005   0001701                         ANDOAIN                  ANDOAIN                  01560ELIZONDO PLAZA           00000                                                              2014020002 0006 
2000901005   00017010158000000            2014010001 0005    20221231 01005   0001701                         ANDOAIN                  ANDOAIN                  01580NAFARROA PLAZA           00000                                                              2014010001 0005 
2000901005   00017010158000000            2014020002 0004    20221231 01005   0001701                         ANDOAIN                  ANDOAIN                  01580NAFARROA PLAZA           00000                                                              2014020002 0004 
2000901005   00017010159000000            2014010001 0005    20221231 01005   0001701                         ANDOAIN                  ANDOAIN                  01590PIO BAROJA KALEA         00000                                                              2014010001 0005 
2000901006   00017010161000000            2014010001 0003    20221231 01006   0001701                         ANDOAIN                  ANDOAIN                  01610BAZKARDO AUZUNEA         00000                                                              2014010001 0003 
2000901006   00017010162000000            2014000000S0000S   20221231 01006   0001701                         ANDOAIN                  ANDOAIN                  01620ALEJANDRO CALONGE A.     00000                                                              2014000000S0000S
2000901006   00017010162000000            2014010001 0005    20221231 01006   0001701                         ANDOAIN                  ANDOAIN                  01620ALEJANDRO CALONGE A.     00000                                                              2014010001 0005 
2000901006   00017010162000000            2014020002 0004    20221231 01006   0001701                         ANDOAIN                  ANDOAIN                  01620ALEJANDRO CALONGE A.     00000                                                              2014020002 0004 
2000901006   00017010163000000            2014010001 0027    20221231 01006   0001701                         ANDOAIN                  ANDOAIN                  01630AMA KANDIDA ETORB.       00000                                                              2014010001 0027 
2000901006   00017010163000000            2014020002 0024    20221231 01006   0001701                         ANDOAIN                  ANDOAIN                  01630AMA KANDIDA ETORB.       00000                                                              2014020002 0024 
2000901006   00017010164000000            2014010001 0011    20221231 01006   0001701                         ANDOAIN                  ANDOAIN                  01640BAZKARDO PLAZA           00000                                                              2014010001 0011 
2000901006   00017010164000000            2014020002 0012    20221231 01006   0001701                         ANDOAIN                  ANDOAIN                  01640BAZKARDO PLAZA           00000                                                              2014020002 0012 
2000901011   00017010165000000            2014010001 0003    20221231 01011   0001701                         ANDOAIN                  ANDOAIN                  01650MIMENDI KALEA            00000                                                              2014010001 0003 
2000901011   00017010165000000            2014020002 0026    20221231 01011   0001701                         ANDOAIN                  ANDOAIN                  01650MIMENDI KALEA            00000                                                              2014020002 0026 
2000901006   00017010166000000            2014000000S0000S   20221231 01006   0001701                         ANDOAIN                  ANDOAIN                  01660RIKARDO ARREGI KALEA     00000                                                              2014000000S0000S
2000901011   00017010166000000            2014010001 0005    20221231 01011   0001701                         ANDOAIN                  ANDOAIN                  01660RIKARDO ARREGI KALEA     00000                                                              2014010001 0005 
2000901006   00017010166000000            2014010007 0021    20221231 01006   0001701                         ANDOAIN                  ANDOAIN                  01660RIKARDO ARREGI KALEA     00000                                                              2014010007 0021 
2000901005   00017010166000000            2014020002 0004    20221231 01005   0001701                         ANDOAIN                  ANDOAIN                  01660RIKARDO ARREGI KALEA     00000                                                              2014020002 0004 
2000901006   00017010166000000            2014020006 0020    20221231 01006   0001701                         ANDOAIN                  ANDOAIN                  01660RIKARDO ARREGI KALEA     00000                                                              2014020006 0020 
2000901007   00017010171000000            2014010001 0003    20221231 01007   0001701                         ANDOAIN                  ANDOAIN                  01710ALKARTASUNA KALEA        00000                                                              2014010001 0003 
2000901007   00017010171000000            2014020002 0006    20221231 01007   0001701                         ANDOAIN                  ANDOAIN                  01710ALKARTASUNA KALEA        00000                                                              2014020002 0006 
2000901010   00017010172000000            2014010001 0007    20221231 01010   0001701                         ANDOAIN                  ANDOAIN                  01720BERTXIN KALEA            00000                                                              2014010001 0007 
2000901010   00017010172000000            2014020002 0002    20221231 01010   0001701                         ANDOAIN                  ANDOAIN                  01720BERTXIN KALEA            00000                                                              2014020002 0002 
2000901010   00017010173000000            2014010001 0009    20221231 01010   0001701                         ANDOAIN                  ANDOAIN                  01730EXTREMADURA KALEA        00000                                                              2014010001 0009 
2000901007   00017010173000000            2014010013 0015    20221231 01007   0001701                         ANDOAIN                  ANDOAIN                  01730EXTREMADURA KALEA        00000                                                              2014010013 0015 
2000901010   00017010173000000            2014020002 0004B   20221231 01010   0001701                         ANDOAIN                  ANDOAIN                  01730EXTREMADURA KALEA        00000                                                              2014020002 0004B
2000901007   00017010173000000            2014020008 0014    20221231 01007   0001701                         ANDOAIN                  ANDOAIN                  01730EXTREMADURA KALEA        00000                                                              2014020008 0014 
2000901010   00017010174000000            2014010001 0017    20221231 01010   0001701                         ANDOAIN                  ANDOAIN                  01740GABRIEL ARESTI KALEA     00000                                                              2014010001 0017 
2000901010   00017010174000000            2014020002 0002    20221231 01010   0001701                         ANDOAIN                  ANDOAIN                  01740GABRIEL ARESTI KALEA     00000                                                              2014020002 0002 
2000901010   00017010175000000            2014010001 0005    20221231 01010   0001701                         ANDOAIN                  ANDOAIN                  01750GALARDI KALEA            00000                                                              2014010001 0005 
2000901007   00017010175000000            2014010007 0007    20221231 01007   0001701                         ANDOAIN                  ANDOAIN                  01750GALARDI KALEA            00000                                                              2014010007 0007 
2000901010   00017010175000000            2014020002 0008    20221231 01010   0001701                         ANDOAIN                  ANDOAIN                  01750GALARDI KALEA            00000                                                              2014020002 0008 
2000901007   00017010175000000            2014020010 0012    20221231 01007   0001701                         ANDOAIN                  ANDOAIN                  01750GALARDI KALEA            00000                                                              2014020010 0012 
2000901010   00017010176000000            2014010001 0039    20221231 01010   0001701                         ANDOAIN                  ANDOAIN                  01760JOAKIN LARRETA ETORB     00000                                                              2014010001 0039 
2000901010   00017010177000000            2014010001 0009    20221231 01010   0001701                         ANDOAIN                  ANDOAIN                  01770JOAKIN LARRETA ATZEK     00000                                                              2014010001 0009 
2000901010   00017010177000000            2014020002 0012    20221231 01010   0001701                         ANDOAIN                  ANDOAIN                  01770JOAKIN LARRETA ATZEK     00000                                                              2014020002 0012 
2000901007   00017010179000000            2014010001 0047    20221231 01007   0001701                         ANDOAIN                  ANDOAIN                  01790PLAZAOLA KALEA           00000                                                              2014010001 0047 
2000901007   00017010179000000            2014020002 0014    20221231 01007   0001701                         ANDOAIN                  ANDOAIN                  01790PLAZAOLA KALEA           00000                                                              2014020002 0014 
2000901010   00017010179100000            2014010001 0005    20221231 01010   0001701                         ANDOAIN                  ANDOAIN                  01791OLAGAIN AUZUNEA          00000                                                              2014010001 0005 
2000901010   00017010179100000            2014020002 0006    20221231 01010   0001701                         ANDOAIN                  ANDOAIN                  01791OLAGAIN AUZUNEA          00000                                                              2014020002 0006 
2000901008   00017010181000000            2014010001 0059    20221231 01008   0001701                         ANDOAIN                  ANDOAIN                  01810GUDARIEN ETORBIDEA       00000                                                              2014010001 0059 
2000901008   00017010181000000            2014020002 0002    20221231 01008   0001701                         ANDOAIN                  ANDOAIN                  01810GUDARIEN ETORBIDEA       00000                                                              2014020002 0002 
2000901010   00017010205000000            2014000000S0000S   20221231 01010   0001701                         ANDOAIN                  ANDOAIN                  02050GELTOKI AUZOA            00000                                                              2014000000S0000S
2000901010   00017010205000000            2014010001 0003    20221231 01010   0001701                         ANDOAIN                  ANDOAIN                  02050GELTOKI AUZOA            00000                                                              2014010001 0003 
2000901010   00017010205000000            2014020002 0004    20221231 01010   0001701                         ANDOAIN                  ANDOAIN                  02050GELTOKI AUZOA            00000                                                              2014020002 0004 
2000901003   00017010700100000            2014010001 0005    20221231 01003   0001701                         ANDOAIN                  ANDOAIN                  07001ETXEBERRIETA PLAZA       00000                                                              2014010001 0005 
2000901003   00017010700100000            2014020002 0006    20221231 01003   0001701                         ANDOAIN                  ANDOAIN                  07001ETXEBERRIETA PLAZA       00000                                                              2014020002 0006 
2000901002   00017010700400000            2014010001 0007    20221231 01002   0001701                         ANDOAIN                  ANDOAIN                  07004ZUMEA PLAZA              00000                                                              2014010001 0007 
2000901002   00017010700400000            2014020002 0008    20221231 01002   0001701                         ANDOAIN                  ANDOAIN                  07004ZUMEA PLAZA              00000                                                              2014020002 0008 
2000901002   00017010700500000            2014010001 0001    20221231 01002   0001701                         ANDOAIN                  ANDOAIN                  07005TXITIBAR PLAZA           00000                                                              2014010001 0001 
2000901003   00017010700500000            2014010003 0003    20221231 01003   0001701                         ANDOAIN                  ANDOAIN                  07005TXITIBAR PLAZA           00000                                                              2014010003 0003 
2000901003   00017010700500000            2014020002 0002    20221231 01003   0001701                         ANDOAIN                  ANDOAIN                  07005TXITIBAR PLAZA           00000                                                              2014020002 0002 
2000901002   00017010700500000            2014020004 0004    20221231 01002   0001701                         ANDOAIN                  ANDOAIN                  07005TXITIBAR PLAZA           00000                                                              2014020004 0004 
2000901003   00017010700600000            2014010001 0001    20221231 01003   0001701                         ANDOAIN                  ANDOAIN                  07006TXITIBAR ZEHARKALEA      00000                                                              2014010001 0001 
2000901003   00017010700600000            2014020002 0012    20221231 01003   0001701                         ANDOAIN                  ANDOAIN                  07006TXITIBAR ZEHARKALEA      00000                                                              2014020002 0012 
2000901003   00017010700800000            2014010001 0001    20221231 01003   0001701                         ANDOAIN                  ANDOAIN                  07008DA.CARMEN ALCACERA      00000                                                              2014010001 0001 
2000901003   00017010700800000            2014020002 0002    20221231 01003   0001701                         ANDOAIN                  ANDOAIN                  07008DA.CARMEN ALCACERA      00000                                                              2014020002 0002 
2000901003   00017010700900000            2014010001 0003    20221231 01003   0001701                         ANDOAIN                  ANDOAIN                  07009PEDRO MANUEL UGARTEM     00000                                                              2014010001 0003 
2000901003   00017010701000000            2014010001 0001    20221231 01003   0001701                         ANDOAIN                  ANDOAIN                  07010PATXI ETXEBERRIA ZEH     00000                                                              2014010001 0001 
2000901003   00017010701000000            2014020002 0002    20221231 01003   0001701                         ANDOAIN                  ANDOAIN                  07010PATXI ETXEBERRIA ZEH     00000                                                              2014020002 0002 
2000901003   00017010701100000            2014010001 0001    20221231 01003   0001701                         ANDOAIN                  ANDOAIN                  07011ZEFERINO ANSA ZEHARK     00000                                                              2014010001 0001 
2000901003   00017010701100000            2014020002 0002    20221231 01003   0001701                         ANDOAIN                  ANDOAIN                  07011ZEFERINO ANSA ZEHARK     00000                                                              2014020002 0002 
2000901003   00017010701200000            2014010001 0007    20221231 01003   0001701                         ANDOAIN                  ANDOAIN                  07012ALGODONERAKO EMAKUME     00000                                                              2014010001 0007 
2000901003   00017010701200000            2014020002 0008    20221231 01003   0001701                         ANDOAIN                  ANDOAIN                  07012ALGODONERAKO EMAKUME     00000                                                              2014020002 0008 
2000901003   00017010701300000            2014020002 0004    20221231 01003   0001701                         ANDOAIN                  ANDOAIN                  07013MARTIN UGALDE KALEA      00000                                                              2014020002 0004 
2000901008   00017010701400000            2014010001 0015    20221231 01008   0001701                         ANDOAIN                  ANDOAIN                  07014MANUEL LEKUONA PLAZA     00000                                                              2014010001 0015 
2000901008   00017010701400000            2014020002 0014    20221231 01008   0001701                         ANDOAIN                  ANDOAIN                  07014MANUEL LEKUONA PLAZA     00000                                                              2014020002 0014 
2000901008   00017010701600000            2014010001 0005    20221231 01008   0001701                         ANDOAIN                  ANDOAIN                  07016ARANTZIBIA PLAZA         00000                                                              2014010001 0005 
2000901008   00017010701600000            2014020002 0004    20221231 01008   0001701                         ANDOAIN                  ANDOAIN                  07016ARANTZIBIA PLAZA         00000                                                              2014020002 0004 
2000901008   00017010701700000            2014010001 0003    20221231 01008   0001701                         ANDOAIN                  ANDOAIN                  07017ARANTZIBIA KALEA         00000                                                              2014010001 0003 
2000901008   00017010701700000            2014020002 0004    20221231 01008   0001701                         ANDOAIN                  ANDOAIN                  07017ARANTZIBIA KALEA         00000                                                              2014020002 0004 
2000901008   00022990167000000            2014000000S0000S   20221231 01008   0002299                         BURUNTZA                 *DISEMINADO*             01670BURUNTZA AUZOA           00000                                                              2014000000S0000S
2000901008   00022990167000000            2014010101 0147    20221231 01008   0002299                         BURUNTZA                 *DISEMINADO*             01670BURUNTZA AUZOA           00000                                                              2014010101 0147 
2000901008   00022990167000000            2014020002 0142    20221231 01008   0002299                         BURUNTZA                 *DISEMINADO*             01670BURUNTZA AUZOA           00000                                                              2014020002 0142 
2000901009   00056990197000000            2014000000S0000S   20221231 01009   0005699                         GOIBURU                  *DISEMINADO*             01970GOIBURU AUZOA            00000                                                              2014000000S0000S
2000901009   00056990197000000            2014010301 0341    20221231 01009   0005699                         GOIBURU                  *DISEMINADO*             01970GOIBURU AUZOA            00000                                                              2014010301 0341 
2000901009   00056990197000000            2014020302 0342    20221231 01009   0005699                         GOIBURU                  *DISEMINADO*             01970GOIBURU AUZOA            00000                                                              2014020302 0342 
2000901008   00069990182000000            2014010001 0067    20221231 01008   0006999                         LEIZOTZ                  *DISEMINADO*             01820LEIZOTZ AUZOA            00000                                                              2014010001 0067 
2000901008   00069990182000000            2014020002 0068    20221231 01008   0006999                         LEIZOTZ                  *DISEMINADO*             01820LEIZOTZ AUZOA            00000                                                              2014020002 0068 
2000901008   00069990194000000            2014010001 0001    20221231 01008   0006999                         LEIZOTZ                  *DISEMINADO*             01940LIZARKOLA PASEALEKUA     00000                                                              2014010001 0001 
2000901008   00069990702100000            2014010003 0003    20221231 01008   0006999                         LEIZOTZ                  *DISEMINADO*             07021ARANAZTEGI ETORBIDEA     00000                                                              2014010003 0003 
2000901009   00075010191000000            2014020002 0022    20221231 01009   0007501                         SORABILLA                SORABILLA                01910AIZTONDO KALEA           00000                                                              2014020002 0022 
2000901009   00075010192000000            2014010001 0003    20221231 01009   0007501                         SORABILLA                SORABILLA                01920GURMENDI KALEA           00000                                                              2014010001 0003 
2000901009   00075010192000000            2014020002 0014    20221231 01009   0007501                         SORABILLA                SORABILLA                01920GURMENDI KALEA           00000                                                              2014020002 0014 
2000901009   00075010193000000            2014010001 0009    20221231 01009   0007501                         SORABILLA                SORABILLA                01930KARRIKA KALEA            00000                                                              2014010001 0009 
2000901009   00075010193000000            2014020002 0012    20221231 01009   0007501                         SORABILLA                SORABILLA                01930KARRIKA KALEA            00000                                                              2014020002 0012 
2000901009   00075010196000000            2014010007 0007    20221231 01009   0007501                         SORABILLA                SORABILLA                01960UBILLUTS AUZUNEA         00000                                                              2014010007 0007 
2000901009   00075010700200000            2014010001 0013    20221231 01009   0007501                         SORABILLA                SORABILLA                07002ERROTAGAIN KALEA         00000                                                              2014010001 0013 
2000901009   00075010700200000            2014020002 0012    20221231 01009   0007501                         SORABILLA                SORABILLA                07002ERROTAGAIN KALEA         00000                                                              2014020002 0012 
2000901009   00075990195000000            2014010201 0271    20221231 01009   0007599                         SORABILLA                *DISEMINADO*             01950SORABILLA AUZOA          00000                                                              2014010201 0271 
2000901009   00075990195000000            2014020206 0266    20221231 01009   0007599                         SORABILLA                *DISEMINADO*             01950SORABILLA AUZOA          00000                                                              2014020206 0266 
2000901009   00075990703800000            2014010005 0005    20221231 01009   0007599                         SORABILLA                *DISEMINADO*             07038BALASTRAIN-MATXINEA      00000                                                              2014010005 0005 
2001001001   00017010111000000            2027010001 0005    20221231 01001   0001701                         ANOETA                   ANOETA                   01110APEADERO ALDEA           00000                                                              2027010001 0005 
2001001001   00017010111000000            2027020002 0004    20221231 01001   0001701                         ANOETA                   ANOETA                   01110APEADERO ALDEA           00000                                                              2027020002 0004 
2001001001   00017010112000000            2027010001 0005    20221231 01001   0001701                         ANOETA                   ANOETA                   01120ARGOIN KALEA             00000                                                              2027010001 0005 
2001001001   00017010112000000            2027020002 0004    20221231 01001   0001701                         ANOETA                   ANOETA                   01120ARGOIN KALEA             00000                                                              2027020002 0004 
2001001001   00017010113000000            2027010001 0005    20221231 01001   0001701                         ANOETA                   ANOETA                   01130ERROTALDEA               00000                                                              2027010001 0005 
2001001001   00017010113000000            2027020002 0008    20221231 01001   0001701                         ANOETA                   ANOETA                   01130ERROTALDEA               00000                                                              2027020002 0008 
2001001001   00017010114000000            2027010001 0005    20221231 01001   0001701                         ANOETA                   ANOETA                   01140ETXABURU KALEA           00000                                                              2027010001 0005 
2001001001   00017010114000000            2027020002 0006    20221231 01001   0001701                         ANOETA                   ANOETA                   01140ETXABURU KALEA           00000                                                              2027020002 0006 
2001001001   00017010115000000            2027010001 0009    20221231 01001   0001701                         ANOETA                   ANOETA                   01150HERRIKO PLAZA            00000                                                              2027010001 0009 
2001001001   00017010115000000            2027020002 0010    20221231 01001   0001701                         ANOETA                   ANOETA                   01150HERRIKO PLAZA            00000                                                              2027020002 0010 
2001001001   00017010116000000            2027010001 0005    20221231 01001   0001701                         ANOETA                   ANOETA                   01160HOZPEL KALEA             00000                                                              2027010001 0005 
2001001001   00017010116000000            2027020002 0004    20221231 01001   0001701                         ANOETA                   ANOETA                   01160HOZPEL KALEA             00000                                                              2027020002 0004 
2001001001   00017010117000000            2027010001 0007    20221231 01001   0001701                         ANOETA                   ANOETA                   01170IDIAKAITZ                00000                                                              2027010001 0007 
2001001001   00017010117000000            2027020002 0006    20221231 01001   0001701                         ANOETA                   ANOETA                   01170IDIAKAITZ                00000                                                              2027020002 0006 
2001001001   00017010118000000            2027010001 0005    20221231 01001   0001701                         ANOETA                   ANOETA                   01180ISASTI KALEA             00000                                                              2027010001 0005 
2001001001   00017010118000000            2027020002 0004    20221231 01001   0001701                         ANOETA                   ANOETA                   01180ISASTI KALEA             00000                                                              2027020002 0004 
2001001001   00017010118100000            2027010001 0005    20221231 01001   0001701                         ANOETA                   ANOETA                   01181ITURTXULO KALEA          00000                                                              2027010001 0005 
2001001001   00017010118100000            2027020002 0006    20221231 01001   0001701                         ANOETA                   ANOETA                   01181ITURTXULO KALEA          00000                                                              2027020002 0006 
2001001001   00017010119000000            2027010001 0003    20221231 01001   0001701                         ANOETA                   ANOETA                   01190ITURBURU KALEA           00000                                                              2027010001 0003 
2001001001   00017010119000000            2027020002 0002    20221231 01001   0001701                         ANOETA                   ANOETA                   01190ITURBURU KALEA           00000                                                              2027020002 0002 
2001001001   00017010119100000            2027010001 0001    20221231 01001   0001701                         ANOETA                   ANOETA                   01191KALE BERRI               00000                                                              2027010001 0001 
2001001001   00017010119200000            2027010001 0021    20221231 01001   0001701                         ANOETA                   ANOETA                   01192SAN JUAN KALEA           00000                                                              2027010001 0021 
2001001001   00017010119200000            2027020002 0020    20221231 01001   0001701                         ANOETA                   ANOETA                   01192SAN JUAN KALEA           00000                                                              2027020002 0020 
2001001001   00017010119300000            2027010001 0005    20221231 01001   0001701                         ANOETA                   ANOETA                   01193SOLKORRE KALEA           00000                                                              2027010001 0005 
2001001001   00017010119300000            2027020002 0006    20221231 01001   0001701                         ANOETA                   ANOETA                   01193SOLKORRE KALEA           00000                                                              2027020002 0006 
2001001001   00017010119400000            2027010001 0001    20221231 01001   0001701                         ANOETA                   ANOETA                   01194SORTALDE KALEA           00000                                                              2027010001 0001 
2001001001   00017010119400000            2027020002 0002    20221231 01001   0001701                         ANOETA                   ANOETA                   01194SORTALDE KALEA           00000                                                              2027020002 0002 
2001001001   00017010119600000            2027010001 0001    20221231 01001   0001701                         ANOETA                   ANOETA                   01196KALE TXIKI               00000                                                              2027010001 0001 
2001001001   00017010120000000            2027010001 0005    20221231 01001   0001701                         ANOETA                   ANOETA                   01200LASARBE KALEA            00000                                                              2027010001 0005 
2001001001   00017990119500000            2027010001 0007    20221231 01001   0001799                         ANOETA                   *DISEMINADO*             01195ANOETA SAKABANATUA       00000                                                              2027010001 0007 
