2500300001   20221231 00000MAS TALLADA                                       
2500900001   20221231 00000MA ISABEL SOLSONA SANS                            
2500900002   20221231 00000FINCA TENZI                                       
2504900500   20221231 00000COBERTS DEL TERSOL                                
2504900501   20221231 00000GRANJA DEL PONS                                   
2504900502   20221231 00000ERA CAL CRISTIÀ                                   
2504900503   20221231 00000ERA DE CAL JULIO                                  
2504900504   20221231 00000GRANJA DEL JAUME                                  
2504900505   20221231 00000GRANJA DEL CUBERES                                
2504900506   20221231 00000ERA CAL SELDONI                                   
2504900507   20221231 00000COBERT CAL PITANSA                                
2504900508   20221231 00000CABANA CAL VIALÓ                                  
2504900509   20221231 00000CAL PONET                                         
2504900510   20221231 00000MASIA DEL MAGÍ PONET                              
2504900511   20221231 00000MASIA MONTSERRAT                                  
2504900512   20221231 00000GRANJA DEL MARIANO                                
2504900513   20221231 00000MASIA COLOM                                       
2504900514   20221231 00000GRANJA GERARD CARBONELL                           
2504900515   20221231 00000MASIA DEL CANONGE                                 
2507800001   20221231 00000CARRETERA CORBINS                                 
2507800002   20221231 00000PARTIDA CASES                                     
2507800003   20221231 00000PARTIDA COLL DEL REI                              
2507800004   20221231 00000PARTIDA COMA                                      
2507800005   20221231 00000PARTIDA DE LA CUADRA                              
2507800006   20221231 00000PARTIDA DEL SOT                                   
2507800007   20221231 00000PARTIDA DELLA                                     
2507800008   20221231 00000PARTIDA ERAL ALTO                                 
2507800009   20221231 00000PARTIDA ERAL BAIX                                 
2507800010   20221231 00000PARTIDA JIVILLI                                   
2507800011   20221231 00000PARTIDA MARRADA                                   
2507800012   20221231 00000PARTIDA MARXET                                    
2507800013   20221231 00000PARTIDA PLA DEL MOLI                              
2507800014   20221231 00000PARTIDA TOSAL DEL MORO                            
2509200001   20221231 00000POLÍGON 1 50                                      
2509200002   20221231 00000POLÍGON 2 23                                      
2509200003   20221231 00000POLÍGON 2 57                                      
2509200004   20221231 00000POLÍGON 2 70                                      
2509200005   20221231 00000POLÍGON 3 20                                      
2509200006   20221231 00000POLÍGON 3 49                                      
2509200007   20221231 00000CASA ANGELS BALLARA DE FEBRER                     
2509200008   20221231 00000CASA RAMONA BALLARA DE FEBRER                     
2510000001   20221231 00000ERMITA BUTNE                                      
2510000002   20221231 00000CAMPET 1                                          
2510000003   20221231 00000GUARDIOLA                                         
2510000004   20221231 00000MARIANO                                           
2510000005   20221231 00000GUITART                                           
2510000006   20221231 00000SANTA MARGARIDA                                   
2510000007   20221231 00000DISSEMINAT GOSOL                                  
2510000008   20221231 00000RECTORIA DE VILACIRERES                           
2510000009   20221231 00000PUIG                                              
2510000010   20221231 00000PANDORA                                           
2510000011   20221231 00000CASA SERRAS                                       
2510000012   20221231 00000ERMITA SANTA MARGARIDA                            
2510000013   20221231 00000DISSEMINAT SORRIBES                               
2510000014   20221231 00000CASA FAIXETA                                      
2510000015   20221231 00000TORRETA                                           
2510000016   20221231 00000CASA MOLI DE GUELL                                
2510000017   20221231 00000CASA COLLADA                                      
2510000018   20221231 00000CASA CORBELL                                      
2510000019   20221231 00000BASSES                                            
2510000020   20221231 00000CASA CAMPING CADI                                 
2510000021   20221231 00000CASA LA ROCA                                      
2510000022   20221231 00000CAN COSTA                                         
2510000023   20221231 00000CAMPET 2                                          
2510000024   20221231 00000CASA BATISTE                                      
2510000025   20221231 00000CAN PELEGRI                                       
2510000026   20221231 00000CASA MOLI                                         
2510000027   20221231 00000CASA ANDREUET                                     
2510000028   20221231 00000TERRISSER                                         
2510000029   20221231 00000CAL JEEP                                          
2510000030   20221231 00000CASA BORDA DE CAL TINENT                          
2510000031   20221231 00000CAN BLANC                                         
2510000032   20221231 00000ROS                                               
2510000033   20221231 00000CASA FRANCISCO                                    
2511100001   20221231 00000LA DEVESA DE LES NOGUERES                         
2511800001   20221231 00000PARTIDA PLANES                                    
2511800002   20221231 00000PARTIDA BASSELLA                                  
2512300001   20221231 00000CABANA DE FELIU                                   
2512500001   20221231 00000GRANJA SENTIS                                     
2512500002   20221231 00000CAL CANDI                                         
2512500003   20221231 00000LA FABRICA                                        
2512790000   20221231 00000FINCA MOLÍ DE TRAVESSERES                         
2513300001   20221231 00000GRANJA PREMIER PIGS, S.L                          
2515000001   20221231 00000CAL MITGER NOU                                    
2515190001   20221231 00000CASA BRICS                                        
2515190002   20221231 00000CASA CLES                                         
2515190003   20221231 00000CASA COR DE ROURE                                 
2515190004   20221231 00000CASA LLOC                                         
2515190005   20221231 00000CASA MASIA                                        
2515190006   20221231 00000CASA MASO                                         
2515190007   20221231 00000CASA PLA DE GODALL                                
2515190008   20221231 00000CASA REBOLLOSA                                    
2515190009   20221231 00000CASA ROBINS                                       
2515190010   20221231 00000CASA SENEN                                        
2515190011   20221231 00000CASA TORREDEFLOT                                  
2515190012   20221231 00000CASA VILADOT                                      
2515190013   20221231 00000CASA XERENDET                                     
2515190014   20221231 00000CASA XERILL                                       
2515190015   20221231 00000CASANOVA REBOLLOSA                                
2515190016   20221231 00000CASETA DE BRICS                                   
2515190017   20221231 00000CASETA DEL BOIX                                   
2515190018   20221231 00000CASA RAJOLI                                       
2515190019   20221231 00000RECTORIA DE BRICS                                 
2515190020   20221231 00000CASA AIGÜES VIVES                                 
2515190021   20221231 00000CASA ROTÉS                                        
2515190022   20221231 00000CASA CASANOVA LA CANAL                            
2515190023   20221231 00000CASA CASTELLVELL                                  
2515190024   20221231 00000CASA COLOMA                                       
2515190025   20221231 00000CASA COLOMES                                      
2515190026   20221231 00000CASA LA CREU                                      
2515190027   20221231 00000CASA MASNOU                                       
2515190028   20221231 00000CASA PALLARES DE DALT                             
2515190029   20221231 00000CASA PALLARES DE BAIX                             
2515190030   20221231 00000CASA SASTRE                                       
2515190031   20221231 00000CASA TALAIA                                       
2515190032   20221231 00000CASA TORREGASA                                    
2515190033   20221231 00000CASA TORRONE                                      
2515190034   20221231 00000CASA VILLARO MIRAVER                              
2515190035   20221231 00000XALET FERMIN                                      
2515190036   20221231 00000CASA PLA DE LES BASSELLES                         
2515190037   20221231 00000CASA CASÓ                                         
2515190038   20221231 00000CASA LA CANAL                                     
2515190039   20221231 00000CABANA MUXÍ                                       
2515190040   20221231 00000XALET HOSTAL DE LES FORQUES                       
2515190041   20221231 00000CASA HOSTAL DE LES FORQUES                        
2515190042   20221231 00000CASA ALGUE                                        
2515190043   20221231 00000CASA CABALL                                       
2515190044   20221231 00000CASA CASAS                                        
2515190045   20221231 00000CASA CATI                                         
2515190046   20221231 00000CASA COMAJUNCOSA                                  
2515190047   20221231 00000CASA GOLFERICHS                                   
2515190048   20221231 00000CASA LES COMES                                    
2515190049   20221231 00000CASA MARCUS                                       
2515190050   20221231 00000CASA MARISCOTS                                    
2515190051   20221231 00000CASA MIRO GUINGUETA                               
2515190052   20221231 00000CASA MOLI DEL PONT                                
2515190053   20221231 00000CASA MOLI DELS CUPS                               
2515190054   20221231 00000CASA MONEGAL                                      
2515190055   20221231 00000CASA NOVA VILLARO                                 
2515190056   20221231 00000CASA OTS                                          
2515190057   20221231 00000CASA PLA D'OLIUS                                  
2515190058   20221231 00000CASA PLANS                                        
2515190059   20221231 00000CASA PUIGSEC                                      
2515190060   20221231 00000CASA RECTORAL OLIUS                               
2515190061   20221231 00000CASA SANT JOAN                                    
2515190062   20221231 00000CASA SANMIQUEL                                    
2515190063   20221231 00000CASA SERCH                                        
2515190064   20221231 00000CASA SERRA                                        
2515190065   20221231 00000CASA SOLANELLS                                    
2515190066   20221231 00000CASA TOFOL                                        
2515190067   20221231 00000CASA VILLARO NOU                                  
2515190068   20221231 00000CASA XEROL                                        
2515190069   20221231 00000CASETA GOLFERICHS                                 
2515190070   20221231 00000CASETA SANMIQUEL                                  
2515190071   20221231 00000CASSO SOLANELLS                                   
2515190072   20221231 00000CASA CARDENER                                     
2515190073   20221231 00000GRANJA MUFORBA                                    
2515190074   20221231 00000CASA ESCOLA D'OLIUS                               
2515190075   20221231 00000CASA LA PLANA                                     
2515190076   20221231 00000CASA PEU DEL ROC                                  
2515190077   20221231 00000CASA LA TROBADA                                   
2515190078   20221231 00000CASA LA GUINGUETA                                 
2515190079   20221231 00000CASA MUNTADA                                      
2515190080   20221231 00000CASA VILAR DE XIMOSA                              
2515190081   20221231 00000CASA VILLARO VELL                                 
2515190082   20221231 00000CASA SASTRE D'OLIUS                               
2515190083   20221231 00000CASA PUIGGALI HOSTALET                            
2515190084   20221231 00000CASA COTXERIA                                     
2515190085   20221231 00000CASA LA TORRETA                                   
2515190086   20221231 00000CASA RECTORAL SANT JUST                           
2515190087   20221231 00000CASA TORRA SANT JUST                              
2516100001   20221231 00000CASA MOTES                                        
2516100002   20221231 00000CASA ERA TURETA                                   
2516100003   20221231 00000BORDA MARIETA                                     
2516100004   20221231 00000CASA ALAMILLO                                     
2516100005   20221231 00000CASA SERRAT                                       
2516100006   20221231 00000CASA GRANJA MASCARELL                             
2516100007   20221231 00000LES FEIXES                                        
2516100008   20221231 00000CAL TONET                                         
2516100009   20221231 00000L'ERA DE LA RITA                                  
2516100010   20221231 00000CAL TORRO                                         
2516100011   20221231 00000CASA TINET                                        
2516100012   20221231 00000CASA EL MOLÍ                                      
2516100013   20221231 00000CASA PERET                                        
2516100014   20221231 00000MASIA SORIGUÉ                                     
2516100015   20221231 00000CASA AGUSTINET                                    
2516100016   20221231 00000CASA CASANOVA                                     
2516100017   20221231 00000CASA BARQUERA                                     
2516100018   20221231 00000CASA XETO                                         
2516100019   20221231 00000CASA MARIANA                                      
2516100020   20221231 00000CASA JUAN COSTA                                   
2516100021   20221231 00000CASA GRAELL                                       
2516100022   20221231 00000CASA CHICO                                        
2516100023   20221231 00000CASA CAPUTXÍ                                      
2516100024   20221231 00000CASA CARLÀ                                        
2516100025   20221231 00000CASA MIRET                                        
2516100026   20221231 00000CASA JAUMET-ARAMUNT VELL                          
2516100027   20221231 00000CASA TOHÀ                                         
2516300001   20221231 00000CAL CABANES                                       
2516300002   20221231 00000CAL COSTA                                         
2516300003   20221231 00000CAL EL SALÍ                                       
2516300004   20221231 00000CAL JORDI                                         
2516300005   20221231 00000CAL MINGUELL                                      
2516300006   20221231 00000CAL TET                                           
2516300007   20221231 00000CASA ANDAL                                        
2516300008   20221231 00000CASA ARRAPLAGANT                                  
2516300009   20221231 00000CASA BEP                                          
2516300010   20221231 00000CASA BONIC                                        
2516300011   20221231 00000CASA BORDA                                        
2516300012   20221231 00000CASA BUC                                          
2516300013   20221231 00000CASA CA LA MARI                                   
2516300014   20221231 00000CASA CABRE                                        
2516300015   20221231 00000CASA CAMETA                                       
2516300016   20221231 00000CASA CAMETA SALI                                  
2516300017   20221231 00000CASA CAMPA                                        
2516300018   20221231 00000CASA CANSOLA                                      
2516300019   20221231 00000CASA CASAMI                                       
2516300020   20221231 00000CASA COLRRODO                                     
2516300021   20221231 00000CASA CRISTU                                       
2516300022   20221231 00000CASA CUSTODI                                      
2516300023   20221231 00000CASA EL PORXO                                     
2516300024   20221231 00000CASA ESTABET SAGAL                                
2516300025   20221231 00000CASA FABRA                                        
2516300026   20221231 00000CASA FERA                                         
2516300027   20221231 00000CASA FITE                                         
2516300028   20221231 00000CASA FORADADA                                     
2516300029   20221231 00000CASA FUSTERIA                                     
2516300030   20221231 00000CASA GARRIGA                                      
2516300031   20221231 00000CASA GRANJA                                       
2516300032   20221231 00000CASA HORTS GANSOLA                                
2516300033   20221231 00000CASA JOAN BATLLE                                  
2516300034   20221231 00000CASA LA SERRA                                     
2516300035   20221231 00000CASA LA VILLA                                     
2516300036   20221231 00000CASA MALL DE MUNTANYA                             
2516300037   20221231 00000CASA MANELET                                      
2516300038   20221231 00000CASA MASSANES                                     
2516300039   20221231 00000CASA MINGUELL                                     
2516300040   20221231 00000CASA MIQUEL MUNTANYA                              
2516300041   20221231 00000CASA PARET DE QUIRSA                              
2516300042   20221231 00000CASA PARNALS                                      
2516300043   20221231 00000CASA PARRA                                        
2516300044   20221231 00000CASA PEREMARQUES                                  
2516300045   20221231 00000CASA PLANES                                       
2516300046   20221231 00000CASA PLANS                                        
2516300047   20221231 00000CASA POMA                                         
2516300048   20221231 00000CASA PUJOL                                        
2516300049   20221231 00000CASA QUIRSA CLOTS                                 
2516300050   20221231 00000CASA RAMON CANSOLA                                
2516300051   20221231 00000CASA RELI                                         
2516300052   20221231 00000CASA RIBERA                                       
2516300053   20221231 00000CASA ROSET                                        
2516300054   20221231 00000CASA SERNI                                        
2516300055   20221231 00000CASA TERREROL                                     
2516300056   20221231 00000CASA TOTXO                                        
2516300057   20221231 00000CASA TUIXENT                                      
2516300058   20221231 00000CASA VOLUNTARI                                    
2516300059   20221231 00000CASA LLAHI DELS CLOTS                             
2516300060   20221231 00000CASA JAPO                                         
2516300061   20221231 00000CASA ARGELAGUE                                    
2516300062   20221231 00000CASA BARRACA CASO                                 
2516300063   20221231 00000CASA BARRAQUES                                    
2516300064   20221231 00000CASA BERNAT                                       
2516300065   20221231 00000CASA BURREC                                       
2516300066   20221231 00000CASA CALOT                                        
2516300067   20221231 00000CASA CAMP                                         
2516300068   20221231 00000CASA JEPET                                        
2516300069   20221231 00000CASA CANONGE                                      
2516300070   20221231 00000CASA CASABELLA                                    
2516300071   20221231 00000CASA CASO                                         
2516300072   20221231 00000CASA CASO VELL                                    
2516300073   20221231 00000CASA CENTRAL                                      
2516300074   20221231 00000CASA CLOSA                                        
2516300075   20221231 00000CASA COMELLES                                     
2516300076   20221231 00000CASA CREU DE JUVELLS                              
2516300077   20221231 00000CASA DAM                                          
2516300078   20221231 00000CASA ESCARRE                                      
2516300079   20221231 00000CASA ESTRET                                       
2516300080   20221231 00000CASA FABRICA                                      
2516300081   20221231 00000CASA FONT CASO                                    
2516300082   20221231 00000CASA GUERRA                                       
2516300083   20221231 00000CASA INSOLAS                                      
2516300084   20221231 00000CASA HIVERNS                                      
2516300085   20221231 00000CASA JANOT                                        
2516300086   20221231 00000CASA LA CREU                                      
2516300087   20221231 00000CASA LA MUNTADA                                   
2516300088   20221231 00000CASA MALES                                        
2516300089   20221231 00000CASA MANCHO                                       
2516300090   20221231 00000CASA MARCO                                        
2516300091   20221231 00000CASA MASOVE                                       
2516300092   20221231 00000CASA MASSANA                                      
2516300093   20221231 00000CASA MAYOL                                        
2516300094   20221231 00000CASA PLANAS                                       
2516300095   20221231 00000CASA RECTORIA LA PEDRA                            
2516300096   20221231 00000CASA TALO                                         
2516300097   20221231 00000CASA TRAGINES                                     
2516300098   20221231 00000CASA VILELLA                                      
2516300099   20221231 00000CASA VIUDO                                        
2516300100   20221231 00000CASA XALET                                        
2516300101   20221231 00000ESGLESIA                                          
2516300102   20221231 00000CASA MARCAXANES                                   
2516300103   20221231 00000CASA EL JOU                                       
2516300104   20221231 00000CASA PASCUETS                                     
2516300105   20221231 00000CASA LA GAFA                                      
2516300106   20221231 00000CAL GAMISANS                                      
2516300107   20221231 00000CASA LA PLANA                                     
2516300108   20221231 00000CASA CREU DELS JONCARETS                          
2516300109   20221231 00000CAL CALOT DE ST.LLEÏR                             
2516300110   20221231 00000CAL ARABÉ                                         
2516300111   20221231 00000CASA MATAPLANA                                    
2516300112   20221231 00000CAL PUJANTELL                                     
2518000001   20221231 00000TORRE MIRÓ                                        
2518000002   20221231 00000CASA SOLANS                                       
2518000003   20221231 00000CASA DIAZ                                         
2518000004   20221231 00000CASA SALAMANCA                                    
2518000005   20221231 00000CASA CAZORLA                                      
2518000006   20221231 00000CASA VIGIL                                        
2518000007   20221231 00000FINCA SEGARRA                                     
2518000008   20221231 00000FINCA CONCEPCIÓN                                  
2518000009   20221231 00000CASA ALLUEVA                                      
2518000010   20221231 00000CASA QUERALT                                      
2518000011   20221231 00000CASA MEDINA                                       
2521200001   20221231 00000CAMÍ D'ALFÉS                                      
2524290000   20221231 00000AFORES 8                                          
2524290001   20221231 00000AFORES 19                                         
2524290002   20221231 00000AFORES 51                                         
2524290003   20221231 00000AFORES 52                                         
2524290004   20221231 00000AFORES 53                                         
2524290005   20221231 00000AFORES 54                                         
2524290006   20221231 00000AFORES 55                                         
2524290007   20221231 00000AFORES 56                                         
2524290008   20221231 00000AFORES 58                                         
2524290009   20221231 00000ERA CAL GRAVAT                                    
2524290010   20221231 00000PARTIDA LA SERRA 156                              
