4400101001   00017010000100000            4415510001 0005    20221231 01001   0001701                         ABABUJ                   ABABUJ                   00001ALTA                     00000                                                              4415510001 0005 
4400101001   00017010000100000            4415520006 0010    20221231 01001   0001701                         ABABUJ                   ABABUJ                   00001ALTA                     00000                                                              4415520006 0010 
4400101001   00017010000200000            4415520002 0008    20221231 01001   0001701                         ABABUJ                   ABABUJ                   00002CASTILLO                 00000                                                              4415520002 0008 
4400101001   00017010000300000            4415510001 0007    20221231 01001   0001701                         ABABUJ                   ABABUJ                   00003CUATRO ESQUINAS          00000                                                              4415510001 0007 
4400101001   00017010000300000            4415520004 0004    20221231 01001   0001701                         ABABUJ                   ABABUJ                   00003CUATRO ESQUINAS          00000                                                              4415520004 0004 
4400101001   00017010000400000            4415510003 0007    20221231 01001   0001701                         ABABUJ                   ABABUJ                   00004CID (EL)                 00000                                                              4415510003 0007 
4400101001   00017010000400000            4415520002 0002    20221231 01001   0001701                         ABABUJ                   ABABUJ                   00004CID (EL)                 00000                                                              4415520002 0002 
4400101001   00017010000500000            4415510001 0001    20221231 01001   0001701                         ABABUJ                   ABABUJ                   00005FREGADERA                00000                                                              4415510001 0001 
4400101001   00017010000700000            4415510001 9999    20221231 01001   0001701                         ABABUJ                   ABABUJ                   00007HERRERIA                 00000                                                              4415510001 9999 
4400101001   00017010000700000            4415520002 0018    20221231 01001   0001701                         ABABUJ                   ABABUJ                   00007HERRERIA                 00000                                                              4415520002 0018 
4400101001   00017010000900000            4415510001 0013    20221231 01001   0001701                         ABABUJ                   ABABUJ                   00009IGLESIA                  00000                                                              4415510001 0013 
4400101001   00017010000900000            4415520002 0028    20221231 01001   0001701                         ABABUJ                   ABABUJ                   00009IGLESIA                  00000                                                              4415520002 0028 
4400101001   00017010001000000            4415500000S0000S   20221231 01001   0001701                         ABABUJ                   ABABUJ                   00010MAYOR                    00000                                                              4415500000S0000S
4400101001   00017010001000000            4415510003 0017    20221231 01001   0001701                         ABABUJ                   ABABUJ                   00010MAYOR                    00000                                                              4415510003 0017 
4400101001   00017010001000000            4415520002 0020    20221231 01001   0001701                         ABABUJ                   ABABUJ                   00010MAYOR                    00000                                                              4415520002 0020 
4400101001   00017010001100000            4415510001 0003    20221231 01001   0001701                         ABABUJ                   ABABUJ                   00011MONTERA                  00000                                                              4415510001 0003 
4400101001   00017010001200000            4415519999 9999    20221231 01001   0001701                         ABABUJ                   ABABUJ                   00012RINCON                   00000                                                              4415519999 9999 
4400101001   00017010001300000            4415510013 0013    20221231 01001   0001701                         ABABUJ                   ABABUJ                   00013RUZAFA                   00000                                                              4415510013 0013 
4400101001   00017010001300000            4415520012 0012    20221231 01001   0001701                         ABABUJ                   ABABUJ                   00013RUZAFA                   00000                                                              4415520012 0012 
4400101001   00017010001400000            4415510001 0001    20221231 01001   0001701                         ABABUJ                   ABABUJ                   00014ZARICHE                  00000                                                              4415510001 0001 
4400101001   00017010001400000            4415520002 0010    20221231 01001   0001701                         ABABUJ                   ABABUJ                   00014ZARICHE                  00000                                                              4415520002 0010 
4400101001   00017010001700000            4415510001 0001    20221231 01001   0001701                         ABABUJ                   ABABUJ                   00017LOMA (LA)                00000                                                              4415510001 0001 
4400101001   00017990001500000            4415500000S0000S   20221231 01001   0001799                         ABABUJ                   *DISEMINADO*             00015MOLINO (EL)              00000                                                              4415500000S0000S
4400101001   00017990001500000            4415510001 0001    20221231 01001   0001799                         ABABUJ                   *DISEMINADO*             00015MOLINO (EL)              00000                                                              4415510001 0001 
4400101001   00017990001600000            4415500000S0000S   20221231 01001   0001799                         ABABUJ                   *DISEMINADO*             00016MASIA EL COLLAO          00000                                                              4415500000S0000S
4400201001   00017010000100000            4442210001 9999    20221231 01001   0001701                         ABEJUELA                 ABEJUELA                 00001FRONTON                  00000                                                              4442210001 9999 
4400201001   00017010000100000            4442220004 0028    20221231 01001   0001701                         ABEJUELA                 ABEJUELA                 00001FRONTON                  00000                                                              4442220004 0028 
4400201001   00017010000300000            4442210003 0013    20221231 01001   0001701                         ABEJUELA                 ABEJUELA                 00003SAN VICENTE              00000                                                              4442210003 0013 
4400201001   00017010000300000            4442220002 0010    20221231 01001   0001701                         ABEJUELA                 ABEJUELA                 00003SAN VICENTE              00000                                                              4442220002 0010 
4400201001   00017010000400000            4442200000S0000S   20221231 01001   0001701                         ABEJUELA                 ABEJUELA                 00004CASTILLO                 00000                                                              4442200000S0000S
4400201001   00017010000400000            4442210007 0055    20221231 01001   0001701                         ABEJUELA                 ABEJUELA                 00004CASTILLO                 00000                                                              4442210007 0055 
4400201001   00017010000400000            4442220006 0014    20221231 01001   0001701                         ABEJUELA                 ABEJUELA                 00004CASTILLO                 00000                                                              4442220006 0014 
4400201001   00017010000500000            4442210001 0003    20221231 01001   0001701                         ABEJUELA                 ABEJUELA                 00005VALENCIA                 00000                                                              4442210001 0003 
4400201001   00017010000500000            4442220004 0018    20221231 01001   0001701                         ABEJUELA                 ABEJUELA                 00005VALENCIA                 00000                                                              4442220004 0018 
4400201001   00017010000600000            4442210013 0019    20221231 01001   0001701                         ABEJUELA                 ABEJUELA                 00006MAYOR                    00000                                                              4442210013 0019 
4400201001   00017010000600000            4442220002 0010    20221231 01001   0001701                         ABEJUELA                 ABEJUELA                 00006MAYOR                    00000                                                              4442220002 0010 
4400201001   00017010000700000            4442210003 0053    20221231 01001   0001701                         ABEJUELA                 ABEJUELA                 00007FUENTE                   00000                                                              4442210003 0053 
4400201001   00017010000700000            4442220002 0040    20221231 01001   0001701                         ABEJUELA                 ABEJUELA                 00007FUENTE                   00000                                                              4442220002 0040 
4400201001   00017010000800000            4442210003 0015    20221231 01001   0001701                         ABEJUELA                 ABEJUELA                 00008AVELINO ZURIAGA          00000                                                              4442210003 0015 
4400201001   00017010000800000            4442220006 0012    20221231 01001   0001701                         ABEJUELA                 ABEJUELA                 00008AVELINO ZURIAGA          00000                                                              4442220006 0012 
4400201001   00017010001000000            4442220008 0008    20221231 01001   0001701                         ABEJUELA                 ABEJUELA                 00010CALLEJAS                 00000                                                              4442220008 0008 
4400201001   00017010001300000            4442210001 0001    20221231 01001   0001701                         ABEJUELA                 ABEJUELA                 00013CANTON                   00000                                                              4442210001 0001 
4400301001   00017010000100000            4438210005 0005    20221231 01001   0001701                         AGUATON                  AGUATON                  00001SAN ANTONIO              00000                                                              4438210005 0005 
4400301001   00017010000100000            4438220002 0008    20221231 01001   0001701                         AGUATON                  AGUATON                  00001SAN ANTONIO              00000                                                              4438220002 0008 
4400301001   00017010000300000            4438220010 0010    20221231 01001   0001701                         AGUATON                  AGUATON                  00003SAN PASCUAL              00000                                                              4438220010 0010 
4400301001   00017010000400000            4438210003 0003    20221231 01001   0001701                         AGUATON                  AGUATON                  00004ALTA                     00000                                                              4438210003 0003 
4400301001   00017010000400000            4438220002 0002    20221231 01001   0001701                         AGUATON                  AGUATON                  00004ALTA                     00000                                                              4438220002 0002 
4400301001   00017010000500000            4438210001 0001    20221231 01001   0001701                         AGUATON                  AGUATON                  00005FUENTE                   00000                                                              4438210001 0001 
4400301001   00017010000500000            4438220014 0014A   20221231 01001   0001701                         AGUATON                  AGUATON                  00005FUENTE                   00000                                                              4438220014 0014A
4400301001   00017010000900000            4438210011 0011    20221231 01001   0001701                         AGUATON                  AGUATON                  00009MAYOR                    00000                                                              4438210011 0011 
4400301001   00017010000900000            4438220004 0006    20221231 01001   0001701                         AGUATON                  AGUATON                  00009MAYOR                    00000                                                              4438220004 0006 
4400301001   00017010001300000            4438219999 9999    20221231 01001   0001701                         AGUATON                  AGUATON                  00013MAYOR                    00000                                                              4438219999 9999 
4400301001   00017010001500000            4438210005 0005    20221231 01001   0001701                         AGUATON                  AGUATON                  00015HEROES DE CUBA           00000                                                              4438210005 0005 
4400301001   00017010001500000            4438220004 0004    20221231 01001   0001701                         AGUATON                  AGUATON                  00015HEROES DE CUBA           00000                                                              4438220004 0004 
4400401001   00017010000400000            4456610001 0011    20221231 01001   0001701                         AGUAVIVA                 AGUAVIVA                 00004ARCOS (LOS)              00000                                                              4456610001 0011 
4400401001   00017010000400000            4456620002 0008    20221231 01001   0001701                         AGUAVIVA                 AGUAVIVA                 00004ARCOS (LOS)              00000                                                              4456620002 0008 
4400401001   00017010000600000            4456610005 0065    20221231 01001   0001701                         AGUAVIVA                 AGUAVIVA                 00006ALTA                     00000                                                              4456610005 0065 
4400401001   00017010000600000            4456620002 0058    20221231 01001   0001701                         AGUAVIVA                 AGUAVIVA                 00006ALTA                     00000                                                              4456620002 0058 
4400401001   00017010000700000            4456610001 0087    20221231 01001   0001701                         AGUAVIVA                 AGUAVIVA                 00007ARRABAL                  00000                                                              4456610001 0087 
4400401001   00017010000700000            4456620004 0080    20221231 01001   0001701                         AGUAVIVA                 AGUAVIVA                 00007ARRABAL                  00000                                                              4456620004 0080 
4400401001   00017010000900000            4456620004 0012    20221231 01001   0001701                         AGUAVIVA                 AGUAVIVA                 00009PUERTO                   00000                                                              4456620004 0012 
4400401001   00017010001000000            4456610001 0017    20221231 01001   0001701                         AGUAVIVA                 AGUAVIVA                 00010CUATRO ESQUINAS          00000                                                              4456610001 0017 
4400401001   00017010001000000            4456620008 0012    20221231 01001   0001701                         AGUAVIVA                 AGUAVIVA                 00010CUATRO ESQUINAS          00000                                                              4456620008 0012 
4400401001   00017010001300000            4456620004 0012    20221231 01001   0001701                         AGUAVIVA                 AGUAVIVA                 00013IGLESIA (LA)             00000                                                              4456620004 0012 
4400401001   00017010001500000            4456610001 0005    20221231 01001   0001701                         AGUAVIVA                 AGUAVIVA                 00015VENTA (LA)               00000                                                              4456610001 0005 
4400401001   00017010001500000            4456620002 0006    20221231 01001   0001701                         AGUAVIVA                 AGUAVIVA                 00015VENTA (LA)               00000                                                              4456620002 0006 
4400401001   00017010001800000            4456610011 0013    20221231 01001   0001701                         AGUAVIVA                 AGUAVIVA                 00018HOSPITAL                 00000                                                              4456610011 0013 
4400401001   00017010001800000            4456620004 0024    20221231 01001   0001701                         AGUAVIVA                 AGUAVIVA                 00018HOSPITAL                 00000                                                              4456620004 0024 
4400401001   00017010001900000            4456610009 0019    20221231 01001   0001701                         AGUAVIVA                 AGUAVIVA                 00019SAN MIGUEL               00000                                                              4456610009 0019 
4400401001   00017010001900000            4456620004 0026    20221231 01001   0001701                         AGUAVIVA                 AGUAVIVA                 00019SAN MIGUEL               00000                                                              4456620004 0026 
4400401001   00017010002000000            4456610001 0001    20221231 01001   0001701                         AGUAVIVA                 AGUAVIVA                 00020RAMBLA                   00000                                                              4456610001 0001 
4400401001   00017010002000000            4456620004 0008    20221231 01001   0001701                         AGUAVIVA                 AGUAVIVA                 00020RAMBLA                   00000                                                              4456620004 0008 
4400401001   00017010002500000            4456610003 0037    20221231 01001   0001701                         AGUAVIVA                 AGUAVIVA                 00025MAYOR                    00000                                                              4456610003 0037 
4400401001   00017010002500000            4456620002 0028    20221231 01001   0001701                         AGUAVIVA                 AGUAVIVA                 00025MAYOR                    00000                                                              4456620002 0028 
4400401001   00017010002600000            4456610005 0005    20221231 01001   0001701                         AGUAVIVA                 AGUAVIVA                 00026ESPAÑA                   00000                                                              4456610005 0005 
4400401001   00017010002600000            4456620004 0004    20221231 01001   0001701                         AGUAVIVA                 AGUAVIVA                 00026ESPAÑA                   00000                                                              4456620004 0004 
4400401001   00017010002700000            4456610001 0019    20221231 01001   0001701                         AGUAVIVA                 AGUAVIVA                 00027NUEVA                    00000                                                              4456610001 0019 
4400401001   00017010002700000            4456620002 0022    20221231 01001   0001701                         AGUAVIVA                 AGUAVIVA                 00027NUEVA                    00000                                                              4456620002 0022 
4400401001   00017010002900000            4456610007 0007    20221231 01001   0001701                         AGUAVIVA                 AGUAVIVA                 00029HORNO                    00000                                                              4456610007 0007 
4400401001   00017010002900000            4456620012 0012    20221231 01001   0001701                         AGUAVIVA                 AGUAVIVA                 00029HORNO                    00000                                                              4456620012 0012 
4400401001   00017010003500000            4456610001 0001    20221231 01001   0001701                         AGUAVIVA                 AGUAVIVA                 00035BUENOS AIRES             00000                                                              4456610001 0001 
4400401001   00017010003600000            4456610001 0011    20221231 01001   0001701                         AGUAVIVA                 AGUAVIVA                 00036PILAR (EL)               00000                                                              4456610001 0011 
4400401001   00017010003600000            4456620006 0020    20221231 01001   0001701                         AGUAVIVA                 AGUAVIVA                 00036PILAR (EL)               00000                                                              4456620006 0020 
4400401001   00017010004100000            4456620002 0004    20221231 01001   0001701                         AGUAVIVA                 AGUAVIVA                 00041FIGUERAL                 00000                                                              4456620002 0004 
4400401001   00017010004300000            4456610001 0089    20221231 01001   0001701                         AGUAVIVA                 AGUAVIVA                 00043LARGA                    00000                                                              4456610001 0089 
4400401001   00017010004300000            4456620002 0050    20221231 01001   0001701                         AGUAVIVA                 AGUAVIVA                 00043LARGA                    00000                                                              4456620002 0050 
4400401001   00017010004400000            4456610003 0015    20221231 01001   0001701                         AGUAVIVA                 AGUAVIVA                 00044SAN LORENZO              00000                                                              4456610003 0015 
4400401001   00017010004500000            4456610001 0015    20221231 01001   0001701                         AGUAVIVA                 AGUAVIVA                 00045CHALETS                  00000                                                              4456610001 0015 
4400401001   00017010004600000            4456610001 0041    20221231 01001   0001701                         AGUAVIVA                 AGUAVIVA                 00046TRASCASA                 00000                                                              4456610001 0041 
4400401001   00017010004600000            4456620002 0008    20221231 01001   0001701                         AGUAVIVA                 AGUAVIVA                 00046TRASCASA                 00000                                                              4456620002 0008 
4400401001   00017010004700000            4456620002 0008    20221231 01001   0001701                         AGUAVIVA                 AGUAVIVA                 00047HERRERIAS                00000                                                              4456620002 0008 
4400401001   00017010005400000            4456610003 0003    20221231 01001   0001701                         AGUAVIVA                 AGUAVIVA                 00054PLAZA (LA)               00000                                                              4456610003 0003 
4400401001   00017010005400000            4456620006 0006    20221231 01001   0001701                         AGUAVIVA                 AGUAVIVA                 00054PLAZA (LA)               00000                                                              4456620006 0006 
4400401001   00017010005500000            4456610001 0001    20221231 01001   0001701                         AGUAVIVA                 AGUAVIVA                 00055CALIXTO                  00000                                                              4456610001 0001 
4400401001   00017010005500000            4456620004 0006    20221231 01001   0001701                         AGUAVIVA                 AGUAVIVA                 00055CALIXTO                  00000                                                              4456620004 0006 
4400401001   00017010005600000            4456610029 0029    20221231 01001   0001701                         AGUAVIVA                 AGUAVIVA                 00056FUENTE (LA)              00000                                                              4456610029 0029 
4400401001   00017010005600000            4456620006 0006    20221231 01001   0001701                         AGUAVIVA                 AGUAVIVA                 00056FUENTE (LA)              00000                                                              4456620006 0006 
4400401001   00017010005700000            4456610001 0003    20221231 01001   0001701                         AGUAVIVA                 AGUAVIVA                 00057CAMINO CALANDA           00000                                                              4456610001 0003 
4400401001   00017010005800000            4456610013 0015    20221231 01001   0001701                         AGUAVIVA                 AGUAVIVA                 00058BAJO ARAGON              00000                                                              4456610013 0015 
4400401001   00017010005800000            4456620008 0010    20221231 01001   0001701                         AGUAVIVA                 AGUAVIVA                 00058BAJO ARAGON              00000                                                              4456620008 0010 
4400401001   00017010005900000            4456610005 0005    20221231 01001   0001701                         AGUAVIVA                 AGUAVIVA                 00059MOLINO ACEITE            00000                                                              4456610005 0005 
4400401001   00017010006000000            4456610005 0013    20221231 01001   0001701                         AGUAVIVA                 AGUAVIVA                 00060BUENOS AIRES             00000                                                              4456610005 0013 
4400401001   00017010006000000            4456620002 0050    20221231 01001   0001701                         AGUAVIVA                 AGUAVIVA                 00060BUENOS AIRES             00000                                                              4456620002 0050 
4400401001   00017010006100000            4456610007 0089    20221231 01001   0001701                         AGUAVIVA                 AGUAVIVA                 00061FUENTE (DE LA)           00000                                                              4456610007 0089 
4400401001   00017010006100000            4456620008 0062    20221231 01001   0001701                         AGUAVIVA                 AGUAVIVA                 00061FUENTE (DE LA)           00000                                                              4456620008 0062 
4400401001   00017010006200000            4456610003 0017    20221231 01001   0001701                         AGUAVIVA                 AGUAVIVA                 00062LLANOS (LOS)             00000                                                              4456610003 0017 
4400401001   00017010006200000            4456620004 0016    20221231 01001   0001701                         AGUAVIVA                 AGUAVIVA                 00062LLANOS (LOS)             00000                                                              4456620004 0016 
4400401001   00017010006300000            4456610009 0013    20221231 01001   0001701                         AGUAVIVA                 AGUAVIVA                 00063GALLO (EL)               00000                                                              4456610009 0013 
4400401001   00017010006600000            4456610021 0037    20221231 01001   0001701                         AGUAVIVA                 AGUAVIVA                 00066SANTA BARBARA            00000                                                              4456610021 0037 
4400401001   00017010006600000            4456620022 0030    20221231 01001   0001701                         AGUAVIVA                 AGUAVIVA                 00066SANTA BARBARA            00000                                                              4456620022 0030 
4400401001   00017010006700000            4456610001 0013    20221231 01001   0001701                         AGUAVIVA                 AGUAVIVA                 00067CORTES DE ARAGON         00000                                                              4456610001 0013 
4400401001   00017010006800000            4456610001 0003    20221231 01001   0001701                         AGUAVIVA                 AGUAVIVA                 00068DIPUTACION PROVINCIAL    00000                                                              4456610001 0003 
4400401001   00017010007200000            4456610001 0005    20221231 01001   0001701                         AGUAVIVA                 AGUAVIVA                 00072JUSTICIA DE ARAGON       00000                                                              4456610001 0005 
4400401001   00017010007300000            4456610001 0017    20221231 01001   0001701                         AGUAVIVA                 AGUAVIVA                 00073SANTISIMO MISTERIO       00000                                                              4456610001 0017 
4400401001   00017010007300000            4456620002 0012    20221231 01001   0001701                         AGUAVIVA                 AGUAVIVA                 00073SANTISIMO MISTERIO       00000                                                              4456620002 0012 
4400401001   00017010007400000            4456620004 0004    20221231 01001   0001701                         AGUAVIVA                 AGUAVIVA                 00074TERUEL                   00000                                                              4456620004 0004 
4400401001   00017010007500000            4456610003 9999    20221231 01001   0001701                         AGUAVIVA                 AGUAVIVA                 00075PARRAS DE CASTELLOTE     00000                                                              4456610003 9999 
4400401001   00017010007500000            4456620020 0020    20221231 01001   0001701                         AGUAVIVA                 AGUAVIVA                 00075PARRAS DE CASTELLOTE     00000                                                              4456620020 0020 
4400401001   00017010007600000            4456620002 0006    20221231 01001   0001701                         AGUAVIVA                 AGUAVIVA                 00076TRAS IGLESIA             00000                                                              4456620002 0006 
4400401001   00017010008000000            4456610007 0007    20221231 01001   0001701                         AGUAVIVA                 AGUAVIVA                 00080DEPOSITO                 00000                                                              4456610007 0007 
4400401001   00017010008000000            4456620002 0002    20221231 01001   0001701                         AGUAVIVA                 AGUAVIVA                 00080DEPOSITO                 00000                                                              4456620002 0002 
4400401001   00017990006500000            4456620006 0006    20221231 01001   0001799                         AGUAVIVA                 *DISEMINADO*             00065MASIA JOACO              00000                                                              4456620006 0006 
4400401001   00017990007100000            4456610001 0001    20221231 01001   0001799                         AGUAVIVA                 *DISEMINADO*             00071PARTIDA CABEZO           00000                                                              4456610001 0001 
4400401001   00017990008100000            4456600000S0000S   20221231 01001   0001799                         AGUAVIVA                 *DISEMINADO*             00081VALLETA GINER            00000                                                              4456600000S0000S
4400401001   00017990008200000            4456600000S0000S   20221231 01001   0001799                         AGUAVIVA                 *DISEMINADO*             00082HUERTA NUEVA             00000                                                              4456600000S0000S
4400501001   00017010000100000            4415610001 0009    20221231 01001   0001701                         AGUILAR DEL ALFAMBRA     AGUILAR DEL ALFAMBRA     00001ALTA                     00000                                                              4415610001 0009 
4400501001   00017010000100000            4415620012 0030    20221231 01001   0001701                         AGUILAR DEL ALFAMBRA     AGUILAR DEL ALFAMBRA     00001ALTA                     00000                                                              4415620012 0030 
4400501001   00017010000200000            4415610001 0001    20221231 01001   0001701                         AGUILAR DEL ALFAMBRA     AGUILAR DEL ALFAMBRA     00002AYUNTAMIENTO             00000                                                              4415610001 0001 
4400501001   00017010000300000            4415610001 0001    20221231 01001   0001701                         AGUILAR DEL ALFAMBRA     AGUILAR DEL ALFAMBRA     00003BAJA                     00000                                                              4415610001 0001 
4400501001   00017010000300000            4415620002 0014    20221231 01001   0001701                         AGUILAR DEL ALFAMBRA     AGUILAR DEL ALFAMBRA     00003BAJA                     00000                                                              4415620002 0014 
4400501001   00017010000400000            4415610003 0003    20221231 01001   0001701                         AGUILAR DEL ALFAMBRA     AGUILAR DEL ALFAMBRA     00004BARRANCO                 00000                                                              4415610003 0003 
4400501001   00017010000400000            4415620004 0018    20221231 01001   0001701                         AGUILAR DEL ALFAMBRA     AGUILAR DEL ALFAMBRA     00004BARRANCO                 00000                                                              4415620004 0018 
4400501001   00017010000500000            4415620006 0006    20221231 01001   0001701                         AGUILAR DEL ALFAMBRA     AGUILAR DEL ALFAMBRA     00005CARRETERA                00000                                                              4415620006 0006 
4400501001   00017010000600000            4415610019 0019    20221231 01001   0001701                         AGUILAR DEL ALFAMBRA     AGUILAR DEL ALFAMBRA     00006CENTRO                   00000                                                              4415610019 0019 
4400501001   00017010000800000            4415610001 0001    20221231 01001   0001701                         AGUILAR DEL ALFAMBRA     AGUILAR DEL ALFAMBRA     00008IGLESIA (LA)             00000                                                              4415610001 0001 
4400501001   00017010000800000            4415620004 0016    20221231 01001   0001701                         AGUILAR DEL ALFAMBRA     AGUILAR DEL ALFAMBRA     00008IGLESIA (LA)             00000                                                              4415620004 0016 
4400501001   00017010000900000            4415610001 0005    20221231 01001   0001701                         AGUILAR DEL ALFAMBRA     AGUILAR DEL ALFAMBRA     00009MAYOR                    00000                                                              4415610001 0005 
4400501001   00017010000900000            4415620012 0018    20221231 01001   0001701                         AGUILAR DEL ALFAMBRA     AGUILAR DEL ALFAMBRA     00009MAYOR                    00000                                                              4415620012 0018 
4400501001   00017010001000000            4415610001 0001    20221231 01001   0001701                         AGUILAR DEL ALFAMBRA     AGUILAR DEL ALFAMBRA     00010MERA                     00000                                                              4415610001 0001 
4400501001   00017010001000000            4415620004 0008    20221231 01001   0001701                         AGUILAR DEL ALFAMBRA     AGUILAR DEL ALFAMBRA     00010MERA                     00000                                                              4415620004 0008 
4400501001   00017010001100000            4415610999 9999    20221231 01001   0001701                         AGUILAR DEL ALFAMBRA     AGUILAR DEL ALFAMBRA     00011MUÑOZ                    00000                                                              4415610999 9999 
4400501001   00017010001100000            4415620002 0004    20221231 01001   0001701                         AGUILAR DEL ALFAMBRA     AGUILAR DEL ALFAMBRA     00011MUÑOZ                    00000                                                              4415620002 0004 
4400501001   00017010001200000            4415610001 0031    20221231 01001   0001701                         AGUILAR DEL ALFAMBRA     AGUILAR DEL ALFAMBRA     00012PEREZ                    00000                                                              4415610001 0031 
4400501001   00017010001300000            4415610005 0005    20221231 01001   0001701                         AGUILAR DEL ALFAMBRA     AGUILAR DEL ALFAMBRA     00013POCICO                   00000                                                              4415610005 0005 
4400501001   00017010001300000            4415620006 0006    20221231 01001   0001701                         AGUILAR DEL ALFAMBRA     AGUILAR DEL ALFAMBRA     00013POCICO                   00000                                                              4415620006 0006 
4400501001   00017010001400000            4415610001 0005    20221231 01001   0001701                         AGUILAR DEL ALFAMBRA     AGUILAR DEL ALFAMBRA     00014SABUCO                   00000                                                              4415610001 0005 
4400501001   00017010001400000            4415620002 0020    20221231 01001   0001701                         AGUILAR DEL ALFAMBRA     AGUILAR DEL ALFAMBRA     00014SABUCO                   00000                                                              4415620002 0020 
4400501001   00017990001700000            4415619999 9999    20221231 01001   0001799                         AGUILAR DEL ALFAMBRA     *DISEMINADO*             00017MASIA CERRADO GALINDO    00000                                                              4415619999 9999 
4400501001   00017990001800000            4415600000S0000S   20221231 01001   0001799                         AGUILAR DEL ALFAMBRA     *DISEMINADO*             00018CAMINO SOLANA            00000                                                              4415600000S0000S
4400601001   00017010000200000            4454910001 0013    20221231 01001   0001701                         ALACON                   ALACON                   00002SAN ANTONIO              00000                                                              4454910001 0013 
4400601001   00017010000200000            4454920012 0040    20221231 01001   0001701                         ALACON                   ALACON                   00002SAN ANTONIO              00000                                                              4454920012 0040 
4400601001   00017010000500000            4454910005 0011    20221231 01001   0001701                         ALACON                   ALACON                   00005CARCEL (LA)              00000                                                              4454910005 0011 
4400601001   00017010000500000            4454920002 0006    20221231 01001   0001701                         ALACON                   ALACON                   00005CARCEL (LA)              00000                                                              4454920002 0006 
4400601001   00017010001000000            4454910001 0003    20221231 01001   0001701                         ALACON                   ALACON                   00010TERUEL                   00000                                                              4454910001 0003 
4400601001   00017010001000000            4454920006 0014    20221231 01001   0001701                         ALACON                   ALACON                   00010TERUEL                   00000                                                              4454920006 0014 
4400601001   00017010001500000            4454910007 0007    20221231 01001   0001701                         ALACON                   ALACON                   00015HORNO ALTO               00000                                                              4454910007 0007 
4400601001   00017010001500000            4454920008 0010    20221231 01001   0001701                         ALACON                   ALACON                   00015HORNO ALTO               00000                                                              4454920008 0010 
4400601001   00017010001800000            4454910005 0041    20221231 01001   0001701                         ALACON                   ALACON                   00018HOSPITAL                 00000                                                              4454910005 0041 
4400601001   00017010001800000            4454920002 0012    20221231 01001   0001701                         ALACON                   ALACON                   00018HOSPITAL                 00000                                                              4454920002 0012 
4400601001   00017010001900000            4454910001 0019    20221231 01001   0001701                         ALACON                   ALACON                   00019PLANILLO                 00000                                                              4454910001 0019 
4400601001   00017010001900000            4454920008 0020    20221231 01001   0001701                         ALACON                   ALACON                   00019PLANILLO                 00000                                                              4454920008 0020 
4400601001   00017010002000000            4454910001 0003    20221231 01001   0001701                         ALACON                   ALACON                   00020NUEVA                    00000                                                              4454910001 0003 
4400601001   00017010002000000            4454920002 0006    20221231 01001   0001701                         ALACON                   ALACON                   00020NUEVA                    00000                                                              4454920002 0006 
4400601001   00017010002200000            4454910013 0015    20221231 01001   0001701                         ALACON                   ALACON                   00022CALDERETA                00000                                                              4454910013 0015 
4400601001   00017010002200000            4454920004 0008    20221231 01001   0001701                         ALACON                   ALACON                   00022CALDERETA                00000                                                              4454920004 0008 
4400601001   00017010002300000            4454910003 0015    20221231 01001   0001701                         ALACON                   ALACON                   00023HORNO BAJO               00000                                                              4454910003 0015 
4400601001   00017010002300000            4454920002 0010    20221231 01001   0001701                         ALACON                   ALACON                   00023HORNO BAJO               00000                                                              4454920002 0010 
4400601001   00017010002900000            4454910003 0003    20221231 01001   0001701                         ALACON                   ALACON                   00029SANTA BARBARA            00000                                                              4454910003 0003 
4400601001   00017010003200000            4454910003 0031    20221231 01001   0001701                         ALACON                   ALACON                   00032SAN ROQUE                00000                                                              4454910003 0031 
4400601001   00017010003200000            4454920002 0030    20221231 01001   0001701                         ALACON                   ALACON                   00032SAN ROQUE                00000                                                              4454920002 0030 
4400601001   00017010003300000            4454910001 0019    20221231 01001   0001701                         ALACON                   ALACON                   00033CALVARIO                 00000                                                              4454910001 0019 
4400601001   00017010003300000            4454920002 0030    20221231 01001   0001701                         ALACON                   ALACON                   00033CALVARIO                 00000                                                              4454920002 0030 
4400601001   00017010003400000            4454910005 0025    20221231 01001   0001701                         ALACON                   ALACON                   00034SAN MIGUEL               00000                                                              4454910005 0025 
4400601001   00017010003400000            4454920002 0070    20221231 01001   0001701                         ALACON                   ALACON                   00034SAN MIGUEL               00000                                                              4454920002 0070 
4400601001   00017010003500000            4454910001 0009    20221231 01001   0001701                         ALACON                   ALACON                   00035DIPUTACION               00000                                                              4454910001 0009 
4400601001   00017010003600000            4454900000S0000S   20221231 01001   0001701                         ALACON                   ALACON                   00036CARRETERA                00000                                                              4454900000S0000S
4400601001   00017010003600000            4454910011 0011    20221231 01001   0001701                         ALACON                   ALACON                   00036CARRETERA                00000                                                              4454910011 0011 
4400601001   00017010003600000            4454920002 0026    20221231 01001   0001701                         ALACON                   ALACON                   00036CARRETERA                00000                                                              4454920002 0026 
4400601001   00017010003700000            4454910001 0015    20221231 01001   0001701                         ALACON                   ALACON                   00037HERRERIA (LA)            00000                                                              4454910001 0015 
4400601001   00017010003700000            4454920006 0034    20221231 01001   0001701                         ALACON                   ALACON                   00037HERRERIA (LA)            00000                                                              4454920006 0034 
4400601001   00017010003800000            4454910001 0027    20221231 01001   0001701                         ALACON                   ALACON                   00038MIGUEL FLETA             00000                                                              4454910001 0027 
4400601001   00017010003800000            4454920002 0030    20221231 01001   0001701                         ALACON                   ALACON                   00038MIGUEL FLETA             00000                                                              4454920002 0030 
4400601001   00017010003900000            4454910001 0013    20221231 01001   0001701                         ALACON                   ALACON                   00039MAYOR                    00000                                                              4454910001 0013 
4400601001   00017010003900000            4454920002 0062    20221231 01001   0001701                         ALACON                   ALACON                   00039MAYOR                    00000                                                              4454920002 0062 
4400601001   00017010004000000            4454910003 0003    20221231 01001   0001701                         ALACON                   ALACON                   00040ARAGON                   00000                                                              4454910003 0003 
4400601001   00017010004000000            4454920004 0004    20221231 01001   0001701                         ALACON                   ALACON                   00040ARAGON                   00000                                                              4454920004 0004 
4400601001   00017010004100000            4454910001 0029    20221231 01001   0001701                         ALACON                   ALACON                   00041IGLESIA (LA)             00000                                                              4454910001 0029 
4400601001   00017010004100000            4454920006 0014    20221231 01001   0001701                         ALACON                   ALACON                   00041IGLESIA (LA)             00000                                                              4454920006 0014 
4400601001   00017010004200000            4454910001 0007    20221231 01001   0001701                         ALACON                   ALACON                   00042AYUNTAMIENTO             00000                                                              4454910001 0007 
4400601001   00017010004200000            4454920002 0008    20221231 01001   0001701                         ALACON                   ALACON                   00042AYUNTAMIENTO             00000                                                              4454920002 0008 
4400601001   00017010004300000            4454920006 0006    20221231 01001   0001701                         ALACON                   ALACON                   00043COSTERILLA               00000                                                              4454920006 0006 
4400601001   00017010004400000            4454910001 9999    20221231 01001   0001701                         ALACON                   ALACON                   00044CABEZO LOS GRILLOS       00000                                                              4454910001 9999 
4400601001   00017010004400000            4454920012 0012    20221231 01001   0001701                         ALACON                   ALACON                   00044CABEZO LOS GRILLOS       00000                                                              4454920012 0012 
4400601001   00017010004500000            4454900000S0000S   20221231 01001   0001701                         ALACON                   ALACON                   00045EXTRAMUROS               00000                                                              4454900000S0000S
4400601001   00017010004500000            4454919999 9999    20221231 01001   0001701                         ALACON                   ALACON                   00045EXTRAMUROS               00000                                                              4454919999 9999 
4400601001   00017010004500000            4454920002 0002    20221231 01001   0001701                         ALACON                   ALACON                   00045EXTRAMUROS               00000                                                              4454920002 0002 
4400601001   00017010004800000            4454910021 0021    20221231 01001   0001701                         ALACON                   ALACON                   00048REPLEGADOR               00000                                                              4454910021 0021 
4400601001   00017010005000000            4454910003 0003    20221231 01001   0001701                         ALACON                   ALACON                   00050VADO                     00000                                                              4454910003 0003 
4400601001   00017010005100000            4454910001 0001    20221231 01001   0001701                         ALACON                   ALACON                   00051PRINCIPE DE ASTURIAS     00000                                                              4454910001 0001 
4400601001   00017010005100000            4454920014 0014    20221231 01001   0001701                         ALACON                   ALACON                   00051PRINCIPE DE ASTURIAS     00000                                                              4454920014 0014 
4400701001   00017010000200000            4439510005 0025    20221231 01001   0001701                         ALBA                     ALBA                     00002CORTIJO                  00000                                                              4439510005 0025 
4400701001   00017010000200000            4439520006 0008    20221231 01001   0001701                         ALBA                     ALBA                     00002CORTIJO                  00000                                                              4439520006 0008 
4400701001   00017010000600000            4439510001 0003    20221231 01001   0001701                         ALBA                     ALBA                     00006PILAR                    00000                                                              4439510001 0003 
4400701001   00017010000600000            4439520006 0008    20221231 01001   0001701                         ALBA                     ALBA                     00006PILAR                    00000                                                              4439520006 0008 
4400701001   00017010001200000            4439510001 0025    20221231 01001   0001701                         ALBA                     ALBA                     00012PADRE MAZON              00000                                                              4439510001 0025 
4400701001   00017010001200000            4439520002 0032    20221231 01001   0001701                         ALBA                     ALBA                     00012PADRE MAZON              00000                                                              4439520002 0032 
4400701001   00017010001300000            4439510005 0039    20221231 01001   0001701                         ALBA                     ALBA                     00013COSTERA                  00000                                                              4439510005 0039 
4400701001   00017010001300000            4439520002 0028    20221231 01001   0001701                         ALBA                     ALBA                     00013COSTERA                  00000                                                              4439520002 0028 
4400701001   00017010001400000            4439510001 0075    20221231 01001   0001701                         ALBA                     ALBA                     00014SAN FRANCISCO            00000                                                              4439510001 0075 
4400701001   00017010001400000            4439520010 0014    20221231 01001   0001701                         ALBA                     ALBA                     00014SAN FRANCISCO            00000                                                              4439520010 0014 
4400701001   00017010001500000            4439510003 0003    20221231 01001   0001701                         ALBA                     ALBA                     00015PURISIMA (DE LA)         00000                                                              4439510003 0003 
4400701001   00017010001500000            4439520002 0020    20221231 01001   0001701                         ALBA                     ALBA                     00015PURISIMA (DE LA)         00000                                                              4439520002 0020 
4400701001   00017010001700000            4439510001 0001    20221231 01001   0001701                         ALBA                     ALBA                     00017HORNO                    00000                                                              4439510001 0001 
4400701001   00017010001800000            4439510005 0023    20221231 01001   0001701                         ALBA                     ALBA                     00018AYUNTAMIENTO             00000                                                              4439510005 0023 
4400701001   00017010001800000            4439520002 0024    20221231 01001   0001701                         ALBA                     ALBA                     00018AYUNTAMIENTO             00000                                                              4439520002 0024 
4400701001   00017010001900000            4439510001 0039    20221231 01001   0001701                         ALBA                     ALBA                     00019ERAS (LAS)               00000                                                              4439510001 0039 
4400701001   00017010001900000            4439520002 0046    20221231 01001   0001701                         ALBA                     ALBA                     00019ERAS (LAS)               00000                                                              4439520002 0046 
4400701001   00017010002200000            4439510003 0029    20221231 01001   0001701                         ALBA                     ALBA                     00022BALSA                    00000                                                              4439510003 0029 
4400701001   00017010002200000            4439520002 0028    20221231 01001   0001701                         ALBA                     ALBA                     00022BALSA                    00000                                                              4439520002 0028 
4400701001   00017010002300000            4439510001 0067    20221231 01001   0001701                         ALBA                     ALBA                     00023CASTILLO                 00000                                                              4439510001 0067 
4400701001   00017010002300000            4439520002 0052    20221231 01001   0001701                         ALBA                     ALBA                     00023CASTILLO                 00000                                                              4439520002 0052 
4400701001   00017010002500000            4439510001 0067    20221231 01001   0001701                         ALBA                     ALBA                     00025FUENTE                   00000                                                              4439510001 0067 
4400701001   00017010002500000            4439520004 0060    20221231 01001   0001701                         ALBA                     ALBA                     00025FUENTE                   00000                                                              4439520004 0060 
4400701001   00017010002600000            4439510001 0017    20221231 01001   0001701                         ALBA                     ALBA                     00026RAMON SANCHEZ (DON)      00000                                                              4439510001 0017 
4400701001   00017010002600000            4439520002 0014    20221231 01001   0001701                         ALBA                     ALBA                     00026RAMON SANCHEZ (DON)      00000                                                              4439520002 0014 
4400801001   00017010000100000            4454010001 0017    20221231 01001   0001701                         ALBALATE DEL ARZOBISPO   ALBALATE DEL ARZOBISPO   00001ARAGON                   00000                                                              4454010001 0017 
4400801001   00017010000100000            4454020004 0018    20221231 01001   0001701                         ALBALATE DEL ARZOBISPO   ALBALATE DEL ARZOBISPO   00001ARAGON                   00000                                                              4454020004 0018 
4400801002   00017010000200000            4454010001 0019    20221231 01002   0001701                         ALBALATE DEL ARZOBISPO   ALBALATE DEL ARZOBISPO   00002ARTAL                    00000                                                              4454010001 0019 
4400801001   00017010000200000            4454020010 0030    20221231 01001   0001701                         ALBALATE DEL ARZOBISPO   ALBALATE DEL ARZOBISPO   00002ARTAL                    00000                                                              4454020010 0030 
4400801001   00017010000300000            4454010003 0035    20221231 01001   0001701                         ALBALATE DEL ARZOBISPO   ALBALATE DEL ARZOBISPO   00003CONCEPCION               00000                                                              4454010003 0035 
4400801001   00017010000300000            4454020004 0036    20221231 01001   0001701                         ALBALATE DEL ARZOBISPO   ALBALATE DEL ARZOBISPO   00003CONCEPCION               00000                                                              4454020004 0036 
4400801002   00017010000500000            4454010001 0019    20221231 01002   0001701                         ALBALATE DEL ARZOBISPO   ALBALATE DEL ARZOBISPO   00005CASTILLO                 00000                                                              4454010001 0019 
4400801002   00017010000500000            4454020002 0026    20221231 01002   0001701                         ALBALATE DEL ARZOBISPO   ALBALATE DEL ARZOBISPO   00005CASTILLO                 00000                                                              4454020002 0026 
4400801001   00017010000600000            4454010001 0065    20221231 01001   0001701                         ALBALATE DEL ARZOBISPO   ALBALATE DEL ARZOBISPO   00006CHURVILLA                00000                                                              4454010001 0065 
4400801002   00017010000600000            4454020002 0062    20221231 01002   0001701                         ALBALATE DEL ARZOBISPO   ALBALATE DEL ARZOBISPO   00006CHURVILLA                00000                                                              4454020002 0062 
4400801001   00017010000700000            4454010001 0043    20221231 01001   0001701                         ALBALATE DEL ARZOBISPO   ALBALATE DEL ARZOBISPO   00007DOCTOR BARINGO           00000                                                              4454010001 0043 
4400801001   00017010000700000            4454020002 0024    20221231 01001   0001701                         ALBALATE DEL ARZOBISPO   ALBALATE DEL ARZOBISPO   00007DOCTOR BARINGO           00000                                                              4454020002 0024 
4400801001   00017010000800000            4454010003 0017    20221231 01001   0001701                         ALBALATE DEL ARZOBISPO   ALBALATE DEL ARZOBISPO   00008GALAN BERGUA             00000                                                              4454010003 0017 
4400801001   00017010000800000            4454020008 0030    20221231 01001   0001701                         ALBALATE DEL ARZOBISPO   ALBALATE DEL ARZOBISPO   00008GALAN BERGUA             00000                                                              4454020008 0030 
4400801001   00017010000900000            4454010001 0019    20221231 01001   0001701                         ALBALATE DEL ARZOBISPO   ALBALATE DEL ARZOBISPO   00009PEDRO GIL                00000                                                              4454010001 0019 
4400801001   00017010000900000            4454020004 0010    20221231 01001   0001701                         ALBALATE DEL ARZOBISPO   ALBALATE DEL ARZOBISPO   00009PEDRO GIL                00000                                                              4454020004 0010 
4400801001   00017010001000000            4454010001 0065A   20221231 01001   0001701                         ALBALATE DEL ARZOBISPO   ALBALATE DEL ARZOBISPO   00010HUESCA (DE)              00000                                                              4454010001 0065A
4400801001   00017010001000000            4454020002 0092    20221231 01001   0001701                         ALBALATE DEL ARZOBISPO   ALBALATE DEL ARZOBISPO   00010HUESCA (DE)              00000                                                              4454020002 0092 
4400801002   00017010001100000            4454020008 0012    20221231 01002   0001701                         ALBALATE DEL ARZOBISPO   ALBALATE DEL ARZOBISPO   00011JESUS                    00000                                                              4454020008 0012 
4400801001   00017010001200000            4454010001 0011    20221231 01001   0001701                         ALBALATE DEL ARZOBISPO   ALBALATE DEL ARZOBISPO   00012PASCUAL LAZARO           00000                                                              4454010001 0011 
4400801001   00017010001200000            4454020002 0002    20221231 01001   0001701                         ALBALATE DEL ARZOBISPO   ALBALATE DEL ARZOBISPO   00012PASCUAL LAZARO           00000                                                              4454020002 0002 
4400801002   00017010001300000            4454010001 0075    20221231 01002   0001701                         ALBALATE DEL ARZOBISPO   ALBALATE DEL ARZOBISPO   00013MUNIESA                  00000                                                              4454010001 0075 
4400801001   00017010001300000            4454020002 0026    20221231 01001   0001701                         ALBALATE DEL ARZOBISPO   ALBALATE DEL ARZOBISPO   00013MUNIESA                  00000                                                              4454020002 0026 
4400801002   00017010001300000            4454020030 0120    20221231 01002   0001701                         ALBALATE DEL ARZOBISPO   ALBALATE DEL ARZOBISPO   00013MUNIESA                  00000                                                              4454020030 0120 
4400801002   00017010001400000            4454010001 0029    20221231 01002   0001701                         ALBALATE DEL ARZOBISPO   ALBALATE DEL ARZOBISPO   00014PINTOR GARATE (DEL)      00000                                                              4454010001 0029 
4400801001   00017010001400000            4454010051 0157    20221231 01001   0001701                         ALBALATE DEL ARZOBISPO   ALBALATE DEL ARZOBISPO   00014PINTOR GARATE (DEL)      00000                                                              4454010051 0157 
4400801002   00017010001400000            4454020002 0016    20221231 01002   0001701                         ALBALATE DEL ARZOBISPO   ALBALATE DEL ARZOBISPO   00014PINTOR GARATE (DEL)      00000                                                              4454020002 0016 
4400801001   00017010001400000            4454020026 0082    20221231 01001   0001701                         ALBALATE DEL ARZOBISPO   ALBALATE DEL ARZOBISPO   00014PINTOR GARATE (DEL)      00000                                                              4454020026 0082 
4400801001   00017010001500000            4454010001 0013    20221231 01001   0001701                         ALBALATE DEL ARZOBISPO   ALBALATE DEL ARZOBISPO   00015PROFESOR SAURAS          00000                                                              4454010001 0013 
4400801002   00017010001500000            4454020004 0024    20221231 01002   0001701                         ALBALATE DEL ARZOBISPO   ALBALATE DEL ARZOBISPO   00015PROFESOR SAURAS          00000                                                              4454020004 0024 
4400801001   00017010001600000            4454010001 0019    20221231 01001   0001701                         ALBALATE DEL ARZOBISPO   ALBALATE DEL ARZOBISPO   00016CONVENTO (DEL)           00000                                                              4454010001 0019 
4400801001   00017010001600000            4454020004 0018    20221231 01001   0001701                         ALBALATE DEL ARZOBISPO   ALBALATE DEL ARZOBISPO   00016CONVENTO (DEL)           00000                                                              4454020004 0018 
4400801002   00017010001700000            4454010001 0075    20221231 01002   0001701                         ALBALATE DEL ARZOBISPO   ALBALATE DEL ARZOBISPO   00017SAN BARTOLOME            00000                                                              4454010001 0075 
4400801002   00017010001700000            4454020002 0026    20221231 01002   0001701                         ALBALATE DEL ARZOBISPO   ALBALATE DEL ARZOBISPO   00017SAN BARTOLOME            00000                                                              4454020002 0026 
4400801001   00017010001800000            4454010001 0043    20221231 01001   0001701                         ALBALATE DEL ARZOBISPO   ALBALATE DEL ARZOBISPO   00018SAN FRANCISCO            00000                                                              4454010001 0043 
4400801001   00017010001800000            4454020006 0048    20221231 01001   0001701                         ALBALATE DEL ARZOBISPO   ALBALATE DEL ARZOBISPO   00018SAN FRANCISCO            00000                                                              4454020006 0048 
4400801002   00017010001900000            4454010001 0005    20221231 01002   0001701                         ALBALATE DEL ARZOBISPO   ALBALATE DEL ARZOBISPO   00019TERUEL (DE)              00000                                                              4454010001 0005 
4400801001   00017010001900000            4454010007 0025    20221231 01001   0001701                         ALBALATE DEL ARZOBISPO   ALBALATE DEL ARZOBISPO   00019TERUEL (DE)              00000                                                              4454010007 0025 
4400801001   00017010001900000            4454020002 0018    20221231 01001   0001701                         ALBALATE DEL ARZOBISPO   ALBALATE DEL ARZOBISPO   00019TERUEL (DE)              00000                                                              4454020002 0018 
4400801001   00017010002000000            4454010009 0019    20221231 01001   0001701                         ALBALATE DEL ARZOBISPO   ALBALATE DEL ARZOBISPO   00020VOLUNTARIO               00000                                                              4454010009 0019 
4400801001   00017010002000000            4454020002 0020    20221231 01001   0001701                         ALBALATE DEL ARZOBISPO   ALBALATE DEL ARZOBISPO   00020VOLUNTARIO               00000                                                              4454020002 0020 
4400801001   00017010002100000            4454010001 0041    20221231 01001   0001701                         ALBALATE DEL ARZOBISPO   ALBALATE DEL ARZOBISPO   00021ZARAGOZA (DE)            00000                                                              4454010001 0041 
4400801001   00017010002100000            4454020004 0014    20221231 01001   0001701                         ALBALATE DEL ARZOBISPO   ALBALATE DEL ARZOBISPO   00021ZARAGOZA (DE)            00000                                                              4454020004 0014 
4400801002   00017010002200000            4454010003 0027    20221231 01002   0001701                         ALBALATE DEL ARZOBISPO   ALBALATE DEL ARZOBISPO   00022CANTARERIAS              00000                                                              4454010003 0027 
4400801002   00017010002200000            4454020008 0068    20221231 01002   0001701                         ALBALATE DEL ARZOBISPO   ALBALATE DEL ARZOBISPO   00022CANTARERIAS              00000                                                              4454020008 0068 
4400801002   00017010002300000            4454010001 0001    20221231 01002   0001701                         ALBALATE DEL ARZOBISPO   ALBALATE DEL ARZOBISPO   00023IGLESIA                  00000                                                              4454010001 0001 
4400801002   00017010002300000            4454020002 0006    20221231 01002   0001701                         ALBALATE DEL ARZOBISPO   ALBALATE DEL ARZOBISPO   00023IGLESIA                  00000                                                              4454020002 0006 
4400801002   00017010002400000            4454010001 0013    20221231 01002   0001701                         ALBALATE DEL ARZOBISPO   ALBALATE DEL ARZOBISPO   00024HORNO                    00000                                                              4454010001 0013 
4400801002   00017010002400000            4454020002 0016    20221231 01002   0001701                         ALBALATE DEL ARZOBISPO   ALBALATE DEL ARZOBISPO   00024HORNO                    00000                                                              4454020002 0016 
4400801002   00017010002500000            4454010001 0013    20221231 01002   0001701                         ALBALATE DEL ARZOBISPO   ALBALATE DEL ARZOBISPO   00025MAYOR                    00000                                                              4454010001 0013 
4400801002   00017010002500000            4454020004 0014    20221231 01002   0001701                         ALBALATE DEL ARZOBISPO   ALBALATE DEL ARZOBISPO   00025MAYOR                    00000                                                              4454020004 0014 
4400801002   00017010002600000            4454010001 0115    20221231 01002   0001701                         ALBALATE DEL ARZOBISPO   ALBALATE DEL ARZOBISPO   00026TREMEDAL                 00000                                                              4454010001 0115 
4400801002   00017010002600000            4454020002 0126    20221231 01002   0001701                         ALBALATE DEL ARZOBISPO   ALBALATE DEL ARZOBISPO   00026TREMEDAL                 00000                                                              4454020002 0126 
4400801002   00017010002700000            4454010001 0055    20221231 01002   0001701                         ALBALATE DEL ARZOBISPO   ALBALATE DEL ARZOBISPO   00027MAZAS                    00000                                                              4454010001 0055 
4400801002   00017010002700000            4454020002 0022    20221231 01002   0001701                         ALBALATE DEL ARZOBISPO   ALBALATE DEL ARZOBISPO   00027MAZAS                    00000                                                              4454020002 0022 
4400801002   00017010002800000            4454010007 0007    20221231 01002   0001701                         ALBALATE DEL ARZOBISPO   ALBALATE DEL ARZOBISPO   00028MESON                    00000                                                              4454010007 0007 
4400801002   00017010002800000            4454020002 0002    20221231 01002   0001701                         ALBALATE DEL ARZOBISPO   ALBALATE DEL ARZOBISPO   00028MESON                    00000                                                              4454020002 0002 
4400801002   00017010002900000            4454010001 0003    20221231 01002   0001701                         ALBALATE DEL ARZOBISPO   ALBALATE DEL ARZOBISPO   00029RIPOLLES                 00000                                                              4454010001 0003 
4400801002   00017010002900000            4454020002 0014    20221231 01002   0001701                         ALBALATE DEL ARZOBISPO   ALBALATE DEL ARZOBISPO   00029RIPOLLES                 00000                                                              4454020002 0014 
4400801002   00017010003000000            4454010001 0021    20221231 01002   0001701                         ALBALATE DEL ARZOBISPO   ALBALATE DEL ARZOBISPO   00030ROSARIO                  00000                                                              4454010001 0021 
4400801002   00017010003000000            4454020006 0012    20221231 01002   0001701                         ALBALATE DEL ARZOBISPO   ALBALATE DEL ARZOBISPO   00030ROSARIO                  00000                                                              4454020006 0012 
4400801002   00017010003200000            4454010003 0017    20221231 01002   0001701                         ALBALATE DEL ARZOBISPO   ALBALATE DEL ARZOBISPO   00032SANCHO                   00000                                                              4454010003 0017 
4400801002   00017010003200000            4454020006 0016    20221231 01002   0001701                         ALBALATE DEL ARZOBISPO   ALBALATE DEL ARZOBISPO   00032SANCHO                   00000                                                              4454020006 0016 
4400801002   00017010003300000            4454010003 0033    20221231 01002   0001701                         ALBALATE DEL ARZOBISPO   ALBALATE DEL ARZOBISPO   00033SAURAS                   00000                                                              4454010003 0033 
4400801002   00017010003300000            4454020002 0020    20221231 01002   0001701                         ALBALATE DEL ARZOBISPO   ALBALATE DEL ARZOBISPO   00033SAURAS                   00000                                                              4454020002 0020 
4400801002   00017010003400000            4454010001 0061    20221231 01002   0001701                         ALBALATE DEL ARZOBISPO   ALBALATE DEL ARZOBISPO   00034BAJA                     00000                                                              4454010001 0061 
4400801002   00017010003400000            4454020002 0040    20221231 01002   0001701                         ALBALATE DEL ARZOBISPO   ALBALATE DEL ARZOBISPO   00034BAJA                     00000                                                              4454020002 0040 
4400801002   00017010003500000            4454020002 0002    20221231 01002   0001701                         ALBALATE DEL ARZOBISPO   ALBALATE DEL ARZOBISPO   00035CALDEREROS               00000                                                              4454020002 0002 
4400801002   00017010003700000            4454010005 0019    20221231 01002   0001701                         ALBALATE DEL ARZOBISPO   ALBALATE DEL ARZOBISPO   00037CURTO                    00000                                                              4454010005 0019 
4400801002   00017010003700000            4454020002 0006    20221231 01002   0001701                         ALBALATE DEL ARZOBISPO   ALBALATE DEL ARZOBISPO   00037CURTO                    00000                                                              4454020002 0006 
4400801002   00017010004000000            4454010003 0015    20221231 01002   0001701                         ALBALATE DEL ARZOBISPO   ALBALATE DEL ARZOBISPO   00040MOLINO                   00000                                                              4454010003 0015 
4400801002   00017010004000000            4454020016 0022    20221231 01002   0001701                         ALBALATE DEL ARZOBISPO   ALBALATE DEL ARZOBISPO   00040MOLINO                   00000                                                              4454020016 0022 
4400801002   00017010004100000            4454010003 0027    20221231 01002   0001701                         ALBALATE DEL ARZOBISPO   ALBALATE DEL ARZOBISPO   00041JOSE RIVERA              00000                                                              4454010003 0027 
4400801002   00017010004100000            4454020006 0024    20221231 01002   0001701                         ALBALATE DEL ARZOBISPO   ALBALATE DEL ARZOBISPO   00041JOSE RIVERA              00000                                                              4454020006 0024 
4400801002   00017010004200000            4454010001 0059    20221231 01002   0001701                         ALBALATE DEL ARZOBISPO   ALBALATE DEL ARZOBISPO   00042ROMA                     00000                                                              4454010001 0059 
4400801002   00017010004200000            4454020004 0070A   20221231 01002   0001701                         ALBALATE DEL ARZOBISPO   ALBALATE DEL ARZOBISPO   00042ROMA                     00000                                                              4454020004 0070A
4400801002   00017010004300000            4454010001 0035    20221231 01002   0001701                         ALBALATE DEL ARZOBISPO   ALBALATE DEL ARZOBISPO   00043ALFONSO ZAPATER          00000                                                              4454010001 0035 
4400801002   00017010004300000            4454020004 0014    20221231 01002   0001701                         ALBALATE DEL ARZOBISPO   ALBALATE DEL ARZOBISPO   00043ALFONSO ZAPATER          00000                                                              4454020004 0014 
4400801001   00017010004400000            4454020002 0008    20221231 01001   0001701                         ALBALATE DEL ARZOBISPO   ALBALATE DEL ARZOBISPO   00044GOYA                     00000                                                              4454020002 0008 
4400801002   00017010004500000            4454010007 0019    20221231 01002   0001701                         ALBALATE DEL ARZOBISPO   ALBALATE DEL ARZOBISPO   00045MOLINO DE LA SOCIEDAD    00000                                                              4454010007 0019 
4400801002   00017010004500000            4454020002 0016    20221231 01002   0001701                         ALBALATE DEL ARZOBISPO   ALBALATE DEL ARZOBISPO   00045MOLINO DE LA SOCIEDAD    00000                                                              4454020002 0016 
4400801001   00017010004600000            4454010005 0045    20221231 01001   0001701                         ALBALATE DEL ARZOBISPO   ALBALATE DEL ARZOBISPO   00046LATONEROS (LOS)          00000                                                              4454010005 0045 
4400801001   00017010004600000            4454020002 0032    20221231 01001   0001701                         ALBALATE DEL ARZOBISPO   ALBALATE DEL ARZOBISPO   00046LATONEROS (LOS)          00000                                                              4454020002 0032 
4400801001   00017010004700000            4454010001 0039    20221231 01001   0001701                         ALBALATE DEL ARZOBISPO   ALBALATE DEL ARZOBISPO   00047MORETILLA                00000                                                              4454010001 0039 
4400801001   00017010004700000            4454020004 0046    20221231 01001   0001701                         ALBALATE DEL ARZOBISPO   ALBALATE DEL ARZOBISPO   00047MORETILLA                00000                                                              4454020004 0046 
4400801001   00017010004800000            4454010019 0019    20221231 01001   0001701                         ALBALATE DEL ARZOBISPO   ALBALATE DEL ARZOBISPO   00048CUEVA GARITA (DE LA)     00000                                                              4454010019 0019 
4400801001   00017010004800000            4454020002 0002    20221231 01001   0001701                         ALBALATE DEL ARZOBISPO   ALBALATE DEL ARZOBISPO   00048CUEVA GARITA (DE LA)     00000                                                              4454020002 0002 
4400801002   00017010004900000            4454010001 0079    20221231 01002   0001701                         ALBALATE DEL ARZOBISPO   ALBALATE DEL ARZOBISPO   00049ANCHA                    00000                                                              4454010001 0079 
4400801002   00017010004900000            4454020002 0066    20221231 01002   0001701                         ALBALATE DEL ARZOBISPO   ALBALATE DEL ARZOBISPO   00049ANCHA                    00000                                                              4454020002 0066 
4400801002   00017010020100000            4454010001 0009    20221231 01002   0001701                         ALBALATE DEL ARZOBISPO   ALBALATE DEL ARZOBISPO   00201FILA (LA)                00000                                                              4454010001 0009 
4400801002   00017010020100000            4454020002 0028    20221231 01002   0001701                         ALBALATE DEL ARZOBISPO   ALBALATE DEL ARZOBISPO   00201FILA (LA)                00000                                                              4454020002 0028 
4400801002   00017010030200000            4454010005 0005    20221231 01002   0001701                         ALBALATE DEL ARZOBISPO   ALBALATE DEL ARZOBISPO   00302PALOMAR                  00000                                                              4454010005 0005 
4400801002   00017010030200000            4454020004 0010    20221231 01002   0001701                         ALBALATE DEL ARZOBISPO   ALBALATE DEL ARZOBISPO   00302PALOMAR                  00000                                                              4454020004 0010 
4400801001   00017010031200000            4454010001 0005    20221231 01001   0001701                         ALBALATE DEL ARZOBISPO   ALBALATE DEL ARZOBISPO   00312PALMERAS (LAS)           00000                                                              4454010001 0005 
4400801001   00017010031200000            4454020002 0002    20221231 01001   0001701                         ALBALATE DEL ARZOBISPO   ALBALATE DEL ARZOBISPO   00312PALMERAS (LAS)           00000                                                              4454020002 0002 
4400801001   00017990010200000            4454010007 0011    20221231 01001   0001799                         ALBALATE DEL ARZOBISPO   *DISEMINADO*             00102BAJO MARTIN (DEL)        00000                                                              4454010007 0011 
4400801001   00017990010200000            4454020004 0032    20221231 01001   0001799                         ALBALATE DEL ARZOBISPO   *DISEMINADO*             00102BAJO MARTIN (DEL)        00000                                                              4454020004 0032 
4400801001   00017990010300000            4454010021 0021    20221231 01001   0001799                         ALBALATE DEL ARZOBISPO   *DISEMINADO*             00103MORRONGO                 00000                                                              4454010021 0021 
4400801001   00017990010300000            4454020014 0020    20221231 01001   0001799                         ALBALATE DEL ARZOBISPO   *DISEMINADO*             00103MORRONGO                 00000                                                              4454020014 0020 
4400801001   00017990010400000            4454020020 0026    20221231 01001   0001799                         ALBALATE DEL ARZOBISPO   *DISEMINADO*             00104LECERA                   00000                                                              4454020020 0026 
4400801001   00017990010500000            4454010031 0033    20221231 01001   0001799                         ALBALATE DEL ARZOBISPO   *DISEMINADO*             00105VAL DE FERREROS          00000                                                              4454010031 0033 
4400801001   00017990010500000            4454020024 0034    20221231 01001   0001799                         ALBALATE DEL ARZOBISPO   *DISEMINADO*             00105VAL DE FERREROS          00000                                                              4454020024 0034 
4400801001   00017990010600000            4454010029 0029    20221231 01001   0001799                         ALBALATE DEL ARZOBISPO   *DISEMINADO*             00106OLIVAR (EL)              00000                                                              4454010029 0029 
4400801002   00017990020200000            4454010007 0009    20221231 01002   0001799                         ALBALATE DEL ARZOBISPO   *DISEMINADO*             00202FANDEGA (LA)             00000                                                              4454010007 0009 
4400801002   00017990020200000            4454020008 0012    20221231 01002   0001799                         ALBALATE DEL ARZOBISPO   *DISEMINADO*             00202FANDEGA (LA)             00000                                                              4454020008 0012 
4400801002   00017990020300000            4454010011 0013    20221231 01002   0001799                         ALBALATE DEL ARZOBISPO   *DISEMINADO*             00203MOLINO (EL)              00000                                                              4454010011 0013 
4400801001   00017990020400000            4454010015 0041    20221231 01001   0001799                         ALBALATE DEL ARZOBISPO   *DISEMINADO*             00204MURO (EL)                00000                                                              4454010015 0041 
4400801001   00017990020400000            4454020018A0038    20221231 01001   0001799                         ALBALATE DEL ARZOBISPO   *DISEMINADO*             00204MURO (EL)                00000                                                              4454020018A0038 
4400801002   00017990030100000            4454010001 9999    20221231 01002   0001799                         ALBALATE DEL ARZOBISPO   *DISEMINADO*             00301ANDORRA (DE)             00000                                                              4454010001 9999 
4400801002   00017990030100000            4454020006 0022    20221231 01002   0001799                         ALBALATE DEL ARZOBISPO   *DISEMINADO*             00301ANDORRA (DE)             00000                                                              4454020006 0022 
4400801002   00017990030300000            4454010005 0019    20221231 01002   0001799                         ALBALATE DEL ARZOBISPO   *DISEMINADO*             00303LASTRAS                  00000                                                              4454010005 0019 
4400801002   00017990030300000            4454020008 0020    20221231 01002   0001799                         ALBALATE DEL ARZOBISPO   *DISEMINADO*             00303LASTRAS                  00000                                                              4454020008 0020 
4400801002   00017990030400000            4454020022 0022    20221231 01002   0001799                         ALBALATE DEL ARZOBISPO   *DISEMINADO*             00304MARINA                   00000                                                              4454020022 0022 
4400801002   00017990030500000            4454020024 0024    20221231 01002   0001799                         ALBALATE DEL ARZOBISPO   *DISEMINADO*             00305ALBARES (LOS)            00000                                                              4454020024 0024 
4400801002   00017990030600000            4454020002 0002    20221231 01002   0001799                         ALBALATE DEL ARZOBISPO   *DISEMINADO*             00306FIGARAL BAJO             00000                                                              4454020002 0002 
4400801002   00017990030700000            4454020026 0026    20221231 01002   0001799                         ALBALATE DEL ARZOBISPO   *DISEMINADO*             00307VAL (LA)                 00000                                                              4454020026 0026 
4400801001   00017990031100000            4454010031 0033    20221231 01001   0001799                         ALBALATE DEL ARZOBISPO   *DISEMINADO*             00311ZARZA (LA)               00000                                                              4454010031 0033 
4400801001   00017990031100000            4454020030 0032    20221231 01001   0001799                         ALBALATE DEL ARZOBISPO   *DISEMINADO*             00311ZARZA (LA)               00000                                                              4454020030 0032 
4400801002   00017990031300000            4454010001 0001    20221231 01002   0001799                         ALBALATE DEL ARZOBISPO   *DISEMINADO*             00313MENDOLERAS (LAS)         00000                                                              4454010001 0001 
4400801002   00017990031400000            4454010003 0003    20221231 01002   0001799                         ALBALATE DEL ARZOBISPO   *DISEMINADO*             00314ESPARTOSA (LA)           00000                                                              4454010003 0003 
4400801002   00017990031400000            4454020002 0004    20221231 01002   0001799                         ALBALATE DEL ARZOBISPO   *DISEMINADO*             00314ESPARTOSA (LA)           00000                                                              4454020002 0004 
4400801001   00017990031500000            4454000000S0000S   20221231 01001   0001799                         ALBALATE DEL ARZOBISPO   *DISEMINADO*             00315SAN CRISTOBAL            00000                                                              4454000000S0000S
4400801002   00017990031600000            4454010001 0001    20221231 01002   0001799                         ALBALATE DEL ARZOBISPO   *DISEMINADO*             00316ALMOZARA                 00000                                                              4454010001 0001 
4400801002   00017990031700000            4454010001 0001    20221231 01002   0001799                         ALBALATE DEL ARZOBISPO   *DISEMINADO*             00317DEFESA                   00000                                                              4454010001 0001 
4400801002   00017990031800000            4454020004 0004    20221231 01002   0001799                         ALBALATE DEL ARZOBISPO   *DISEMINADO*             00318CALVARIO                 00000                                                              4454020004 0004 
4400801002   00017990031900000            4454010001 0001    20221231 01002   0001799                         ALBALATE DEL ARZOBISPO   *DISEMINADO*             00319SASO (EL)                00000                                                              4454010001 0001 
4400901001   00017010000100000            4410010001 0031    20221231 01001   0001701                         ALBARRACIN               ALBARRACIN               00001CHORRO                   00000                                                              4410010001 0031 
4400901001   00017010000100000            4410020002 0018    20221231 01001   0001701                         ALBARRACIN               ALBARRACIN               00001CHORRO                   00000                                                              4410020002 0018 
4400901001   00017010000500000            4410010001 0031    20221231 01001   0001701                         ALBARRACIN               ALBARRACIN               00005SAN ANTONIO              00000                                                              4410010001 0031 
4400901001   00017010000500000            4410020004 0020    20221231 01001   0001701                         ALBARRACIN               ALBARRACIN               00005SAN ANTONIO              00000                                                              4410020004 0020 
4400901001   00017010000600000            4410010007 0013    20221231 01001   0001701                         ALBARRACIN               ALBARRACIN               00006CARMEN                   00000                                                              4410010007 0013 
4400901001   00017010000600000            4410020002 0018    20221231 01001   0001701                         ALBARRACIN               ALBARRACIN               00006CARMEN                   00000                                                              4410020002 0018 
4400901001   00017010000700000            4410010001 0023    20221231 01001   0001701                         ALBARRACIN               ALBARRACIN               00007BEAS DE SEGURA           00000                                                              4410010001 0023 
4400901001   00017010000700000            4410020002 0002    20221231 01001   0001701                         ALBARRACIN               ALBARRACIN               00007BEAS DE SEGURA           00000                                                              4410020002 0002 
4400901001   00017010000800000            4410010001 0025    20221231 01001   0001701                         ALBARRACIN               ALBARRACIN               00008MEDIO                    00000                                                              4410010001 0025 
4400901001   00017010000800000            4410020004 0032    20221231 01001   0001701                         ALBARRACIN               ALBARRACIN               00008MEDIO                    00000                                                              4410020004 0032 
4400901001   00017010001000000            4410010001 0041    20221231 01001   0001701                         ALBARRACIN               ALBARRACIN               00010PELUI DERECHA            00000                                                              4410010001 0041 
4400901001   00017010001000000            4410020002 0028    20221231 01001   0001701                         ALBARRACIN               ALBARRACIN               00010PELUI DERECHA            00000                                                              4410020002 0028 
4400901001   00017010001300000            4410010001 0011    20221231 01001   0001701                         ALBARRACIN               ALBARRACIN               00013PELUI IZQUIERDA          00000                                                              4410010001 0011 
