3900101001 0200017010000500000            3959010047 0047    20221231 01001 020001701                         BUSTA (LA)               BUSTA (LA)               00005BARRIUCO                 00000                                                              3959010047 0047 
3900101001 0200017010000500000            3959020046 0050    20221231 01001 020001701                         BUSTA (LA)               BUSTA (LA)               00005BARRIUCO                 00000                                                              3959020046 0050 
3900101001 0200017010000600000            3959010001 0007    20221231 01001 020001701                         BUSTA (LA)               BUSTA (LA)               00006BAZUELO                  00000                                                              3959010001 0007 
3900101001 0200017010000600000            3959020002 0002    20221231 01001 020001701                         BUSTA (LA)               BUSTA (LA)               00006BAZUELO                  00000                                                              3959020002 0002 
3900101001 0200017010000900000            3959010009 0021    20221231 01001 020001701                         BUSTA (LA)               BUSTA (LA)               00009CARRERA                  00000                                                              3959010009 0021 
3900101001 0200017010000900000            3959020008 0022    20221231 01001 020001701                         BUSTA (LA)               BUSTA (LA)               00009CARRERA                  00000                                                              3959020008 0022 
3900101001 0200017010001600000            3959010023 0027    20221231 01001 020001701                         BUSTA (LA)               BUSTA (LA)               00016ESPINA (LA)              00000                                                              3959010023 0027 
3900101001 0200017010001800000            3959010029 0045    20221231 01001 020001701                         BUSTA (LA)               BUSTA (LA)               00018GESA                     00000                                                              3959010029 0045 
3900101001 0200017010001800000            3959020028 0040    20221231 01001 020001701                         BUSTA (LA)               BUSTA (LA)               00018GESA                     00000                                                              3959020028 0040 
3900101001 0200017010022100000            3959010051 0053    20221231 01001 020001701                         BUSTA (LA)               BUSTA (LA)               00221BUSTA (LA)               00000                                                              3959010051 0053 
3900101001 0200017010022100000            3959020052 0052    20221231 01001 020001701                         BUSTA (LA)               BUSTA (LA)               00221BUSTA (LA)               00000                                                              3959020052 0052 
3900101001 0100022010006800000            3952610041 0045    20221231 01001 010002201                         CIG㏊NZA                 CIG㏊NZA                 00068CIG㏊NZA                 00000                                                              3952610041 0045 
3900101001 0100022010006800000            3952620040 0048    20221231 01001 010002201                         CIG㏊NZA                 CIG㏊NZA                 00068CIG㏊NZA                 00000                                                              3952620040 0048 
3900101001 0100022010023000000            3952610021 0189B   20221231 01001 010002201                         CIG㏊NZA                 CIG㏊NZA                 00230HERRERIA (LA) (CIG㏊NZA) 00000                                                              3952610021 0189B
3900101001 0100022010023000000            3952620022 0040    20221231 01001 010002201                         CIG㏊NZA                 CIG㏊NZA                 00230HERRERIA (LA) (CIG㏊NZA) 00000                                                              3952620022 0040 
3900101001 0100022010023100000            3952610001 0019A   20221231 01001 010002201                         CIG㏊NZA                 CIG㏊NZA                 00231IGLESIA (LA) (CIG㏊NZA)  00000                                                              3952610001 0019A
3900101001 0100022010023100000            3952620002 0018    20221231 01001 010002201                         CIG㏊NZA                 CIG㏊NZA                 00231IGLESIA (LA) (CIG㏊NZA)  00000                                                              3952620002 0018 
3900101003 0100038010000300000            3932010071A0091    20221231 01003 010003801                         COBRECES                 COBRECES                 00003ANTO헤N                  00000                                                              3932010071A0091 
3900101003 0100038010000300000            3932020082A0092    20221231 01003 010003801                         COBRECES                 COBRECES                 00003ANTO헤N                  00000                                                              3932020082A0092 
3900101003 0100038010001500000            3932010177 0259    20221231 01003 010003801                         COBRECES                 COBRECES                 00015CORRALES                 00000                                                              3932010177 0259 
3900101003 0100038010001500000            3932020174 0260    20221231 01003 010003801                         COBRECES                 COBRECES                 00015CORRALES                 00000                                                              3932020174 0260 
3900101003 0100038010002500000            3932010203 0257    20221231 01003 010003801                         COBRECES                 COBRECES                 00025LUA헤                    00000                                                              3932010203 0257 
3900101003 0100038010002500000            3932020202 0254    20221231 01003 010003801                         COBRECES                 COBRECES                 00025LUA헤                    00000                                                              3932020202 0254 
3900101003 0100038010003000000            3932010001 0079    20221231 01003 010003801                         COBRECES                 COBRECES                 00030PINO (EL)                00000                                                              3932010001 0079 
3900101003 0100038010003000000            3932020004 0070    20221231 01003 010003801                         COBRECES                 COBRECES                 00030PINO (EL)                00000                                                              3932020004 0070 
3900101003 0100038010003200000            3932010139 0149    20221231 01003 010003801                         COBRECES                 COBRECES                 00032QUINTANILLA              00000                                                              3932010139 0149 
3900101003 0100038010003200000            3932020138 0150    20221231 01003 010003801                         COBRECES                 COBRECES                 00032QUINTANILLA              00000                                                              3932020138 0150 
3900101003 0100038010003300000            3932010119C0135    20221231 01003 010003801                         COBRECES                 COBRECES                 00033RIVERO                   00000                                                              3932010119C0135 
3900101003 0100038010003300000            3932020120 0134    20221231 01003 010003801                         COBRECES                 COBRECES                 00033RIVERO                   00000                                                              3932020120 0134 
3900101003 0100038010003900000            3932010057 0073    20221231 01003 010003801                         COBRECES                 COBRECES                 00039SOMAVIA                  00000                                                              3932010057 0073 
3900101003 0100038010003900000            3932020050 0076    20221231 01003 010003801                         COBRECES                 COBRECES                 00039SOMAVIA                  00000                                                              3932020050 0076 
3900101003 0100038010021800000            3932010137 0171A   20221231 01003 010003801                         COBRECES                 COBRECES                 00218QUINTANA                 00000                                                              3932010137 0171A
3900101003 0100038010021800000            3932020152 0170A   20221231 01003 010003801                         COBRECES                 COBRECES                 00218QUINTANA                 00000                                                              3932020152 0170A
3900101003 0100038010022500000            3932010223 0237    20221231 01003 010003801                         COBRECES                 COBRECES                 00225COBRECES                 00000                                                              3932010223 0237 
3900101003 0100038010022500000            3932020222 0232    20221231 01003 010003801                         COBRECES                 COBRECES                 00225COBRECES                 00000                                                              3932020222 0232 
3900101003 0100038010022600000            3932010079A0119B   20221231 01003 010003801                         COBRECES                 COBRECES                 00226SAN DAMIL                00000                                                              3932010079A0119B
3900101003 0100038010022600000            3932020080 0116    20221231 01003 010003801                         COBRECES                 COBRECES                 00226SAN DAMIL                00000                                                              3932020080 0116 
3900101003 0100038010022700000            3932010055A0055B   20221231 01003 010003801                         COBRECES                 COBRECES                 00227SANTA ANA                00000                                                              3932010055A0055B
3900101003 0100038010022700000            3932020056 0056    20221231 01003 010003801                         COBRECES                 COBRECES                 00227SANTA ANA                00000                                                              3932020056 0056 
3900101001 0100043010000100000            3952610137 0145A   20221231 01001 010004301                         NOVALES                  NOVALES                  00001ABADIA (LA)              00000                                                              3952610137 0145A
3900101001 0100043010000100000            3952620136 0144B   20221231 01001 010004301                         NOVALES                  NOVALES                  00001ABADIA (LA)              00000                                                              3952620136 0144B
3900101001 0100043010000200000            3952610019 0037    20221231 01001 010004301                         NOVALES                  NOVALES                  00002ACEBOSA (LA)             00000                                                              3952610019 0037 
3900101001 0100043010000200000            3952620022 0036    20221231 01001 010004301                         NOVALES                  NOVALES                  00002ACEBOSA (LA)             00000                                                              3952620022 0036 
3900101001 0100043010001000000            3952610099 0115    20221231 01001 010004301                         NOVALES                  NOVALES                  00010CASTA헨RON               00000                                                              3952610099 0115 
3900101001 0100043010001000000            3952620094 0114    20221231 01001 010004301                         NOVALES                  NOVALES                  00010CASTA헨RON               00000                                                              3952620094 0114 
3900101001 0100043010001100000            3952610165 0167B   20221231 01001 010004301                         NOVALES                  NOVALES                  00011CASTRO (EL)              00000                                                              3952610165 0167B
3900101001 0100043010001100000            3952620164A0166    20221231 01001 010004301                         NOVALES                  NOVALES                  00011CASTRO (EL)              00000                                                              3952620164A0166 
3900101001 0100043010001200000            3952610191 0195    20221231 01001 010004301                         NOVALES                  NOVALES                  00012CASTRUCO (EL)            00000                                                              3952610191 0195 
3900101001 0100043010001200000            3952620190 0194    20221231 01001 010004301                         NOVALES                  NOVALES                  00012CASTRUCO (EL)            00000                                                              3952620190 0194 
3900101001 0100043010001300000            3952620002 0004    20221231 01001 010004301                         NOVALES                  NOVALES                  00013CASUSO                   00000                                                              3952620002 0004 
3900101001 0100043010001400000            3952610119 0133    20221231 01001 010004301                         NOVALES                  NOVALES                  00014CAYUSO                   00000                                                              3952610119 0133 
3900101001 0100043010001400000            3952620118 0132    20221231 01001 010004301                         NOVALES                  NOVALES                  00014CAYUSO                   00000                                                              3952620118 0132 
3900101001 0100043010002000000            3952610045 0049    20221231 01001 010004301                         NOVALES                  NOVALES                  00020HONDAL (EL)              00000                                                              3952610045 0049 
3900101001 0100043010002000000            3952620044 0048    20221231 01001 010004301                         NOVALES                  NOVALES                  00020HONDAL (EL)              00000                                                              3952620044 0048 
3900101001 0100043010002100000            3952620016 0018    20221231 01001 010004301                         NOVALES                  NOVALES                  00021HORADIO                  00000                                                              3952620016 0018 
3900101001 0100043010002300000            3952610167A0177A   20221231 01001 010004301                         NOVALES                  NOVALES                  00023JOSE GUTIERREZ           00000                                                              3952610167A0177A
3900101001 0100043010002300000            3952620170 0178    20221231 01001 010004301                         NOVALES                  NOVALES                  00023JOSE GUTIERREZ           00000                                                              3952620170 0178 
3900101001 0100043010002600000            3952610051 0071    20221231 01001 010004301                         NOVALES                  NOVALES                  00026MIGUEL RUMOROSO          00000                                                              3952610051 0071 
3900101001 0100043010002600000            3952620050 0070A   20221231 01001 010004301                         NOVALES                  NOVALES                  00026MIGUEL RUMOROSO          00000                                                              3952620050 0070A
3900101001 0100043010003100000            3952610007 0011A   20221231 01001 010004301                         NOVALES                  NOVALES                  00031POMAR                    00000                                                              3952610007 0011A
3900101001 0100043010003100000            3952620008 0014    20221231 01001 010004301                         NOVALES                  NOVALES                  00031POMAR                    00000                                                              3952620008 0014 
3900101001 0100043010003400000            3952610195 0209A   20221231 01001 010004301                         NOVALES                  NOVALES                  00034RONAZ                    00000                                                              3952610195 0209A
3900101001 0100043010003400000            3952620196 0206B   20221231 01001 010004301                         NOVALES                  NOVALES                  00034RONAZ                    00000                                                              3952620196 0206B
3900101001 0100043010003500000            3952610013 0039    20221231 01001 010004301                         NOVALES                  NOVALES                  00035ROZA (LA)                00000                                                              3952610013 0039 
3900101001 0100043010003500000            3952620012 0040    20221231 01001 010004301                         NOVALES                  NOVALES                  00035ROZA (LA)                00000                                                              3952620012 0040 
3900101001 0100043010004100000            3952610073 0079    20221231 01001 010004301                         NOVALES                  NOVALES                  00041TORCOS (LOS)             00000                                                              3952610073 0079 
3900101001 0100043010004100000            3952620070 0080    20221231 01001 010004301                         NOVALES                  NOVALES                  00041TORCOS (LOS)             00000                                                              3952620070 0080 
3900101001 0100043010004300000            3952610083 0093    20221231 01001 010004301                         NOVALES                  NOVALES                  00043VEGA (LA)                00000                                                              3952610083 0093 
3900101001 0100043010004300000            3952620080 0118    20221231 01001 010004301                         NOVALES                  NOVALES                  00043VEGA (LA)                00000                                                              3952620080 0118 
3900101001 0100043010004500000            3952610179 0189    20221231 01001 010004301                         NOVALES                  NOVALES                  00045VIESCAS                  00000                                                              3952610179 0189 
3900101001 0100043010004500000            3952620180A0188B   20221231 01001 010004301                         NOVALES                  NOVALES                  00045VIESCAS                  00000                                                              3952620180A0188B
3900101001 0100043010022000000            3952610155 0155    20221231 01001 010004301                         NOVALES                  NOVALES                  00220PIO XII                  00000                                                              3952610155 0155 
3900101001 0100043010022800000            3952610209 0211    20221231 01001 010004301                         NOVALES                  NOVALES                  00228HERRERIA (LA) (NOVALES)  00000                                                              3952610209 0211 
3900101001 0100043010022800000            3952620208 0208    20221231 01001 010004301                         NOVALES                  NOVALES                  00228HERRERIA (LA) (NOVALES)  00000                                                              3952620208 0208 
3900101001 0100043010022900000            3952610043 0043    20221231 01001 010004301                         NOVALES                  NOVALES                  00229IGLESIA (LA) (NOVALES)   00000                                                              3952610043 0043 
3900101001 0100043010022900000            3952620042 0042    20221231 01001 010004301                         NOVALES                  NOVALES                  00229IGLESIA (LA) (NOVALES)   00000                                                              3952620042 0042 
3900101001 0100043010023400000            3952610125 0163H   20221231 01001 010004301                         NOVALES                  NOVALES                  00234SAN ROQUE -NOVALES-      00000                                                              3952610125 0163H
3900101001 0100043010023400000            3952620154 0156    20221231 01001 010004301                         NOVALES                  NOVALES                  00234SAN ROQUE -NOVALES-      00000                                                              3952620154 0156 
3900101002   00056010000400000            3952510269 0289    20221231 01002   0005601                         ORE헤                    BARCENA                  00004BARCENA                  00000                                                              3952510269 0289 
3900101002   00056010000400000            3952520270 0294A   20221231 01002   0005601                         ORE헤                    BARCENA                  00004BARCENA                  00000                                                              3952520270 0294A
3900101002   00056020000700000            3952510009A0075B   20221231 01002   0005602                         ORE헤                    CABORREDONDO             00007CABORREDONDO             00000                                                              3952510009A0075B
3900101002   00056020000700000            3952520010 0290    20221231 01002   0005602                         ORE헤                    CABORREDONDO             00007CABORREDONDO             00000                                                              3952520010 0290 
3900101002   00056030000800000            3952510001 0009A   20221231 01002   0005603                         ORE헤                    CARRASTRADA              00008CARRASTRADA              00000                                                              3952510001 0009A
3900101002   00056030000800000            3952520002 0010    20221231 01002   0005603                         ORE헤                    CARRASTRADA              00008CARRASTRADA              00000                                                              3952520002 0010 
3900101002   00056040002700000            3952510145 0157B   20221231 01002   0005604                         ORE헤                    PADRUNO                  00027PADRUNO                  00000                                                              3952510145 0157B
3900101002   00056040002700000            3952520150 0160    20221231 01002   0005604                         ORE헤                    PADRUNO                  00027PADRUNO                  00000                                                              3952520150 0160 
3900101002   00056050002800000            3952510113 0145    20221231 01002   0005605                         ORE헤                    PERELADA                 00028PERELADA                 00000                                                              3952510113 0145 
3900101002   00056050002800000            3952520112 0160B   20221231 01002   0005605                         ORE헤                    PERELADA                 00028PERELADA                 00000                                                              3952520112 0160B
3900101002   00056060023500000            3952510073A0169A   20221231 01002   0005606                         ORE헤                    SAN ROQUE                00235SAN ROQUE (ORE헤)        00000                                                              3952510073A0169A
3900101002   00056060023500000            3952520058 0148G   20221231 01002   0005606                         ORE헤                    SAN ROQUE                00235SAN ROQUE (ORE헤)        00000                                                              3952520058 0148G
3900101002   00056070004200000            3952510161 0299    20221231 01002   0005607                         ORE헤                    TORRIENTE                00042TORRIENTE                00000                                                              3952510161 0299 
3900101002   00056070004200000            3952520162 0172    20221231 01002   0005607                         ORE헤                    TORRIENTE                00042TORRIENTE                00000                                                              3952520162 0172 
3900101002   00056080004400000            3952510057 0267    20221231 01002   0005608                         ORE헤                    VIALLAN                  00044VIALLAN                  00000                                                              3952510057 0267 
3900101002   00056080004400000            3952520158A0290    20221231 01002   0005608                         ORE헤                    VIALLAN                  00044VIALLAN                  00000                                                              3952520158A0290 
3900101002   00056990022300000            3952510285 0285    20221231 01002   0005699                         ORE헤                    *DISEMINADO*             00223ORE헤 DISEMINADOS        00000                                                              3952510285 0285 
3900101002   00056990022300000            3952520020A0290    20221231 01002   0005699                         ORE헤                    *DISEMINADO*             00223ORE헤 DISEMINADOS        00000                                                              3952520020A0290 
3900101001 0300069010001700000            3953910001 0041    20221231 01001 030006901                         RUDAG㏊RA                FRESNEDO                 00017FRESNEDO                 00000                                                              3953910001 0041 
3900101001 0300069010001700000            3953920002 0040    20221231 01001 030006901                         RUDAG㏊RA                FRESNEDO                 00017FRESNEDO                 00000                                                              3953920002 0040 
3900101001 0300069020002400000            3953910001 0057    20221231 01001 030006902                         RUDAG㏊RA                LLOREDO                  00024LLOREDO                  00000                                                              3953910001 0057 
3900101001 0300069020002400000            3953920002 0056    20221231 01001 030006902                         RUDAG㏊RA                LLOREDO                  00024LLOREDO                  00000                                                              3953920002 0056 
3900101001 0300069030022200000            3953910001 0043    20221231 01001 030006903                         RUDAG㏊RA                SAN PEDRO                00222SAN PEDRO                00000                                                              3953910001 0043 
3900101001 0300069030022200000            3953920002 0044    20221231 01001 030006903                         RUDAG㏊RA                SAN PEDRO                00222SAN PEDRO                00000                                                              3953920002 0044 
3900101003 0200075010021700000            3932910001 0059    20221231 01003 020007501                         TO헤NES                  TO헤NES                  00217TO헤NES                  00000                                                              3932910001 0059 
3900101003 0200075010021700000            3932920002 0060    20221231 01003 020007501                         TO헤NES                  TO헤NES                  00217TO헤NES                  00000                                                              3932920002 0060 
3900201002   00017990017300000            3984900000S0000S   20221231 01002   0001799                         AHEDO                    *DISEMINADO*             00173AHEDO                    00000                                                              3984900000S0000S
3900201002   00017990017300000            3984910001 0027    20221231 01002   0001799                         AHEDO                    *DISEMINADO*             00173AHEDO                    00000                                                              3984910001 0027 
3900201002   00017990017300000            3984920002 0030    20221231 01002   0001799                         AHEDO                    *DISEMINADO*             00173AHEDO                    00000                                                              3984920002 0030 
3900201002   00022990017200000            3984910003 0029    20221231 01002   0002299                         ALISAS                   *DISEMINADO*             00172ALISAS                   00000                                                              3984910003 0029 
3900201002   00022990017200000            3984920008 0032    20221231 01002   0002299                         ALISAS                   *DISEMINADO*             00172ALISAS                   00000                                                              3984920008 0032 
3900201002   00022990020800000            3984910001 0001    20221231 01002   0002299                         ALISAS                   *DISEMINADO*             00208SUBIDA ALISAS            00000                                                              3984910001 0001 
3900201002   00022990020800000            3984920002 0002    20221231 01002   0002299                         ALISAS                   *DISEMINADO*             00208SUBIDA ALISAS            00000                                                              3984920002 0002 
3900201001   00038010000500000            3984010001 0029    20221231 01001   0003801                         AMPUERO                  AMPUERO                  00005CANTARRANAS              00000                                                              3984010001 0029 
3900201001   00038010000500000            3984020004 0018    20221231 01001   0003801                         AMPUERO                  AMPUERO                  00005CANTARRANAS              00000                                                              3984020004 0018 
3900201001   00038010001100000            3984010001 0011    20221231 01001   0003801                         AMPUERO                  AMPUERO                  00011FEDERICO SOMARRIBA       00000                                                              3984010001 0011 
3900201001   00038010001100000            3984020002 0012    20221231 01001   0003801                         AMPUERO                  AMPUERO                  00011FEDERICO SOMARRIBA       00000                                                              3984020002 0012 
3900201001   00038010001700000            3984010001 0067    20221231 01001   0003801                         AMPUERO                  AMPUERO                  00017COMERCIO (DEL)           00000                                                              3984010001 0067 
3900201001   00038010001700000            3984020002 0058    20221231 01001   0003801                         AMPUERO                  AMPUERO                  00017COMERCIO (DEL)           00000                                                              3984020002 0058 
3900201001   00038010001900000            3984010001 0037    20221231 01001   0003801                         AMPUERO                  AMPUERO                  00019PROGRESO (DEL)           00000                                                              3984010001 0037 
3900201001   00038010001900000            3984020002 0056    20221231 01001   0003801                         AMPUERO                  AMPUERO                  00019PROGRESO (DEL)           00000                                                              3984020002 0056 
3900201001   00038010002100000            3984010001 0011    20221231 01001   0003801                         AMPUERO                  AMPUERO                  00021MELCHOR TORIO            00000                                                              3984010001 0011 
3900201001   00038010002100000            3984020002 0016    20221231 01001   0003801                         AMPUERO                  AMPUERO                  00021MELCHOR TORIO            00000                                                              3984020002 0016 
3900201001   00038010002300000            3984010003 0017    20221231 01001   0003801                         AMPUERO                  AMPUERO                  000238 DE SEPTIEMBRE          00000                                                              3984010003 0017 
3900201001   00038010002300000            3984020002 0010    20221231 01001   0003801                         AMPUERO                  AMPUERO                  000238 DE SEPTIEMBRE          00000                                                              3984020002 0010 
3900201001   00038010002600000            3984010001 0001    20221231 01001   0003801                         AMPUERO                  AMPUERO                  00026PLAZA (DE LA)            00000                                                              3984010001 0001 
3900201001   00038010019200000            3984010001 0013    20221231 01001   0003801                         AMPUERO                  AMPUERO                  00192EAUZE (DE)               00000                                                              3984010001 0013 
3900201001   00038010019200000            3984020002 0042    20221231 01001   0003801                         AMPUERO                  AMPUERO                  00192EAUZE (DE)               00000                                                              3984020002 0042 
3900201001   00038010019400000            3984010001 0003    20221231 01001   0003801                         AMPUERO                  AMPUERO                  00194RIO                      00000                                                              3984010001 0003 
3900201001   00038010019400000            3984020002 0002    20221231 01001   0003801                         AMPUERO                  AMPUERO                  00194RIO                      00000                                                              3984020002 0002 
3900201001   00038010019500000            3984010001 0003    20221231 01001   0003801                         AMPUERO                  AMPUERO                  00195CRUZ (LA)                00000                                                              3984010001 0003 
3900201001   00038010019500000            3984020002 0014    20221231 01001   0003801                         AMPUERO                  AMPUERO                  00195CRUZ (LA)                00000                                                              3984020002 0014 
3900201001   00038010019600000            3984010001 0017    20221231 01001   0003801                         AMPUERO                  AMPUERO                  00196HUERTAS (LAS)            00000                                                              3984010001 0017 
3900201001   00038010019600000            3984020002 0006    20221231 01001   0003801                         AMPUERO                  AMPUERO                  00196HUERTAS (LAS)            00000                                                              3984020002 0006 
3900201001   00038010019800000            3984000000S0000S   20221231 01001   0003801                         AMPUERO                  AMPUERO                  00198NOGALERA (LA)            00000                                                              3984000000S0000S
3900201001   00038010019800000            3984010003 0087    20221231 01001   0003801                         AMPUERO                  AMPUERO                  00198NOGALERA (LA)            00000                                                              3984010003 0087 
3900201001   00038010019800000            3984020002 0008    20221231 01001   0003801                         AMPUERO                  AMPUERO                  00198NOGALERA (LA)            00000                                                              3984020002 0008 
3900201001   00038010019900000            3984010001 0015    20221231 01001   0003801                         AMPUERO                  AMPUERO                  00199ORCON (EL)               00000                                                              3984010001 0015 
3900201001   00038010019900000            3984020002 0012    20221231 01001   0003801                         AMPUERO                  AMPUERO                  00199ORCON (EL)               00000                                                              3984020002 0012 
3900201001   00038010020000000            3984010001 0019    20221231 01001   0003801                         AMPUERO                  AMPUERO                  00200TILOS (LOS)              00000                                                              3984010001 0019 
3900201001   00038010020000000            3984020002 0016    20221231 01001   0003801                         AMPUERO                  AMPUERO                  00200TILOS (LOS)              00000                                                              3984020002 0016 
3900201001   00038010020100000            3984010001 0011    20221231 01001   0003801                         AMPUERO                  AMPUERO                  00201MAYOR                    00000                                                              3984010001 0011 
3900201001   00038010020100000            3984020004 0012    20221231 01001   0003801                         AMPUERO                  AMPUERO                  00201MAYOR                    00000                                                              3984020004 0012 
3900201001   00038010020200000            3984010003 0007    20221231 01001   0003801                         AMPUERO                  AMPUERO                  00202RIBERA RIO VALLINO       00000                                                              3984010003 0007 
3900201001   00038010020200000            3984020002 0004    20221231 01001   0003801                         AMPUERO                  AMPUERO                  00202RIBERA RIO VALLINO       00000                                                              3984020002 0004 
3900201001   00038010020300000            3984010001 0023    20221231 01001   0003801                         AMPUERO                  AMPUERO                  00203SAN JUAN                 00000                                                              3984010001 0023 
3900201001   00038010020300000            3984020002 0010    20221231 01001   0003801                         AMPUERO                  AMPUERO                  00203SAN JUAN                 00000                                                              3984020002 0010 
3900201001   00038010020400000            3984010001 0025    20221231 01001   0003801                         AMPUERO                  AMPUERO                  00204PEDREGOSA (LA)           00000                                                              3984010001 0025 
3900201001   00038010020400000            3984020002 0026    20221231 01001   0003801                         AMPUERO                  AMPUERO                  00204PEDREGOSA (LA)           00000                                                              3984020002 0026 
3900201001   00038010020500000            3984010039 0087    20221231 01001   0003801                         AMPUERO                  AMPUERO                  00205JUAN DE ESPINA           00000                                                              3984010039 0087 
3900201001   00038010020500000            3984020050 0082    20221231 01001   0003801                         AMPUERO                  AMPUERO                  00205JUAN DE ESPINA           00000                                                              3984020050 0082 
3900201001   00038010020600000            3984010001 0005    20221231 01001   0003801                         AMPUERO                  AMPUERO                  00206NIEVES (LAS)             00000                                                              3984010001 0005 
3900201001   00038010020600000            3984020002 0008    20221231 01001   0003801                         AMPUERO                  AMPUERO                  00206NIEVES (LAS)             00000                                                              3984020002 0008 
3900201001   00038010020700000            3984010005 0035    20221231 01001   0003801                         AMPUERO                  AMPUERO                  00207MIES (LA)                00000                                                              3984010005 0035 
3900201001   00038010020700000            3984020002 0026    20221231 01001   0003801                         AMPUERO                  AMPUERO                  00207MIES (LA)                00000                                                              3984020002 0026 
3900201001   00038010021600000            3984010001 0011    20221231 01001   0003801                         AMPUERO                  AMPUERO                  00216EMPERADOR CARLOS V       00000                                                              3984010001 0011 
3900201001   00038010021600000            3984020002 0002    20221231 01001   0003801                         AMPUERO                  AMPUERO                  00216EMPERADOR CARLOS V       00000                                                              3984020002 0002 
3900201001   00038010021800000            3984010001 0001    20221231 01001   0003801                         AMPUERO                  AMPUERO                  00218DR. RAMON LOPEZ GARZON   00000                                                              3984010001 0001 
3900201001   00038010021800000            3984020002 0002    20221231 01001   0003801                         AMPUERO                  AMPUERO                  00218DR. RAMON LOPEZ GARZON   00000                                                              3984020002 0002 
3900201001   00038010021900000            3984020002 0002    20221231 01001   0003801                         AMPUERO                  AMPUERO                  00219PLAZA DEL AYUNTAMIENTO   00000                                                              3984020002 0002 
3900201003 0100043990000300000            3984900000S0000S   20221231 01003 010004399                         APARECIDA (LA)           *DISEMINADO*             00003BIEN APARECIDA (LA)      00000                                                              3984900000S0000S
3900201003 0100043990000300000            3984910001 0047    20221231 01003 010004399                         APARECIDA (LA)           *DISEMINADO*             00003BIEN APARECIDA (LA)      00000                                                              3984910001 0047 
3900201003 0100043990000300000            3984920002 0044    20221231 01003 010004399                         APARECIDA (LA)           *DISEMINADO*             00003BIEN APARECIDA (LA)      00000                                                              3984920002 0044 
3900201002   00056990000100000            3984900000S0000S   20221231 01002   0005699                         BARCENA (LA)             *DISEMINADO*             00001BARCENA (LA)             00000                                                              3984900000S0000S
3900201002   00056990000100000            3984910001 0055    20221231 01002   0005699                         BARCENA (LA)             *DISEMINADO*             00001BARCENA (LA)             00000                                                              3984910001 0055 
3900201002   00056990000100000            3984920002 0060    20221231 01002   0005699                         BARCENA (LA)             *DISEMINADO*             00001BARCENA (LA)             00000                                                              3984920002 0060 
3900201002   00056990020900000            3984910001 0005    20221231 01002   0005699                         BARCENA (LA)             *DISEMINADO*             00209MURADON (EL)             00000                                                              3984910001 0005 
3900201002   00056990020900000            3984920002 0008    20221231 01002   0005699                         BARCENA (LA)             *DISEMINADO*             00209MURADON (EL)             00000                                                              3984920002 0008 
3900201002   00069990017400000            3984900000S0000S   20221231 01002   0006999                         BERNALES                 *DISEMINADO*             00174BERNALES                 00000                                                              3984900000S0000S
3900201002   00069990017400000            3984910017 0045    20221231 01002   0006999                         BERNALES                 *DISEMINADO*             00174BERNALES                 00000                                                              3984910017 0045 
3900201002   00069990017400000            3984920012R0076    20221231 01002   0006999                         BERNALES                 *DISEMINADO*             00174BERNALES                 00000                                                              3984920012R0076 
3900201002   00069990021100000            3984910001 0005    20221231 01002   0006999                         BERNALES                 *DISEMINADO*             00211CADALSO                  00000                                                              3984910001 0005 
3900201002   00069990021100000            3984920002 0014    20221231 01002   0006999                         BERNALES                 *DISEMINADO*             00211CADALSO                  00000                                                              3984920002 0014 
3900201002   00069990021200000            3984910001 0021    20221231 01002   0006999                         BERNALES                 *DISEMINADO*             00212MOLINO (EL)              00000                                                              3984910001 0021 
3900201002   00069990021200000            3984920004 0016    20221231 01002   0006999                         BERNALES                 *DISEMINADO*             00212MOLINO (EL)              00000                                                              3984920004 0016 
3900201002   00069990021300000            3984910001 0029    20221231 01002   0006999                         BERNALES                 *DISEMINADO*             00213SANTA LUCIA              00000                                                              3984910001 0029 
3900201002   00069990021300000            3984920010 0024    20221231 01002   0006999                         BERNALES                 *DISEMINADO*             00213SANTA LUCIA              00000                                                              3984920010 0024 
3900201002   00069990021400000            3984910055 0061    20221231 01002   0006999                         BERNALES                 *DISEMINADO*             00214TEJERA (LA)              00000                                                              3984910055 0061 
3900201002   00069990021400000            3984920056 0062    20221231 01002   0006999                         BERNALES                 *DISEMINADO*             00214TEJERA (LA)              00000                                                              3984920056 0062 
3900201003 0200075990000400000            3985010001 0013    20221231 01003 020007599                         BULCO                    *DISEMINADO*             00004BULCO                    00000                                                              3985010001 0013 
3900201003 0200075990000400000            3985020002 0010    20221231 01003 020007599                         BULCO                    *DISEMINADO*             00004BULCO                    00000                                                              3985020002 0010 
3900201003 0200075990002700000            3985000000S0000S   20221231 01003 020007599                         BULCO                    *DISEMINADO*             00027RINCONADA (LA)           00000                                                              3985000000S0000S
3900201002   00081990017700000            3984900000S0000S   20221231 01002   0008199                         CAMINO (EL)              *DISEMINADO*             00177CAMINO (EL)              00000                                                              3984900000S0000S
3900201002   00081990017700000            3984910001 0051    20221231 01002   0008199                         CAMINO (EL)              *DISEMINADO*             00177CAMINO (EL)              00000                                                              3984910001 0051 
3900201002   00081990017700000            3984920002 0050    20221231 01002   0008199                         CAMINO (EL)              *DISEMINADO*             00177CAMINO (EL)              00000                                                              3984920002 0050 
3900201002   00094010017500000            3984900000S0000S   20221231 01002   0009401                         CERBIAGO                 CERBIAGO                 00175CERBIAGO                 00000                                                              3984900000S0000S
3900201002   00094010017500000            3984910001 0037    20221231 01002   0009401                         CERBIAGO                 CERBIAGO                 00175CERBIAGO                 00000                                                              3984910001 0037 
3900201002   00094010017500000            3984920004 0040    20221231 01002   0009401                         CERBIAGO                 CERBIAGO                 00175CERBIAGO                 00000                                                              3984920004 0040 
3900201002   00094010021000000            3984910001 0001    20221231 01002   0009401                         CERBIAGO                 CERBIAGO                 00210SUBIDA CERBIAGO          00000                                                              3984910001 0001 
3900201002   00094010021000000            3984920002 0012    20221231 01002   0009401                         CERBIAGO                 CERBIAGO                 00210SUBIDA CERBIAGO          00000                                                              3984920002 0012 
3900201003 0100108990017600000            3984910003 0015    20221231 01003 010010899                         COTERILLO                *DISEMINADO*             00176COTERILLO                00000                                                              3984910003 0015 
3900201003 0100108990017600000            3984920004 0018    20221231 01003 010010899                         COTERILLO                *DISEMINADO*             00176COTERILLO                00000                                                              3984920004 0018 
3900201002   00115990018100000            3984910001 0009    20221231 01002   0011599                         ENTRADAS (LAS)           *DISEMINADO*             00181ENTRADAS (LAS)           00000                                                              3984910001 0009 
3900201002   00115990018100000            3984920008 0008    20221231 01002   0011599                         ENTRADAS (LAS)           *DISEMINADO*             00181ENTRADAS (LAS)           00000                                                              3984920008 0008 
3900201002   00120990018200000            3984910007 0011    20221231 01002   0012099                         GARMILLAS (LAS)          *DISEMINADO*             00182GARMILLAS (LAS)          00000                                                              3984910007 0011 
3900201002   00120990018200000            3984920006 0010    20221231 01002   0012099                         GARMILLAS (LAS)          *DISEMINADO*             00182GARMILLAS (LAS)          00000                                                              3984920006 0010 
3900201003 0100136990018000000            3984910001 0059    20221231 01003 010013699                         HOZ DE MARRON            *DISEMINADO*             00180HOZ DE MARRON            00000                                                              3984910001 0059 
3900201003 0100136990018000000            3984920002 0058    20221231 01003 010013699                         HOZ DE MARRON            *DISEMINADO*             00180HOZ DE MARRON            00000                                                              3984920002 0058 
3900201003 0100141010001000000            3984900000S0000S   20221231 01003 010014101                         MARRON                   MARRON                   00010ESTACION (LA)            00000                                                              3984900000S0000S
3900201003 0100141010001000000            3984910001 0005    20221231 01003 010014101                         MARRON                   MARRON                   00010ESTACION (LA)            00000                                                              3984910001 0005 
3900201003 0100141010001000000            3984920002 0012    20221231 01003 010014101                         MARRON                   MARRON                   00010ESTACION (LA)            00000                                                              3984920002 0012 
3900201003 0100141010001800000            3984900000S0000S   20221231 01003 010014101                         MARRON                   MARRON                   00018MARRON                   00000                                                              3984900000S0000S
3900201003 0100141010001800000            3984910055 0097    20221231 01003 010014101                         MARRON                   MARRON                   00018MARRON                   00000                                                              3984910055 0097 
3900201003 0100141010001800000            3984920016 0094    20221231 01003 010014101                         MARRON                   MARRON                   00018MARRON                   00000                                                              3984920016 0094 
3900201003 0100141010002500000            3984910001 0023    20221231 01003 010014101                         MARRON                   MARRON                   00025POBEDAL (EL)             00000                                                              3984910001 0023 
3900201003 0100141010002500000            3984920006 0012    20221231 01003 010014101                         MARRON                   MARRON                   00025POBEDAL (EL)             00000                                                              3984920006 0012 
3900201003 0100141010002900000            3984910001 0023    20221231 01003 010014101                         MARRON                   MARRON                   00029TENERIAS                 00000                                                              3984910001 0023 
3900201003 0100141010002900000            3984920004 0046    20221231 01003 010014101                         MARRON                   MARRON                   00029TENERIAS                 00000                                                              3984920004 0046 
3900201003 0100141010003100000            3984900000S0000S   20221231 01003 010014101                         MARRON                   MARRON                   00031VIRGEN NI헤              00000                                                              3984900000S0000S
3900201003 0100141010003100000            3984910003 0003    20221231 01003 010014101                         MARRON                   MARRON                   00031VIRGEN NI헤              00000                                                              3984910003 0003 
3900201003 0100141010003100000            3984920002 0004    20221231 01003 010014101                         MARRON                   MARRON                   00031VIRGEN NI헤              00000                                                              3984920002 0004 
3900201003 0100141010021500000            3984910001 0045    20221231 01003 010014101                         MARRON                   MARRON                   00215ESCUELAS (LAS)           00000                                                              3984910001 0045 
3900201003 0100141010021500000            3984920002 0022    20221231 01003 010014101                         MARRON                   MARRON                   00215ESCUELAS (LAS)           00000                                                              3984920002 0022 
3900201003 0100141010021700000            3985010001 0001    20221231 01003 010014101                         MARRON                   MARRON                   00217TENERIAS                 00000                                                              3985010001 0001 
3900201003 0100141010021700000            3985020008 0046    20221231 01003 010014101                         MARRON                   MARRON                   00217TENERIAS                 00000                                                              3985020008 0046 
3900201002   00154990017800000            3984910001 0009    20221231 01002   0015499                         PERUJO (EL)              *DISEMINADO*             00178PERUJO (EL)              00000                                                              3984910001 0009 
3900201002   00154990017800000            3984920002 0012    20221231 01002   0015499                         PERUJO (EL)              *DISEMINADO*             00178PERUJO (EL)              00000                                                              3984920002 0012 
3900201002   00167990018300000            3984900000S0000S   20221231 01002   0016799                         PIERAGULLANO             *DISEMINADO*             00183PIERAGULLANO             00000                                                              3984900000S0000S
3900201002   00167990018300000            3984910003 0021    20221231 01002   0016799                         PIERAGULLANO             *DISEMINADO*             00183PIERAGULLANO             00000                                                              3984910003 0021 
3900201002   00167990018300000            3984920002 0014    20221231 01002   0016799                         PIERAGULLANO             *DISEMINADO*             00183PIERAGULLANO             00000                                                              3984920002 0014 
3900201002   00173990018400000            3984900000S0000S   20221231 01002   0017399                         RASCON                   *DISEMINADO*             00184RASCON                   00000                                                              3984900000S0000S
3900201002   00173990018400000            3984910001 0051    20221231 01002   0017399                         RASCON                   *DISEMINADO*             00184RASCON                   00000                                                              3984910001 0051 
3900201002   00173990018400000            3984920012 0050    20221231 01002   0017399                         RASCON                   *DISEMINADO*             00184RASCON                   00000                                                              3984920012 0050 
3900201002   00189990018500000            3984900000S0000S   20221231 01002   0018999                         REGADA                   *DISEMINADO*             00185REGADA                   00000                                                              3984900000S0000S
3900201002   00189990018500000            3984910001 0001    20221231 01002   0018999                         REGADA                   *DISEMINADO*             00185REGADA                   00000                                                              3984910001 0001 
3900201002   00189990018500000            3984920008 0008    20221231 01002   0018999                         REGADA                   *DISEMINADO*             00185REGADA                   00000                                                              3984920008 0008 
3900201002   00192990018600000            3984910001 0111    20221231 01002   0019299                         ROCILLO                  *DISEMINADO*             00186ROCILLO                  00000                                                              3984910001 0111 
3900201002   00192990018600000            3984920004 0030    20221231 01002   0019299                         ROCILLO                  *DISEMINADO*             00186ROCILLO                  00000                                                              3984920004 0030 
3900201002   00206990018900000            3984900000S0000S   20221231 01002   0020699                         SANTISTEBAN              *DISEMINADO*             00189SANTISTEBAN              00000                                                              3984900000S0000S
3900201002   00206990018900000            3984910001 0013    20221231 01002   0020699                         SANTISTEBAN              *DISEMINADO*             00189SANTISTEBAN              00000                                                              3984910001 0013 
3900201002   00206990018900000            3984920002 0006    20221231 01002   0020699                         SANTISTEBAN              *DISEMINADO*             00189SANTISTEBAN              00000                                                              3984920002 0006 
3900201002   00213990018800000            3984910001 0021    20221231 01002   0021399                         SOLAMAZA                 *DISEMINADO*             00188SOLAMAZA                 00000                                                              3984910001 0021 
3900201002   00213990018800000            3984920008 0014    20221231 01002   0021399                         SOLAMAZA                 *DISEMINADO*             00188SOLAMAZA                 00000                                                              3984920008 0014 
3900201002   00228010000900000            3984900000S0000S   20221231 01002   0022801                         TABERNILLA               TABERNILLA               00009DOCTOR ANTONIO RUIZ RUIZ 00000                                                              3984900000S0000S
3900201002   00228010000900000            3984910001 0051    20221231 01002   0022801                         TABERNILLA               TABERNILLA               00009DOCTOR ANTONIO RUIZ RUIZ 00000                                                              3984910001 0051 
3900201002   00228010000900000            3984920002 0036B   20221231 01002   0022801                         TABERNILLA               TABERNILLA               00009DOCTOR ANTONIO RUIZ RUIZ 00000                                                              3984920002 0036B
3900201003 0200234990000100000            3985000000S0000S   20221231 01003 020023499                         UDALLA                   *DISEMINADO*             00001BARCENA (LA)             00000                                                              3985000000S0000S
3900201003 0200234990000100000            3985010003 0031    20221231 01003 020023499                         UDALLA                   *DISEMINADO*             00001BARCENA (LA)             00000                                                              3985010003 0031 
3900201003 0200234990000100000            3985020002 0034    20221231 01003 020023499                         UDALLA                   *DISEMINADO*             00001BARCENA (LA)             00000                                                              3985020002 0034 
3900201003 0200234990000200000            3985020044 0044    20221231 01003 020023499                         UDALLA                   *DISEMINADO*             00002BARRADO                  00000                                                              3985020044 0044 
3900201003 0200234990000600000            3985010009 0011    20221231 01003 020023499                         UDALLA                   *DISEMINADO*             00006COJORCAL                 00000                                                              3985010009 0011 
3900201003 0200234990000600000            3985020008 0012B   20221231 01003 020023499                         UDALLA                   *DISEMINADO*             00006COJORCAL                 00000                                                              3985020008 0012B
3900201003 0200234990001400000            3985010003 0035    20221231 01003 020023499                         UDALLA                   *DISEMINADO*             00014JARAMILLOTA              00000                                                              3985010003 0035 
3900201003 0200234990001400000            3985020032 0040    20221231 01003 020023499                         UDALLA                   *DISEMINADO*             00014JARAMILLOTA              00000                                                              3985020032 0040 
3900201003 0200234990003000000            3985000000S0000S   20221231 01003 020023499                         UDALLA                   *DISEMINADO*             00030UDALLA                   00000                                                              3985000000S0000S
3900201003 0200234990003000000            3985010001 0051    20221231 01003 020023499                         UDALLA                   *DISEMINADO*             00030UDALLA                   00000                                                              3985010001 0051 
3900201003 0200234990003000000            3985020002 0056    20221231 01003 020023499                         UDALLA                   *DISEMINADO*             00030UDALLA                   00000                                                              3985020002 0056 
3900201003 0200234990019500000            3985000000S0000S   20221231 01003 020023499                         UDALLA                   *DISEMINADO*             00195CRUZ (LA)                00000                                                              3985000000S0000S
3900201003 0200234990019500000            3985010013 0019    20221231 01003 020023499                         UDALLA                   *DISEMINADO*             00195CRUZ (LA)                00000                                                              3985010013 0019 
3900201003 0200234990019500000            3985020010 0046    20221231 01003 020023499                         UDALLA                   *DISEMINADO*             00195CRUZ (LA)                00000                                                              3985020010 0046 
3900201003 0200249990017900000            3985000000S0000S   20221231 01003 020024999                         VEAR DE UDALLA           *DISEMINADO*             00179VEAR (EL)                00000                                                              3985000000S0000S
3900201003 0200249990017900000            3985010001 0015    20221231 01003 020024999                         VEAR DE UDALLA           *DISEMINADO*             00179VEAR (EL)                00000                                                              3985010001 0015 
3900201003 0200249990017900000            3985020004 0016    20221231 01003 020024999                         VEAR DE UDALLA           *DISEMINADO*             00179VEAR (EL)                00000                                                              3985020004 0016 
3900301001   00017010000100000            3945110001 0075    20221231 01001   0001701                         BARRIOPALACIO            BARRIOPALACIO            00001BARRIOPALACIO            00000                                                              3945110001 0075 
3900301001   00017010000100000            3945120002 0076    20221231 01001   0001701                         BARRIOPALACIO            BARRIOPALACIO            00001BARRIOPALACIO            00000                                                              3945120002 0076 
3900301001   00022010000300000            3945110001 0063    20221231 01001   0002201                         CALGA                    CALGA                    00003CALGA                    00000                                                              3945110001 0063 
3900301001   00022010000300000            3945120004 0030    20221231 01001   0002201                         CALGA                    CALGA                    00003CALGA                    00000                                                              3945120004 0030 
3900301001   00038010000400000            3945100000S0000S   20221231 01001   0003801                         COTILLO                  COTILLO                  00004COTILLO                  00000                                                              3945100000S0000S
3900301001   00038010000400000            3945110005 0099    20221231 01001   0003801                         COTILLO                  COTILLO                  00004COTILLO                  00000                                                              3945110005 0099 
3900301001   00038010000400000            3945120002 0098    20221231 01001   0003801                         COTILLO                  COTILLO                  00004COTILLO                  00000                                                              3945120002 0098 
3900301001   00043010000200000            3945100000S0000S   20221231 01001   0004301                         VILLASUSO                VILLASUSO                00002VILLASUSO                00000                                                              3945100000S0000S
3900301001   00043010000200000            3945110001 0077    20221231 01001   0004301                         VILLASUSO                VILLASUSO                00002VILLASUSO                00000                                                              3945110001 0077 
3900301001   00043010000200000            3945120002 0076    20221231 01001   0004301                         VILLASUSO                VILLASUSO                00002VILLASUSO                00000                                                              3945120002 0076 
3900401001 0100017020000100000            3945010261 0301    20221231 01001 010001702                         ARENAS DE IGU헤          ARENAS DE IGU헤          00001ACHERO                   00000                                                              3945010261 0301 
3900401001 0100017020000100000            3945020264 0302    20221231 01001 010001702                         ARENAS DE IGU헤          ARENAS DE IGU헤          00001ACHERO                   00000                                                              3945020264 0302 
3900401001 0100017020000200000            3945010159 0173    20221231 01001 010001702                         ARENAS DE IGU헤          ARENAS DE IGU헤          00002ALFONSO XIII             00000                                                              3945010159 0173 
3900401001 0100017020000200000            3945020160 0172    20221231 01001 010001702                         ARENAS DE IGU헤          ARENAS DE IGU헤          00002ALFONSO XIII             00000                                                              3945020160 0172 
3900401001 0100017020001300000            3945010089 0157A   20221231 01001 010001702                         ARENAS DE IGU헤          ARENAS DE IGU헤          00013GENERAL                  00000                                                              3945010089 0157A
3900401001 0100017020001300000            3945020062 0200    20221231 01001 010001702                         ARENAS DE IGU헤          ARENAS DE IGU헤          00013GENERAL                  00000                                                              3945020062 0200 
3900401001 0100017020001500000            3945010011 0055    20221231 01001 010001702                         ARENAS DE IGU헤          ARENAS DE IGU헤          00015HERRAN (LA)              00000                                                              3945010011 0055 
3900401001 0100017020001500000            3945020010B0086    20221231 01001 010001702                         ARENAS DE IGU헤          ARENAS DE IGU헤          00015HERRAN (LA)              00000                                                              3945020010B0086 
3900401001 0100017020001700000            3945010177 0219    20221231 01001 010001702                         ARENAS DE IGU헤          ARENAS DE IGU헤          00017MAGDALENA                00000                                                              3945010177 0219 
3900401001 0100017020001700000            3945020174 0222    20221231 01001 010001702                         ARENAS DE IGU헤          ARENAS DE IGU헤          00017MAGDALENA                00000                                                              3945020174 0222 
3900401001 0100017020001900000            3945010223 0259    20221231 01001 010001702                         ARENAS DE IGU헤          ARENAS DE IGU헤          00019MOLINA (LA)              00000                                                              3945010223 0259 
3900401001 0100017020001900000            3945020224 0260    20221231 01001 010001702                         ARENAS DE IGU헤          ARENAS DE IGU헤          00019MOLINA (LA)              00000                                                              3945020224 0260 
3900401001 0100017020003300000            3945010059 0083    20221231 01001 010001702                         ARENAS DE IGU헤          ARENAS DE IGU헤          00033TORRE (LA)               00000                                                              3945010059 0083 
3900401001 0100017020003300000            3945020058 0082    20221231 01001 010001702                         ARENAS DE IGU헤          ARENAS DE IGU헤          00033TORRE (LA)               00000                                                              3945020058 0082 
3900401001 0100017020003400000            3945010227 0227    20221231 01001 010001702                         ARENAS DE IGU헤          ARENAS DE IGU헤          00034ARENAS DE IGU헤          00000                                                              3945010227 0227 
3900401001 0100017020006000000            3945010001 0001    20221231 01001 010001702                         ARENAS DE IGU헤          ARENAS DE IGU헤          00060ARRABAL (EL)             00000                                                              3945010001 0001 
3900401001 0100017020006000000            3945020002 0006    20221231 01001 010001702                         ARENAS DE IGU헤          ARENAS DE IGU헤          00060ARRABAL (EL)             00000                                                              3945020002 0006 
3900401001 0100017020006100000            3945010085 0085    20221231 01001 010001702                         ARENAS DE IGU헤          ARENAS DE IGU헤          00061VIRGEN DE COVADONGA      00000                                                              3945010085 0085 
3900401001 0100017020006100000            3945020084 0084    20221231 01001 010001702                         ARENAS DE IGU헤          ARENAS DE IGU헤          00061VIRGEN DE COVADONGA      00000                                                              3945020084 0084 
3900401001 0100017020007400000            3945020318 0318    20221231 01001 010001702                         ARENAS DE IGU헤          ARENAS DE IGU헤          00074CANAL (LA)               00000                                                              3945020318 0318 
3900401001 0200022010001000000            3945110003 0087    20221231 01001 020002201                         BOSTRONIZO               BOSTRONIZO               00010CORRALEO                 00000                                                              3945110003 0087 
3900401001 0200022010001000000            3945120004 0082    20221231 01001 020002201                         BOSTRONIZO               BOSTRONIZO               00010CORRALEO                 00000                                                              3945120004 0082 
3900401001 0200022010002100000            3945110147 0147    20221231 01001 020002201                         BOSTRONIZO               BOSTRONIZO               00021MOROSO                   00000                                                              3945110147 0147 
3900401001 0200022010003000000            3945110073 0131    20221231 01001 020002201                         BOSTRONIZO               BOSTRONIZO               00030SOMAVIA                  00000                                                              3945110073 0131 
3900401001 0200022010003000000            3945120086 0126    20221231 01001 020002201                         BOSTRONIZO               BOSTRONIZO               00030SOMAVIA                  00000                                                              3945120086 0126 
3900401002 0100038010000500000            3945010001 0041    20221231 01002 010003801                         COHI헲                   COHI헲                   00005COHI헲                   00000                                                              3945010001 0041 
3900401002 0100038010000500000            3945020002 0042    20221231 01002 010003801                         COHI헲                   COHI헲                   00005COHI헲                   00000                                                              3945020002 0042 
3900401002 0200043040000300000            3945010003 0043    20221231 01002 020004304                         FRAGUAS (LAS)            FRAGUAS (LAS)            00003CARMEN (EL)              00000                                                              3945010003 0043 
3900401002 0200043040000300000            3945020002 0016    20221231 01002 020004304                         FRAGUAS (LAS)            FRAGUAS (LAS)            00003CARMEN (EL)              00000                                                              3945020002 0016 
3900401002 0200043040000400000            3945010019 0061    20221231 01002 020004304                         FRAGUAS (LAS)            FRAGUAS (LAS)            00004CASTA헨RA (LA)           00000                                                              3945010019 0061 
3900401002 0200043040000400000            3945020020 0048    20221231 01002 020004304                         FRAGUAS (LAS)            FRAGUAS (LAS)            00004CASTA헨RA (LA)           00000                                                              3945020020 0048 
3900401002 0200043040000600000            3945010067 0099    20221231 01002 020004304                         FRAGUAS (LAS)            FRAGUAS (LAS)            00006COLLANTES                00000                                                              3945010067 0099 
3900401002 0200043040000600000            3945020058 0110    20221231 01002 020004304                         FRAGUAS (LAS)            FRAGUAS (LAS)            00006COLLANTES                00000                                                              3945020058 0110 
3900401002 0200043040007500000            3945010035 0063    20221231 01002 020004304                         FRAGUAS (LAS)            FRAGUAS (LAS)            00075ESTACI흁 (DE LA)         00000                                                              3945010035 0063 
3900401002 0200043040007500000            3945020038 0048    20221231 01002 020004304                         FRAGUAS (LAS)            FRAGUAS (LAS)            00075ESTACI흁 (DE LA)         00000                                                              3945020038 0048 
3900401002 0300056010001600000            3945010001 0037    20221231 01002 030005601                         LLARES (LOS)             LLARES (LOS)             00016LLARES (LOS)             00000                                                              3945010001 0037 
3900401002 0300056010001600000            3945020004A0034    20221231 01002 030005601                         LLARES (LOS)             LLARES (LOS)             00016LLARES (LOS)             00000                                                              3945020004A0034 
3900401002 0100069010002300000            3945010013 0027    20221231 01002 010006901                         PALACIO                  PALACIO                  00023PALACIO                  00000                                                              3945010013 0027 
3900401002 0100069010002300000            3945020002 0084    20221231 01002 010006901                         PALACIO                  PALACIO                  00023PALACIO                  00000                                                              3945020002 0084 
3900401002 0100075030001100000            3945010001 0113    20221231 01002 010007503                         PEDREDO                  PEDREDO                  00011CUYAABAJO                00000                                                              3945010001 0113 
3900401002 0100075030001100000            3945020002 0102    20221231 01002 010007503                         PEDREDO                  PEDREDO                  00011CUYAABAJO                00000                                                              3945020002 0102 
3900401002 0100075030001200000            3945010091 0123    20221231 01002 010007503                         PEDREDO                  PEDREDO                  00012CUYAARRIBA               00000                                                              3945010091 0123 
3900401002 0100075030001200000            3945020092 0126A   20221231 01002 010007503                         PEDREDO                  PEDREDO                  00012CUYAARRIBA               00000                                                              3945020092 0126A
3900401002 0100081010006800000            3945010001 0075    20221231 01002 010008101                         SAN CRISTOBAL            SAN CRISTOBAL            00068SAN CRISTOBAL            00000                                                              3945010001 0075 
3900401002 0100081010006800000            3945020002 0076    20221231 01002 010008101                         SAN CRISTOBAL            SAN CRISTOBAL            00068SAN CRISTOBAL            00000                                                              3945020002 0076 
3900401001 0100094040002500000            3945110001 0089A   20221231 01001 010009404                         SAN JUAN DE RAICEDO      SAN JUAN DE RAICEDO      00025RAICEDO                  00000                                                              3945110001 0089A
3900401001 0100094040002500000            3945120006 0058    20221231 01001 010009404                         SAN JUAN DE RAICEDO      SAN JUAN DE RAICEDO      00025RAICEDO                  00000                                                              3945120006 0058 
3900401001 0100094040003200000            3945100000S0000S   20221231 01001 010009404                         SAN JUAN DE RAICEDO      SAN JUAN DE RAICEDO      00032TEJERAS                  00000                                                              3945100000S0000S
3900401001 0100094040003200000            3945110069 0077    20221231 01001 010009404                         SAN JUAN DE RAICEDO      SAN JUAN DE RAICEDO      00032TEJERAS                  00000                                                              3945110069 0077 
3900401001 0100094040003200000            3945120068 0092    20221231 01001 010009404                         SAN JUAN DE RAICEDO      SAN JUAN DE RAICEDO      00032TEJERAS                  00000                                                              3945120068 0092 
3900401001 0100094040006300000            3945110017 0093    20221231 01001 010009404                         SAN JUAN DE RAICEDO      SAN JUAN DE RAICEDO      00063SAN JUAN                 00000                                                              3945110017 0093 
3900401001 0100094040006300000            3945120080 0094    20221231 01001 010009404                         SAN JUAN DE RAICEDO      SAN JUAN DE RAICEDO      00063SAN JUAN                 00000                                                              3945120080 0094 
3900401001 0100094040006400000            3945100000S0000S   20221231 01001 010009404                         SAN JUAN DE RAICEDO      SAN JUAN DE RAICEDO      00064SAN JUAN DE RAICEDO      00000                                                              3945100000S0000S
3900401001 0100094040006400000            3945110047 0047    20221231 01001 010009404                         SAN JUAN DE RAICEDO      SAN JUAN DE RAICEDO      00064SAN JUAN DE RAICEDO      00000                                                              3945110047 0047 
3900401002 0300108010007000000            3945010001 0073    20221231 01002 030010801                         SAN VICENTE DE LEON      SAN VICENTE DE LEON      00070SAN VICENTE              00000                                                              3945010001 0073 
3900401002 0300108010007000000            3945020004 0084    20221231 01002 030010801                         SAN VICENTE DE LEON      SAN VICENTE DE LEON      00070SAN VICENTE              00000                                                              3945020004 0084 
3900401001 0200115010006500000            3945110001 0007    20221231 01001 020011501                         SANTA AGUEDA             SANTA AGUEDA             00065SANTA AGUEDA             00000                                                              3945110001 0007 
3900401001 0200115010006500000            3945120002 0006    20221231 01001 020011501                         SANTA AGUEDA             SANTA AGUEDA             00065SANTA AGUEDA             00000                                                              3945120002 0006 
3900401001 0100120020000700000            3945010001 0017    20221231 01001 010012002                         SERNA (LA)               SERNA (LA)               00007CORRAL ABAJO             00000                                                              3945010001 0017 
3900401001 0100120020000700000            3945020004 0024    20221231 01001 010012002                         SERNA (LA)               SERNA (LA)               00007CORRAL ABAJO             00000                                                              3945020004 0024 
3900401001 0100120020000800000            3945010025 0045    20221231 01001 010012002                         SERNA (LA)               SERNA (LA)               00008CORRAL MAYOR             00000                                                              3945010025 0045 
3900401001 0100120020000800000            3945020028 0186G   20221231 01001 010012002                         SERNA (LA)               SERNA (LA)               00008CORRAL MAYOR             00000                                                              3945020028 0186G
3900401001 0100120020000900000            3945010079 0079    20221231 01001 010012002                         SERNA (LA)               SERNA (LA)               00009CORRALADA (LA)           00000                                                              3945010079 0079 
3900401001 0100120020000900000            3945020042 0082    20221231 01001 010012002                         SERNA (LA)               SERNA (LA)               00009CORRALADA (LA)           00000                                                              3945020042 0082 
3900401001 0100120020001400000            3945010097A0165    20221231 01001 010012002                         SERNA (LA)               SERNA (LA)               00014HELECHA                  00000                                                              3945010097A0165 
3900401001 0100120020001400000            3945020020 0164    20221231 01001 010012002                         SERNA (LA)               SERNA (LA)               00014HELECHA                  00000                                                              3945020020 0164 
3900401001 0100120020006600000            3945010073 0279    20221231 01001 010012002                         SERNA (LA)               SERNA (LA)               00066SAN ANTONIO              00000                                                              3945010073 0279 
3900401001 0100120020006600000            3945020070 0078    20221231 01001 010012002                         SERNA (LA)               SERNA (LA)               00066SAN ANTONIO              00000                                                              3945020070 0078 
3900401001 0100120020007200000            3945010045 0069    20221231 01001 010012002                         SERNA (LA)               SERNA (LA)               00072GENERAL (SERNA)          00000                                                              3945010045 0069 
3900401001 0100120020007200000            3945020038 0094    20221231 01001 010012002                         SERNA (LA)               SERNA (LA)               00072GENERAL (SERNA)          00000                                                              3945020038 0094 
3900401001 0100120020007300000            3945010003 0033B   20221231 01001 010012002                         SERNA (LA)               SERNA (LA)               00073JARAMIO (EL)             00000                                                              3945010003 0033B
3900501001   00017010001500000            3919710003 0017    20221231 01001   0001701                         ANCILLO                  ANCILLO                  00015SIERRA (LA)              00000                                                              3919710003 0017 
3900501001   00017010001500000            3919720002 0016    20221231 01001   0001701                         ANCILLO                  ANCILLO                  00015SIERRA (LA)              00000                                                              3919720002 0016 
3900501001   00017010002600000            3919710001 0051    20221231 01001   0001701                         ANCILLO                  ANCILLO                  00026ANCILLO                  00000                                                              3919710001 0051 
3900501001   00017010002600000            3919720002 0064    20221231 01001   0001701                         ANCILLO                  ANCILLO                  00026ANCILLO                  00000                                                              3919720002 0064 
3900501001   00017010002900000            3919710001 0009    20221231 01001   0001701                         ANCILLO                  ANCILLO                  00029BARRIO ANCILLO           00000                                                              3919710001 0009 
3900501001   00017010002900000            3919720002 0006B   20221231 01001   0001701                         ANCILLO                  ANCILLO                  00029BARRIO ANCILLO           00000                                                              3919720002 0006B
3900501001   00022010000800000            3919710001 0007    20221231 01001   0002201                         ARGO헲S                  ARGO헲S                  00008FUENTELLORO              00000                                                              3919710001 0007 
3900501001   00022010000800000            3919720002 0008    20221231 01001   0002201                         ARGO헲S                  ARGO헲S                  00008FUENTELLORO              00000                                                              3919720002 0008 
3900501001   00022010001100000            3919710001 0043    20221231 01001   0002201                         ARGO헲S                  ARGO헲S                  00011IGLESIA (LA)             00000                                                              3919710001 0043 
3900501001   00022010001100000            3919720002 0030    20221231 01001   0002201                         ARGO헲S                  ARGO헲S                  00011IGLESIA (LA)             00000                                                              3919720002 0030 
3900501001   00022010001300000            3919710001 00579   20221231 01001   0002201                         ARGO헲S                  ARGO헲S                  00013PIEDRAHITA               00000                                                              3919710001 00579
3900501001   00022010001300000            3919720002 0054    20221231 01001   0002201                         ARGO헲S                  ARGO헲S                  00013PIEDRAHITA               00000                                                              3919720002 0054 
3900501001   00022010001400000            3919710003 0029    20221231 01001   0002201                         ARGO헲S                  ARGO헲S                  00014SUMIGEDO                 00000                                                              3919710003 0029 
3900501001   00022010001400000            3919720004 0030    20221231 01001   0002201                         ARGO헲S                  ARGO헲S                  00014SUMIGEDO                 00000                                                              3919720004 0030 
3900501001   00022010002700000            3919710005 0017    20221231 01001   0002201                         ARGO헲S                  ARGO헲S                  00027HOYA (LA)                00000                                                              3919710005 0017 
3900501001   00022010002700000            3919720004 0018    20221231 01001   0002201                         ARGO헲S                  ARGO헲S                  00027HOYA (LA)                00000                                                              3919720004 0018 
3900501001   00022010003000000            3919710005 0019    20221231 01001   0002201                         ARGO헲S                  ARGO헲S                  00030CAGIGA (LA)              00000                                                              3919710005 0019 
3900501001   00022010003000000            3919720002 0018    20221231 01001   0002201                         ARGO헲S                  ARGO헲S                  00030CAGIGA (LA)              00000                                                              3919720002 0018 
3900501001   00022010003100000            3919710001 0007    20221231 01001   0002201                         ARGO헲S                  ARGO헲S                  00031RAM (LA)                 00000                                                              3919710001 0007 
3900501001   00022010003100000            3919720004 0006    20221231 01001   0002201                         ARGO헲S                  ARGO헲S                  00031RAM (LA)                 00000                                                              3919720004 0006 
3900501001   00022010003200000            3919710001 0003    20221231 01001   0002201                         ARGO헲S                  ARGO헲S                  00032TRASMIERA                00000                                                              3919710001 0003 
3900501001   00022010003200000            3919720002 0004    20221231 01001   0002201                         ARGO헲S                  ARGO헲S                  00032TRASMIERA                00000                                                              3919720002 0004 
3900501001   00022010003300000            3919710003 0025    20221231 01001   0002201                         ARGO헲S                  ARGO헲S                  00033SIETE VILLAS             00000                                                              3919710003 0025 
3900501001   00022010003300000            3919720006 0026    20221231 01001   0002201                         ARGO헲S                  ARGO헲S                  00033SIETE VILLAS             00000                                                              3919720006 0026 
3900501001   00022010003500000            3919710001 0009    20221231 01001   0002201                         ARGO헲S                  ARGO헲S                  00035SAN ROQUE                00000                                                              3919710001 0009 
3900501001   00022010003500000            3919720002 0010    20221231 01001   0002201                         ARGO헲S                  ARGO헲S                  00035SAN ROQUE                00000                                                              3919720002 0010 
3900501001   00022010003600000            3919710001 0019    20221231 01001   0002201                         ARGO헲S                  ARGO헲S                  00036TEJAS (LAS)              00000                                                              3919710001 0019 
3900501001   00022010003600000            3919720002 0024    20221231 01001   0002201                         ARGO헲S                  ARGO헲S                  00036TEJAS (LAS)              00000                                                              3919720002 0024 
3900501001   00022010005100000            3919710001 0065    20221231 01001   0002201                         ARGO헲S                  ARGO헲S                  00051PUEBLO DEL MAR I         00000                                                              3919710001 0065 
3900501001   00022010005100000            3919720004 0064    20221231 01001   0002201                         ARGO헲S                  ARGO헲S                  00051PUEBLO DEL MAR I         00000                                                              3919720004 0064 
3900501001   00022010005200000            3919710021 0021    20221231 01001   0002201                         ARGO헲S                  ARGO헲S                  00052ENTREPLAYAS              00000                                                              3919710021 0021 
3900501001   00022010005200000            3919720028 0028    20221231 01001   0002201                         ARGO헲S                  ARGO헲S                  00052ENTREPLAYAS              00000                                                              3919720028 0028 
3900501001   00022010005300000            3919710001 0101    20221231 01001   0002201                         ARGO헲S                  ARGO헲S                  00053PUEBLO DEL MAR II        00000                                                              3919710001 0101 
